{
  "contracts/Booker.sol": {
    "Booker": {
      "abi": [
        {
          "inputs": [],
          "stateMutability": "nonpayable",
          "type": "constructor"
        },
        {
          "anonymous": false,
          "inputs": [
            {
              "indexed": true,
              "internalType": "address",
              "name": "owner",
              "type": "address"
            },
            {
              "indexed": true,
              "internalType": "address",
              "name": "approved",
              "type": "address"
            },
            {
              "indexed": true,
              "internalType": "uint256",
              "name": "tokenId",
              "type": "uint256"
            }
          ],
          "name": "Approval",
          "type": "event"
        },
        {
          "anonymous": false,
          "inputs": [
            {
              "indexed": true,
              "internalType": "address",
              "name": "owner",
              "type": "address"
            },
            {
              "indexed": true,
              "internalType": "address",
              "name": "operator",
              "type": "address"
            },
            {
              "indexed": false,
              "internalType": "bool",
              "name": "approved",
              "type": "bool"
            }
          ],
          "name": "ApprovalForAll",
          "type": "event"
        },
        {
          "anonymous": false,
          "inputs": [
            {
              "indexed": false,
              "internalType": "address",
              "name": "user",
              "type": "address"
            },
            {
              "indexed": false,
              "internalType": "string",
              "name": "stayId",
              "type": "string"
            },
            {
              "indexed": false,
              "internalType": "uint256",
              "name": "value",
              "type": "uint256"
            }
          ],
          "name": "BookStay",
          "type": "event"
        },
        {
          "anonymous": false,
          "inputs": [
            {
              "indexed": false,
              "internalType": "address",
              "name": "user",
              "type": "address"
            },
            {
              "indexed": false,
              "internalType": "uint256",
              "name": "value",
              "type": "uint256"
            }
          ],
          "name": "JoinStay",
          "type": "event"
        },
        {
          "anonymous": false,
          "inputs": [
            {
              "indexed": true,
              "internalType": "address",
              "name": "previousOwner",
              "type": "address"
            },
            {
              "indexed": true,
              "internalType": "address",
              "name": "newOwner",
              "type": "address"
            }
          ],
          "name": "OwnershipTransferred",
          "type": "event"
        },
        {
          "anonymous": false,
          "inputs": [
            {
              "indexed": true,
              "internalType": "address",
              "name": "from",
              "type": "address"
            },
            {
              "indexed": true,
              "internalType": "address",
              "name": "to",
              "type": "address"
            },
            {
              "indexed": true,
              "internalType": "uint256",
              "name": "tokenId",
              "type": "uint256"
            }
          ],
          "name": "Transfer",
          "type": "event"
        },
        {
          "inputs": [
            {
              "internalType": "string",
              "name": "id",
              "type": "string"
            },
            {
              "internalType": "uint256",
              "name": "costPerPerson",
              "type": "uint256"
            },
            {
              "internalType": "uint8",
              "name": "spots",
              "type": "uint8"
            },
            {
              "internalType": "string",
              "name": "imageURL",
              "type": "string"
            }
          ],
          "name": "addStay",
          "outputs": [],
          "stateMutability": "nonpayable",
          "type": "function"
        },
        {
          "inputs": [
            {
              "internalType": "address",
              "name": "to",
              "type": "address"
            },
            {
              "internalType": "uint256",
              "name": "tokenId",
              "type": "uint256"
            }
          ],
          "name": "approve",
          "outputs": [],
          "stateMutability": "nonpayable",
          "type": "function"
        },
        {
          "inputs": [
            {
              "internalType": "address",
              "name": "owner",
              "type": "address"
            }
          ],
          "name": "balanceOf",
          "outputs": [
            {
              "internalType": "uint256",
              "name": "",
              "type": "uint256"
            }
          ],
          "stateMutability": "view",
          "type": "function"
        },
        {
          "inputs": [],
          "name": "fee",
          "outputs": [
            {
              "internalType": "uint256",
              "name": "",
              "type": "uint256"
            }
          ],
          "stateMutability": "view",
          "type": "function"
        },
        {
          "inputs": [
            {
              "internalType": "uint256",
              "name": "tokenId",
              "type": "uint256"
            }
          ],
          "name": "getApproved",
          "outputs": [
            {
              "internalType": "address",
              "name": "",
              "type": "address"
            }
          ],
          "stateMutability": "view",
          "type": "function"
        },
        {
          "inputs": [
            {
              "internalType": "address",
              "name": "owner",
              "type": "address"
            },
            {
              "internalType": "address",
              "name": "operator",
              "type": "address"
            }
          ],
          "name": "isApprovedForAll",
          "outputs": [
            {
              "internalType": "bool",
              "name": "",
              "type": "bool"
            }
          ],
          "stateMutability": "view",
          "type": "function"
        },
        {
          "inputs": [
            {
              "internalType": "contract IERC20",
              "name": "token",
              "type": "address"
            },
            {
              "internalType": "uint256",
              "name": "amount",
              "type": "uint256"
            },
            {
              "internalType": "string",
              "name": "stayId",
              "type": "string"
            }
          ],
          "name": "joinStay",
          "outputs": [],
          "stateMutability": "nonpayable",
          "type": "function"
        },
        {
          "inputs": [],
          "name": "name",
          "outputs": [
            {
              "internalType": "string",
              "name": "",
              "type": "string"
            }
          ],
          "stateMutability": "view",
          "type": "function"
        },
        {
          "inputs": [],
          "name": "owner",
          "outputs": [
            {
              "internalType": "address",
              "name": "",
              "type": "address"
            }
          ],
          "stateMutability": "view",
          "type": "function"
        },
        {
          "inputs": [
            {
              "internalType": "uint256",
              "name": "tokenId",
              "type": "uint256"
            }
          ],
          "name": "ownerOf",
          "outputs": [
            {
              "internalType": "address",
              "name": "",
              "type": "address"
            }
          ],
          "stateMutability": "view",
          "type": "function"
        },
        {
          "inputs": [],
          "name": "renounceOwnership",
          "outputs": [],
          "stateMutability": "nonpayable",
          "type": "function"
        },
        {
          "inputs": [
            {
              "internalType": "address",
              "name": "from",
              "type": "address"
            },
            {
              "internalType": "address",
              "name": "to",
              "type": "address"
            },
            {
              "internalType": "uint256",
              "name": "tokenId",
              "type": "uint256"
            }
          ],
          "name": "safeTransferFrom",
          "outputs": [],
          "stateMutability": "nonpayable",
          "type": "function"
        },
        {
          "inputs": [
            {
              "internalType": "address",
              "name": "from",
              "type": "address"
            },
            {
              "internalType": "address",
              "name": "to",
              "type": "address"
            },
            {
              "internalType": "uint256",
              "name": "tokenId",
              "type": "uint256"
            },
            {
              "internalType": "bytes",
              "name": "data",
              "type": "bytes"
            }
          ],
          "name": "safeTransferFrom",
          "outputs": [],
          "stateMutability": "nonpayable",
          "type": "function"
        },
        {
          "inputs": [
            {
              "internalType": "address",
              "name": "operator",
              "type": "address"
            },
            {
              "internalType": "bool",
              "name": "approved",
              "type": "bool"
            }
          ],
          "name": "setApprovalForAll",
          "outputs": [],
          "stateMutability": "nonpayable",
          "type": "function"
        },
        {
          "inputs": [
            {
              "internalType": "uint256",
              "name": "newFee",
              "type": "uint256"
            }
          ],
          "name": "setFee",
          "outputs": [],
          "stateMutability": "nonpayable",
          "type": "function"
        },
        {
          "inputs": [
            {
              "internalType": "bytes4",
              "name": "interfaceId",
              "type": "bytes4"
            }
          ],
          "name": "supportsInterface",
          "outputs": [
            {
              "internalType": "bool",
              "name": "",
              "type": "bool"
            }
          ],
          "stateMutability": "view",
          "type": "function"
        },
        {
          "inputs": [],
          "name": "symbol",
          "outputs": [
            {
              "internalType": "string",
              "name": "",
              "type": "string"
            }
          ],
          "stateMutability": "view",
          "type": "function"
        },
        {
          "inputs": [
            {
              "internalType": "uint256",
              "name": "tokenId",
              "type": "uint256"
            }
          ],
          "name": "tokenURI",
          "outputs": [
            {
              "internalType": "string",
              "name": "",
              "type": "string"
            }
          ],
          "stateMutability": "view",
          "type": "function"
        },
        {
          "inputs": [
            {
              "internalType": "address",
              "name": "from",
              "type": "address"
            },
            {
              "internalType": "address",
              "name": "to",
              "type": "address"
            },
            {
              "internalType": "uint256",
              "name": "tokenId",
              "type": "uint256"
            }
          ],
          "name": "transferFrom",
          "outputs": [],
          "stateMutability": "nonpayable",
          "type": "function"
        },
        {
          "inputs": [
            {
              "internalType": "address",
              "name": "newOwner",
              "type": "address"
            }
          ],
          "name": "transferOwnership",
          "outputs": [],
          "stateMutability": "nonpayable",
          "type": "function"
        }
      ],
      "evm": {
        "bytecode": {
          "linkReferences": {},
          "object": "60806040523480156200001157600080fd5b506040518060400160405280600981526020017f53746179546f6b656e00000000000000000000000000000000000000000000008152506040518060400160405280600381526020017f53545600000000000000000000000000000000000000000000000000000000008152506200009e620000926200012160201b60201c565b6200012960201b60201c565b8160019080519060200190620000b6929190620001ed565b508060029080519060200190620000cf929190620001ed565b505050606860098190555033600a60006101000a81548173ffffffffffffffffffffffffffffffffffffffff021916908373ffffffffffffffffffffffffffffffffffffffff16021790555062000302565b600033905090565b60008060009054906101000a900473ffffffffffffffffffffffffffffffffffffffff169050816000806101000a81548173ffffffffffffffffffffffffffffffffffffffff021916908373ffffffffffffffffffffffffffffffffffffffff1602179055508173ffffffffffffffffffffffffffffffffffffffff168173ffffffffffffffffffffffffffffffffffffffff167f8be0079c531659141344cd1fd0a4f28419497f9722a3daafe3b4186f6b6457e060405160405180910390a35050565b828054620001fb90620002cc565b90600052602060002090601f0160209004810192826200021f57600085556200026b565b82601f106200023a57805160ff19168380011785556200026b565b828001600101855582156200026b579182015b828111156200026a5782518255916020019190600101906200024d565b5b5090506200027a91906200027e565b5090565b5b80821115620002995760008160009055506001016200027f565b5090565b7f4e487b7100000000000000000000000000000000000000000000000000000000600052602260045260246000fd5b60006002820490506001821680620002e557607f821691505b60208210811415620002fc57620002fb6200029d565b5b50919050565b6136bb80620003126000396000f3fe608060405234801561001057600080fd5b506004361061012c5760003560e01c8063715018a6116100ad578063b88d4fde11610071578063b88d4fde14610319578063c87b56dd14610335578063ddca3f4314610365578063e985e9c514610383578063f2fde38b146103b35761012c565b8063715018a61461029b5780637d5094ce146102a55780638da5cb5b146102c157806395d89b41146102df578063a22cb465146102fd5761012c565b806342842e0e116100f457806342842e0e146101e75780635fe9ca52146102035780636352211e1461021f57806369fe0e2d1461024f57806370a082311461026b5761012c565b806301ffc9a71461013157806306fdde0314610161578063081812fc1461017f578063095ea7b3146101af57806323b872dd146101cb575b600080fd5b61014b6004803603810190610146919061212a565b6103cf565b6040516101589190612172565b60405180910390f35b6101696104b1565b6040516101769190612226565b60405180910390f35b6101996004803603810190610194919061227e565b610543565b6040516101a691906122ec565b60405180910390f35b6101c960048036038101906101c49190612333565b610589565b005b6101e560048036038101906101e09190612373565b6106a1565b005b61020160048036038101906101fc9190612373565b610701565b005b61021d60048036038101906102189190612469565b610721565b005b6102396004803603810190610234919061227e565b610bc1565b60405161024691906122ec565b60405180910390f35b6102696004803603810190610264919061227e565b610c73565b005b610285600480360381019061028091906124dd565b610c85565b6040516102929190612519565b60405180910390f35b6102a3610d3d565b005b6102bf60048036038101906102ba919061256d565b610d51565b005b6102c9610ea6565b6040516102d691906122ec565b60405180910390f35b6102e7610ecf565b6040516102f49190612226565b60405180910390f35b61031760048036038101906103129190612640565b610f61565b005b610333600480360381019061032e91906127b0565b610f77565b005b61034f600480360381019061034a919061227e565b610fd9565b60405161035c9190612226565b60405180910390f35b61036d610feb565b60405161037a9190612519565b60405180910390f35b61039d60048036038101906103989190612833565b610ff1565b6040516103aa9190612172565b60405180910390f35b6103cd60048036038101906103c891906124dd565b611085565b005b60007f80ac58cd000000000000000000000000000000000000000000000000000000007bffffffffffffffffffffffffffffffffffffffffffffffffffffffff1916827bffffffffffffffffffffffffffffffffffffffffffffffffffffffff1916148061049a57507f5b5e139f000000000000000000000000000000000000000000000000000000007bffffffffffffffffffffffffffffffffffffffffffffffffffffffff1916827bffffffffffffffffffffffffffffffffffffffffffffffffffffffff1916145b806104aa57506104a982611109565b5b9050919050565b6060600180546104c0906128a2565b80601f01602080910402602001604051908101604052809291908181526020018280546104ec906128a2565b80156105395780601f1061050e57610100808354040283529160200191610539565b820191906000526020600020905b81548152906001019060200180831161051c57829003601f168201915b5050505050905090565b600061054e82611173565b6005600083815260200190815260200160002060009054906101000a900473ffffffffffffffffffffffffffffffffffffffff169050919050565b600061059482610bc1565b90508073ffffffffffffffffffffffffffffffffffffffff168373ffffffffffffffffffffffffffffffffffffffff161415610605576040517f08c379a00000000000000000000000000000000000000000000000000000000081526004016105fc90612946565b60405180910390fd5b8073ffffffffffffffffffffffffffffffffffffffff166106246111be565b73ffffffffffffffffffffffffffffffffffffffff16148061065357506106528161064d6111be565b610ff1565b5b610692576040517f08c379a0000000000000000000000000000000000000000000000000000000008152600401610689906129d8565b60405180910390fd5b61069c83836111c6565b505050565b6106b26106ac6111be565b8261127f565b6106f1576040517f08c379a00000000000000000000000000000000000000000000000000000000081526004016106e890612a6a565b60405180910390fd5b6106fc838383611314565b505050565b61071c83838360405180602001604052806000815250610f77565b505050565b6000600b8383604051610735929190612aba565b908152602001604051809103902090508473ffffffffffffffffffffffffffffffffffffffff166370a08231336040518263ffffffff1660e01b815260040161077e91906122ec565b60206040518083038186803b15801561079657600080fd5b505afa1580156107aa573d6000803e3d6000fd5b505050506040513d601f19601f820116820180604052508101906107ce9190612ae8565b841115610810576040517f08c379a000000000000000000000000000000000000000000000000000000000815260040161080790612b61565b60405180910390fd5b606460095482600101546108249190612bb0565b61082e9190612c39565b841461086f576040517f08c379a000000000000000000000000000000000000000000000000000000000815260040161086690612cb6565b60405180910390fd5b60008160030160009054906101000a900460ff1660ff16116108c6576040517f08c379a00000000000000000000000000000000000000000000000000000000081526004016108bd90612d22565b60405180910390fd5b8473ffffffffffffffffffffffffffffffffffffffff166323b872dd3330876040518463ffffffff1660e01b815260040161090393929190612d42565b602060405180830381600087803b15801561091d57600080fd5b505af1158015610931573d6000803e3d6000fd5b505050506040513d601f19601f820116820180604052508101906109559190612d8e565b50610960600861157b565b6109733361096e6008611591565b61159f565b610a126109806008611591565b82600401805461098f906128a2565b80601f01602080910402602001604051908101604052809291908181526020018280546109bb906128a2565b8015610a085780601f106109dd57610100808354040283529160200191610a08565b820191906000526020600020905b8154815290600101906020018083116109eb57829003601f168201915b5050505050611779565b80600301600081819054906101000a900460ff1680929190610a3390612dbb565b91906101000a81548160ff021916908360ff1602179055505083816002016000828254610a609190612de5565b9250508190555060008160030160009054906101000a900460ff1660ff161415610b80578473ffffffffffffffffffffffffffffffffffffffff166323b872dd30600a60009054906101000a900473ffffffffffffffffffffffffffffffffffffffff1684600201546040518463ffffffff1660e01b8152600401610ae793929190612d42565b602060405180830381600087803b158015610b0157600080fd5b505af1158015610b15573d6000803e3d6000fd5b505050506040513d601f19601f82011682018060405250810190610b399190612d8e565b507f9ea274ade34969e9740a96a5c5d16ef0dc5cc6f86f1f8e808accc76327eba0583384848460020154604051610b739493929190612e68565b60405180910390a1610bba565b7f4fc330fc2865a5bafe9f96d54262ddd229c3d6b4a9b37e66797f6a2e7a90bc703385604051610bb1929190612ea8565b60405180910390a15b5050505050565b6000806003600084815260200190815260200160002060009054906101000a900473ffffffffffffffffffffffffffffffffffffffff169050600073ffffffffffffffffffffffffffffffffffffffff168173ffffffffffffffffffffffffffffffffffffffff161415610c6a576040517f08c379a0000000000000000000000000000000000000000000000000000000008152600401610c6190612f1d565b60405180910390fd5b80915050919050565b610c7b6117ed565b8060098190555050565b60008073ffffffffffffffffffffffffffffffffffffffff168273ffffffffffffffffffffffffffffffffffffffff161415610cf6576040517f08c379a0000000000000000000000000000000000000000000000000000000008152600401610ced90612faf565b60405180910390fd5b600460008373ffffffffffffffffffffffffffffffffffffffff1673ffffffffffffffffffffffffffffffffffffffff168152602001908152602001600020549050919050565b610d456117ed565b610d4f600061186b565b565b60006040518060a0016040528088888080601f016020809104026020016040519081016040528093929190818152602001838380828437600081840152601f19601f820116905080830192505050505050508152602001868152602001600081526020018560ff16815260200184848080601f016020809104026020016040519081016040528093929190818152602001838380828437600081840152601f19601f82011690508083019250505050505050815250905080600b8260000151604051610e1d9190613000565b90815260200160405180910390206000820151816000019080519060200190610e4792919061201b565b50602082015181600101556040820151816002015560608201518160030160006101000a81548160ff021916908360ff1602179055506080820151816004019080519060200190610e9992919061201b565b5090505050505050505050565b60008060009054906101000a900473ffffffffffffffffffffffffffffffffffffffff16905090565b606060028054610ede906128a2565b80601f0160208091040260200160405190810160405280929190818152602001828054610f0a906128a2565b8015610f575780601f10610f2c57610100808354040283529160200191610f57565b820191906000526020600020905b815481529060010190602001808311610f3a57829003601f168201915b5050505050905090565b610f73610f6c6111be565b838361192f565b5050565b610f88610f826111be565b8361127f565b610fc7576040517f08c379a0000000000000000000000000000000000000000000000000000000008152600401610fbe90612a6a565b60405180910390fd5b610fd384848484611a9c565b50505050565b6060610fe482611af8565b9050919050565b60095481565b6000600660008473ffffffffffffffffffffffffffffffffffffffff1673ffffffffffffffffffffffffffffffffffffffff16815260200190815260200160002060008373ffffffffffffffffffffffffffffffffffffffff1673ffffffffffffffffffffffffffffffffffffffff16815260200190815260200160002060009054906101000a900460ff16905092915050565b61108d6117ed565b600073ffffffffffffffffffffffffffffffffffffffff168173ffffffffffffffffffffffffffffffffffffffff1614156110fd576040517f08c379a00000000000000000000000000000000000000000000000000000000081526004016110f490613089565b60405180910390fd5b6111068161186b565b50565b60007f01ffc9a7000000000000000000000000000000000000000000000000000000007bffffffffffffffffffffffffffffffffffffffffffffffffffffffff1916827bffffffffffffffffffffffffffffffffffffffffffffffffffffffff1916149050919050565b61117c81611c0b565b6111bb576040517f08c379a00000000000000000000000000000000000000000000000000000000081526004016111b290612f1d565b60405180910390fd5b50565b600033905090565b816005600083815260200190815260200160002060006101000a81548173ffffffffffffffffffffffffffffffffffffffff021916908373ffffffffffffffffffffffffffffffffffffffff160217905550808273ffffffffffffffffffffffffffffffffffffffff1661123983610bc1565b73ffffffffffffffffffffffffffffffffffffffff167f8c5be1e5ebec7d5bd14f71427d1e84f3dd0314c0f7b2291e5b200ac8c7c3b92560405160405180910390a45050565b60008061128b83610bc1565b90508073ffffffffffffffffffffffffffffffffffffffff168473ffffffffffffffffffffffffffffffffffffffff1614806112cd57506112cc8185610ff1565b5b8061130b57508373ffffffffffffffffffffffffffffffffffffffff166112f384610543565b73ffffffffffffffffffffffffffffffffffffffff16145b91505092915050565b8273ffffffffffffffffffffffffffffffffffffffff1661133482610bc1565b73ffffffffffffffffffffffffffffffffffffffff161461138a576040517f08c379a00000000000000000000000000000000000000000000000000000000081526004016113819061311b565b60405180910390fd5b600073ffffffffffffffffffffffffffffffffffffffff168273ffffffffffffffffffffffffffffffffffffffff1614156113fa576040517f08c379a00000000000000000000000000000000000000000000000000000000081526004016113f1906131ad565b60405180910390fd5b611405838383611c77565b6114106000826111c6565b6001600460008573ffffffffffffffffffffffffffffffffffffffff1673ffffffffffffffffffffffffffffffffffffffff168152602001908152602001600020600082825461146091906131cd565b925050819055506001600460008473ffffffffffffffffffffffffffffffffffffffff1673ffffffffffffffffffffffffffffffffffffffff16815260200190815260200160002060008282546114b79190612de5565b92505081905550816003600083815260200190815260200160002060006101000a81548173ffffffffffffffffffffffffffffffffffffffff021916908373ffffffffffffffffffffffffffffffffffffffff160217905550808273ffffffffffffffffffffffffffffffffffffffff168473ffffffffffffffffffffffffffffffffffffffff167fddf252ad1be2c89b69c2b068fc378daa952ba7f163c4a11628f55a4df523b3ef60405160405180910390a4611576838383611c7c565b505050565b6001816000016000828254019250508190555050565b600081600001549050919050565b600073ffffffffffffffffffffffffffffffffffffffff168273ffffffffffffffffffffffffffffffffffffffff16141561160f576040517f08c379a00000000000000000000000000000000000000000000000000000000081526004016116069061324d565b60405180910390fd5b61161881611c0b565b15611658576040517f08c379a000000000000000000000000000000000000000000000000000000000815260040161164f906132b9565b60405180910390fd5b61166460008383611c77565b6001600460008473ffffffffffffffffffffffffffffffffffffffff1673ffffffffffffffffffffffffffffffffffffffff16815260200190815260200160002060008282546116b49190612de5565b92505081905550816003600083815260200190815260200160002060006101000a81548173ffffffffffffffffffffffffffffffffffffffff021916908373ffffffffffffffffffffffffffffffffffffffff160217905550808273ffffffffffffffffffffffffffffffffffffffff16600073ffffffffffffffffffffffffffffffffffffffff167fddf252ad1be2c89b69c2b068fc378daa952ba7f163c4a11628f55a4df523b3ef60405160405180910390a461177560008383611c7c565b5050565b61178282611c0b565b6117c1576040517f08c379a00000000000000000000000000000000000000000000000000000000081526004016117b89061334b565b60405180910390fd5b806007600084815260200190815260200160002090805190602001906117e892919061201b565b505050565b6117f56111be565b73ffffffffffffffffffffffffffffffffffffffff16611813610ea6565b73ffffffffffffffffffffffffffffffffffffffff1614611869576040517f08c379a0000000000000000000000000000000000000000000000000000000008152600401611860906133b7565b60405180910390fd5b565b60008060009054906101000a900473ffffffffffffffffffffffffffffffffffffffff169050816000806101000a81548173ffffffffffffffffffffffffffffffffffffffff021916908373ffffffffffffffffffffffffffffffffffffffff1602179055508173ffffffffffffffffffffffffffffffffffffffff168173ffffffffffffffffffffffffffffffffffffffff167f8be0079c531659141344cd1fd0a4f28419497f9722a3daafe3b4186f6b6457e060405160405180910390a35050565b8173ffffffffffffffffffffffffffffffffffffffff168373ffffffffffffffffffffffffffffffffffffffff16141561199e576040517f08c379a000000000000000000000000000000000000000000000000000000000815260040161199590613423565b60405180910390fd5b80600660008573ffffffffffffffffffffffffffffffffffffffff1673ffffffffffffffffffffffffffffffffffffffff16815260200190815260200160002060008473ffffffffffffffffffffffffffffffffffffffff1673ffffffffffffffffffffffffffffffffffffffff16815260200190815260200160002060006101000a81548160ff0219169083151502179055508173ffffffffffffffffffffffffffffffffffffffff168373ffffffffffffffffffffffffffffffffffffffff167f17307eab39ab6107e8899845ad3d59bd9653f200f220920489ca2b5937696c3183604051611a8f9190612172565b60405180910390a3505050565b611aa7848484611314565b611ab384848484611c81565b611af2576040517f08c379a0000000000000000000000000000000000000000000000000000000008152600401611ae9906134b5565b60405180910390fd5b50505050565b6060611b0382611173565b6000600760008481526020019081526020016000208054611b23906128a2565b80601f0160208091040260200160405190810160405280929190818152602001828054611b4f906128a2565b8015611b9c5780601f10611b7157610100808354040283529160200191611b9c565b820191906000526020600020905b815481529060010190602001808311611b7f57829003601f168201915b505050505090506000611bad611e18565b9050600081511415611bc3578192505050611c06565b600082511115611bf8578082604051602001611be09291906134d5565b60405160208183030381529060405292505050611c06565b611c0184611e2f565b925050505b919050565b60008073ffffffffffffffffffffffffffffffffffffffff166003600084815260200190815260200160002060009054906101000a900473ffffffffffffffffffffffffffffffffffffffff1673ffffffffffffffffffffffffffffffffffffffff1614159050919050565b505050565b505050565b6000611ca28473ffffffffffffffffffffffffffffffffffffffff16611e97565b15611e0b578373ffffffffffffffffffffffffffffffffffffffff1663150b7a02611ccb6111be565b8786866040518563ffffffff1660e01b8152600401611ced949392919061354e565b602060405180830381600087803b158015611d0757600080fd5b505af1925050508015611d3857506040513d601f19601f82011682018060405250810190611d3591906135af565b60015b611dbb573d8060008114611d68576040519150601f19603f3d011682016040523d82523d6000602084013e611d6d565b606091505b50600081511415611db3576040517f08c379a0000000000000000000000000000000000000000000000000000000008152600401611daa906134b5565b60405180910390fd5b805181602001fd5b63150b7a0260e01b7bffffffffffffffffffffffffffffffffffffffffffffffffffffffff1916817bffffffffffffffffffffffffffffffffffffffffffffffffffffffff191614915050611e10565b600190505b949350505050565b606060405180602001604052806000815250905090565b6060611e3a82611173565b6000611e44611e18565b90506000815111611e645760405180602001604052806000815250611e8f565b80611e6e84611eba565b604051602001611e7f9291906134d5565b6040516020818303038152906040525b915050919050565b6000808273ffffffffffffffffffffffffffffffffffffffff163b119050919050565b60606000821415611f02576040518060400160405280600181526020017f30000000000000000000000000000000000000000000000000000000000000008152509050612016565b600082905060005b60008214611f34578080611f1d906135dc565b915050600a82611f2d9190612c39565b9150611f0a565b60008167ffffffffffffffff811115611f5057611f4f612685565b5b6040519080825280601f01601f191660200182016040528015611f825781602001600182028036833780820191505090505b5090505b6000851461200f57600182611f9b91906131cd565b9150600a85611faa9190613625565b6030611fb69190612de5565b60f81b818381518110611fcc57611fcb613656565b5b60200101907effffffffffffffffffffffffffffffffffffffffffffffffffffffffffffff1916908160001a905350600a856120089190612c39565b9450611f86565b8093505050505b919050565b828054612027906128a2565b90600052602060002090601f0160209004810192826120495760008555612090565b82601f1061206257805160ff1916838001178555612090565b82800160010185558215612090579182015b8281111561208f578251825591602001919060010190612074565b5b50905061209d91906120a1565b5090565b5b808211156120ba5760008160009055506001016120a2565b5090565b6000604051905090565b600080fd5b600080fd5b60007fffffffff0000000000000000000000000000000000000000000000000000000082169050919050565b612107816120d2565b811461211257600080fd5b50565b600081359050612124816120fe565b92915050565b6000602082840312156121405761213f6120c8565b5b600061214e84828501612115565b91505092915050565b60008115159050919050565b61216c81612157565b82525050565b60006020820190506121876000830184612163565b92915050565b600081519050919050565b600082825260208201905092915050565b60005b838110156121c75780820151818401526020810190506121ac565b838111156121d6576000848401525b50505050565b6000601f19601f8301169050919050565b60006121f88261218d565b6122028185612198565b93506122128185602086016121a9565b61221b816121dc565b840191505092915050565b6000602082019050818103600083015261224081846121ed565b905092915050565b6000819050919050565b61225b81612248565b811461226657600080fd5b50565b60008135905061227881612252565b92915050565b600060208284031215612294576122936120c8565b5b60006122a284828501612269565b91505092915050565b600073ffffffffffffffffffffffffffffffffffffffff82169050919050565b60006122d6826122ab565b9050919050565b6122e6816122cb565b82525050565b600060208201905061230160008301846122dd565b92915050565b612310816122cb565b811461231b57600080fd5b50565b60008135905061232d81612307565b92915050565b6000806040838503121561234a576123496120c8565b5b60006123588582860161231e565b925050602061236985828601612269565b9150509250929050565b60008060006060848603121561238c5761238b6120c8565b5b600061239a8682870161231e565b93505060206123ab8682870161231e565b92505060406123bc86828701612269565b9150509250925092565b60006123d1826122cb565b9050919050565b6123e1816123c6565b81146123ec57600080fd5b50565b6000813590506123fe816123d8565b92915050565b600080fd5b600080fd5b600080fd5b60008083601f84011261242957612428612404565b5b8235905067ffffffffffffffff81111561244657612445612409565b5b6020830191508360018202830111156124625761246161240e565b5b9250929050565b60008060008060608587031215612483576124826120c8565b5b6000612491878288016123ef565b94505060206124a287828801612269565b935050604085013567ffffffffffffffff8111156124c3576124c26120cd565b5b6124cf87828801612413565b925092505092959194509250565b6000602082840312156124f3576124f26120c8565b5b60006125018482850161231e565b91505092915050565b61251381612248565b82525050565b600060208201905061252e600083018461250a565b92915050565b600060ff82169050919050565b61254a81612534565b811461255557600080fd5b50565b60008135905061256781612541565b92915050565b6000806000806000806080878903121561258a576125896120c8565b5b600087013567ffffffffffffffff8111156125a8576125a76120cd565b5b6125b489828a01612413565b965096505060206125c789828a01612269565b94505060406125d889828a01612558565b935050606087013567ffffffffffffffff8111156125f9576125f86120cd565b5b61260589828a01612413565b92509250509295509295509295565b61261d81612157565b811461262857600080fd5b50565b60008135905061263a81612614565b92915050565b60008060408385031215612657576126566120c8565b5b60006126658582860161231e565b92505060206126768582860161262b565b9150509250929050565b600080fd5b7f4e487b7100000000000000000000000000000000000000000000000000000000600052604160045260246000fd5b6126bd826121dc565b810181811067ffffffffffffffff821117156126dc576126db612685565b5b80604052505050565b60006126ef6120be565b90506126fb82826126b4565b919050565b600067ffffffffffffffff82111561271b5761271a612685565b5b612724826121dc565b9050602081019050919050565b82818337600083830152505050565b600061275361274e84612700565b6126e5565b90508281526020810184848401111561276f5761276e612680565b5b61277a848285612731565b509392505050565b600082601f83011261279757612796612404565b5b81356127a7848260208601612740565b91505092915050565b600080600080608085870312156127ca576127c96120c8565b5b60006127d88782880161231e565b94505060206127e98782880161231e565b93505060406127fa87828801612269565b925050606085013567ffffffffffffffff81111561281b5761281a6120cd565b5b61282787828801612782565b91505092959194509250565b6000806040838503121561284a576128496120c8565b5b60006128588582860161231e565b92505060206128698582860161231e565b9150509250929050565b7f4e487b7100000000000000000000000000000000000000000000000000000000600052602260045260246000fd5b600060028204905060018216806128ba57607f821691505b602082108114156128ce576128cd612873565b5b50919050565b7f4552433732313a20617070726f76616c20746f2063757272656e74206f776e6560008201527f7200000000000000000000000000000000000000000000000000000000000000602082015250565b6000612930602183612198565b915061293b826128d4565b604082019050919050565b6000602082019050818103600083015261295f81612923565b9050919050565b7f4552433732313a20617070726f76652063616c6c6572206973206e6f7420746f60008201527f6b656e206f776e6572206e6f7220617070726f76656420666f7220616c6c0000602082015250565b60006129c2603e83612198565b91506129cd82612966565b604082019050919050565b600060208201905081810360008301526129f1816129b5565b9050919050565b7f4552433732313a2063616c6c6572206973206e6f7420746f6b656e206f776e6560008201527f72206e6f7220617070726f766564000000000000000000000000000000000000602082015250565b6000612a54602e83612198565b9150612a5f826129f8565b604082019050919050565b60006020820190508181036000830152612a8381612a47565b9050919050565b600081905092915050565b6000612aa18385612a8a565b9350612aae838584612731565b82840190509392505050565b6000612ac7828486612a95565b91508190509392505050565b600081519050612ae281612252565b92915050565b600060208284031215612afe57612afd6120c8565b5b6000612b0c84828501612ad3565b91505092915050565b7f62616c616e636520746f6f206c6f770000000000000000000000000000000000600082015250565b6000612b4b600f83612198565b9150612b5682612b15565b602082019050919050565b60006020820190508181036000830152612b7a81612b3e565b9050919050565b7f4e487b7100000000000000000000000000000000000000000000000000000000600052601160045260246000fd5b6000612bbb82612248565b9150612bc683612248565b9250817fffffffffffffffffffffffffffffffffffffffffffffffffffffffffffffffff0483118215151615612bff57612bfe612b81565b5b828202905092915050565b7f4e487b7100000000000000000000000000000000000000000000000000000000600052601260045260246000fd5b6000612c4482612248565b9150612c4f83612248565b925082612c5f57612c5e612c0a565b5b828204905092915050565b7f77726f6e6720616d6f756e74206f6620746f6b656e7300000000000000000000600082015250565b6000612ca0601683612198565b9150612cab82612c6a565b602082019050919050565b60006020820190508181036000830152612ccf81612c93565b9050919050565b7f6e6f2073706f7473206c65667400000000000000000000000000000000000000600082015250565b6000612d0c600d83612198565b9150612d1782612cd6565b602082019050919050565b60006020820190508181036000830152612d3b81612cff565b9050919050565b6000606082019050612d5760008301866122dd565b612d6460208301856122dd565b612d71604083018461250a565b949350505050565b600081519050612d8881612614565b92915050565b600060208284031215612da457612da36120c8565b5b6000612db284828501612d79565b91505092915050565b6000612dc682612534565b91506000821415612dda57612dd9612b81565b5b600182039050919050565b6000612df082612248565b9150612dfb83612248565b9250827fffffffffffffffffffffffffffffffffffffffffffffffffffffffffffffffff03821115612e3057612e2f612b81565b5b828201905092915050565b6000612e478385612198565b9350612e54838584612731565b612e5d836121dc565b840190509392505050565b6000606082019050612e7d60008301876122dd565b8181036020830152612e90818587612e3b565b9050612e9f604083018461250a565b95945050505050565b6000604082019050612ebd60008301856122dd565b612eca602083018461250a565b9392505050565b7f4552433732313a20696e76616c696420746f6b656e2049440000000000000000600082015250565b6000612f07601883612198565b9150612f1282612ed1565b602082019050919050565b60006020820190508181036000830152612f3681612efa565b9050919050565b7f4552433732313a2061646472657373207a65726f206973206e6f74206120766160008201527f6c6964206f776e65720000000000000000000000000000000000000000000000602082015250565b6000612f99602983612198565b9150612fa482612f3d565b604082019050919050565b60006020820190508181036000830152612fc881612f8c565b9050919050565b6000612fda8261218d565b612fe48185612a8a565b9350612ff48185602086016121a9565b80840191505092915050565b600061300c8284612fcf565b915081905092915050565b7f4f776e61626c653a206e6577206f776e657220697320746865207a65726f206160008201527f6464726573730000000000000000000000000000000000000000000000000000602082015250565b6000613073602683612198565b915061307e82613017565b604082019050919050565b600060208201905081810360008301526130a281613066565b9050919050565b7f4552433732313a207472616e736665722066726f6d20696e636f72726563742060008201527f6f776e6572000000000000000000000000000000000000000000000000000000602082015250565b6000613105602583612198565b9150613110826130a9565b604082019050919050565b60006020820190508181036000830152613134816130f8565b9050919050565b7f4552433732313a207472616e7366657220746f20746865207a65726f2061646460008201527f7265737300000000000000000000000000000000000000000000000000000000602082015250565b6000613197602483612198565b91506131a28261313b565b604082019050919050565b600060208201905081810360008301526131c68161318a565b9050919050565b60006131d882612248565b91506131e383612248565b9250828210156131f6576131f5612b81565b5b828203905092915050565b7f4552433732313a206d696e7420746f20746865207a65726f2061646472657373600082015250565b6000613237602083612198565b915061324282613201565b602082019050919050565b600060208201905081810360008301526132668161322a565b9050919050565b7f4552433732313a20746f6b656e20616c7265616479206d696e74656400000000600082015250565b60006132a3601c83612198565b91506132ae8261326d565b602082019050919050565b600060208201905081810360008301526132d281613296565b9050919050565b7f45524337323155524953746f726167653a2055524920736574206f66206e6f6e60008201527f6578697374656e7420746f6b656e000000000000000000000000000000000000602082015250565b6000613335602e83612198565b9150613340826132d9565b604082019050919050565b6000602082019050818103600083015261336481613328565b9050919050565b7f4f776e61626c653a2063616c6c6572206973206e6f7420746865206f776e6572600082015250565b60006133a1602083612198565b91506133ac8261336b565b602082019050919050565b600060208201905081810360008301526133d081613394565b9050919050565b7f4552433732313a20617070726f766520746f2063616c6c657200000000000000600082015250565b600061340d601983612198565b9150613418826133d7565b602082019050919050565b6000602082019050818103600083015261343c81613400565b9050919050565b7f4552433732313a207472616e7366657220746f206e6f6e20455243373231526560008201527f63656976657220696d706c656d656e7465720000000000000000000000000000602082015250565b600061349f603283612198565b91506134aa82613443565b604082019050919050565b600060208201905081810360008301526134ce81613492565b9050919050565b60006134e18285612fcf565b91506134ed8284612fcf565b91508190509392505050565b600081519050919050565b600082825260208201905092915050565b6000613520826134f9565b61352a8185613504565b935061353a8185602086016121a9565b613543816121dc565b840191505092915050565b600060808201905061356360008301876122dd565b61357060208301866122dd565b61357d604083018561250a565b818103606083015261358f8184613515565b905095945050505050565b6000815190506135a9816120fe565b92915050565b6000602082840312156135c5576135c46120c8565b5b60006135d38482850161359a565b91505092915050565b60006135e782612248565b91507fffffffffffffffffffffffffffffffffffffffffffffffffffffffffffffffff82141561361a57613619612b81565b5b600182019050919050565b600061363082612248565b915061363b83612248565b92508261364b5761364a612c0a565b5b828206905092915050565b7f4e487b7100000000000000000000000000000000000000000000000000000000600052603260045260246000fdfea2646970667358221220ed9ec9cc136d147142478f26adb460125c938893cc947257494212c7f82545f464736f6c63430008090033",
          "opcodes": "PUSH1 0x80 PUSH1 0x40 MSTORE CALLVALUE DUP1 ISZERO PUSH3 0x11 JUMPI PUSH1 0x0 DUP1 REVERT JUMPDEST POP PUSH1 0x40 MLOAD DUP1 PUSH1 0x40 ADD PUSH1 0x40 MSTORE DUP1 PUSH1 0x9 DUP2 MSTORE PUSH1 0x20 ADD PUSH32 0x53746179546F6B656E0000000000000000000000000000000000000000000000 DUP2 MSTORE POP PUSH1 0x40 MLOAD DUP1 PUSH1 0x40 ADD PUSH1 0x40 MSTORE DUP1 PUSH1 0x3 DUP2 MSTORE PUSH1 0x20 ADD PUSH32 0x5354560000000000000000000000000000000000000000000000000000000000 DUP2 MSTORE POP PUSH3 0x9E PUSH3 0x92 PUSH3 0x121 PUSH1 0x20 SHL PUSH1 0x20 SHR JUMP JUMPDEST PUSH3 0x129 PUSH1 0x20 SHL PUSH1 0x20 SHR JUMP JUMPDEST DUP2 PUSH1 0x1 SWAP1 DUP1 MLOAD SWAP1 PUSH1 0x20 ADD SWAP1 PUSH3 0xB6 SWAP3 SWAP2 SWAP1 PUSH3 0x1ED JUMP JUMPDEST POP DUP1 PUSH1 0x2 SWAP1 DUP1 MLOAD SWAP1 PUSH1 0x20 ADD SWAP1 PUSH3 0xCF SWAP3 SWAP2 SWAP1 PUSH3 0x1ED JUMP JUMPDEST POP POP POP PUSH1 0x68 PUSH1 0x9 DUP2 SWAP1 SSTORE POP CALLER PUSH1 0xA PUSH1 0x0 PUSH2 0x100 EXP DUP2 SLOAD DUP2 PUSH20 0xFFFFFFFFFFFFFFFFFFFFFFFFFFFFFFFFFFFFFFFF MUL NOT AND SWAP1 DUP4 PUSH20 0xFFFFFFFFFFFFFFFFFFFFFFFFFFFFFFFFFFFFFFFF AND MUL OR SWAP1 SSTORE POP PUSH3 0x302 JUMP JUMPDEST PUSH1 0x0 CALLER SWAP1 POP SWAP1 JUMP JUMPDEST PUSH1 0x0 DUP1 PUSH1 0x0 SWAP1 SLOAD SWAP1 PUSH2 0x100 EXP SWAP1 DIV PUSH20 0xFFFFFFFFFFFFFFFFFFFFFFFFFFFFFFFFFFFFFFFF AND SWAP1 POP DUP2 PUSH1 0x0 DUP1 PUSH2 0x100 EXP DUP2 SLOAD DUP2 PUSH20 0xFFFFFFFFFFFFFFFFFFFFFFFFFFFFFFFFFFFFFFFF MUL NOT AND SWAP1 DUP4 PUSH20 0xFFFFFFFFFFFFFFFFFFFFFFFFFFFFFFFFFFFFFFFF AND MUL OR SWAP1 SSTORE POP DUP2 PUSH20 0xFFFFFFFFFFFFFFFFFFFFFFFFFFFFFFFFFFFFFFFF AND DUP2 PUSH20 0xFFFFFFFFFFFFFFFFFFFFFFFFFFFFFFFFFFFFFFFF AND PUSH32 0x8BE0079C531659141344CD1FD0A4F28419497F9722A3DAAFE3B4186F6B6457E0 PUSH1 0x40 MLOAD PUSH1 0x40 MLOAD DUP1 SWAP2 SUB SWAP1 LOG3 POP POP JUMP JUMPDEST DUP3 DUP1 SLOAD PUSH3 0x1FB SWAP1 PUSH3 0x2CC JUMP JUMPDEST SWAP1 PUSH1 0x0 MSTORE PUSH1 0x20 PUSH1 0x0 KECCAK256 SWAP1 PUSH1 0x1F ADD PUSH1 0x20 SWAP1 DIV DUP2 ADD SWAP3 DUP3 PUSH3 0x21F JUMPI PUSH1 0x0 DUP6 SSTORE PUSH3 0x26B JUMP JUMPDEST DUP3 PUSH1 0x1F LT PUSH3 0x23A JUMPI DUP1 MLOAD PUSH1 0xFF NOT AND DUP4 DUP1 ADD OR DUP6 SSTORE PUSH3 0x26B JUMP JUMPDEST DUP3 DUP1 ADD PUSH1 0x1 ADD DUP6 SSTORE DUP3 ISZERO PUSH3 0x26B JUMPI SWAP2 DUP3 ADD JUMPDEST DUP3 DUP2 GT ISZERO PUSH3 0x26A JUMPI DUP3 MLOAD DUP3 SSTORE SWAP2 PUSH1 0x20 ADD SWAP2 SWAP1 PUSH1 0x1 ADD SWAP1 PUSH3 0x24D JUMP JUMPDEST JUMPDEST POP SWAP1 POP PUSH3 0x27A SWAP2 SWAP1 PUSH3 0x27E JUMP JUMPDEST POP SWAP1 JUMP JUMPDEST JUMPDEST DUP1 DUP3 GT ISZERO PUSH3 0x299 JUMPI PUSH1 0x0 DUP2 PUSH1 0x0 SWAP1 SSTORE POP PUSH1 0x1 ADD PUSH3 0x27F JUMP JUMPDEST POP SWAP1 JUMP JUMPDEST PUSH32 0x4E487B7100000000000000000000000000000000000000000000000000000000 PUSH1 0x0 MSTORE PUSH1 0x22 PUSH1 0x4 MSTORE PUSH1 0x24 PUSH1 0x0 REVERT JUMPDEST PUSH1 0x0 PUSH1 0x2 DUP3 DIV SWAP1 POP PUSH1 0x1 DUP3 AND DUP1 PUSH3 0x2E5 JUMPI PUSH1 0x7F DUP3 AND SWAP2 POP JUMPDEST PUSH1 0x20 DUP3 LT DUP2 EQ ISZERO PUSH3 0x2FC JUMPI PUSH3 0x2FB PUSH3 0x29D JUMP JUMPDEST JUMPDEST POP SWAP2 SWAP1 POP JUMP JUMPDEST PUSH2 0x36BB DUP1 PUSH3 0x312 PUSH1 0x0 CODECOPY PUSH1 0x0 RETURN INVALID PUSH1 0x80 PUSH1 0x40 MSTORE CALLVALUE DUP1 ISZERO PUSH2 0x10 JUMPI PUSH1 0x0 DUP1 REVERT JUMPDEST POP PUSH1 0x4 CALLDATASIZE LT PUSH2 0x12C JUMPI PUSH1 0x0 CALLDATALOAD PUSH1 0xE0 SHR DUP1 PUSH4 0x715018A6 GT PUSH2 0xAD JUMPI DUP1 PUSH4 0xB88D4FDE GT PUSH2 0x71 JUMPI DUP1 PUSH4 0xB88D4FDE EQ PUSH2 0x319 JUMPI DUP1 PUSH4 0xC87B56DD EQ PUSH2 0x335 JUMPI DUP1 PUSH4 0xDDCA3F43 EQ PUSH2 0x365 JUMPI DUP1 PUSH4 0xE985E9C5 EQ PUSH2 0x383 JUMPI DUP1 PUSH4 0xF2FDE38B EQ PUSH2 0x3B3 JUMPI PUSH2 0x12C JUMP JUMPDEST DUP1 PUSH4 0x715018A6 EQ PUSH2 0x29B JUMPI DUP1 PUSH4 0x7D5094CE EQ PUSH2 0x2A5 JUMPI DUP1 PUSH4 0x8DA5CB5B EQ PUSH2 0x2C1 JUMPI DUP1 PUSH4 0x95D89B41 EQ PUSH2 0x2DF JUMPI DUP1 PUSH4 0xA22CB465 EQ PUSH2 0x2FD JUMPI PUSH2 0x12C JUMP JUMPDEST DUP1 PUSH4 0x42842E0E GT PUSH2 0xF4 JUMPI DUP1 PUSH4 0x42842E0E EQ PUSH2 0x1E7 JUMPI DUP1 PUSH4 0x5FE9CA52 EQ PUSH2 0x203 JUMPI DUP1 PUSH4 0x6352211E EQ PUSH2 0x21F JUMPI DUP1 PUSH4 0x69FE0E2D EQ PUSH2 0x24F JUMPI DUP1 PUSH4 0x70A08231 EQ PUSH2 0x26B JUMPI PUSH2 0x12C JUMP JUMPDEST DUP1 PUSH4 0x1FFC9A7 EQ PUSH2 0x131 JUMPI DUP1 PUSH4 0x6FDDE03 EQ PUSH2 0x161 JUMPI DUP1 PUSH4 0x81812FC EQ PUSH2 0x17F JUMPI DUP1 PUSH4 0x95EA7B3 EQ PUSH2 0x1AF JUMPI DUP1 PUSH4 0x23B872DD EQ PUSH2 0x1CB JUMPI JUMPDEST PUSH1 0x0 DUP1 REVERT JUMPDEST PUSH2 0x14B PUSH1 0x4 DUP1 CALLDATASIZE SUB DUP2 ADD SWAP1 PUSH2 0x146 SWAP2 SWAP1 PUSH2 0x212A JUMP JUMPDEST PUSH2 0x3CF JUMP JUMPDEST PUSH1 0x40 MLOAD PUSH2 0x158 SWAP2 SWAP1 PUSH2 0x2172 JUMP JUMPDEST PUSH1 0x40 MLOAD DUP1 SWAP2 SUB SWAP1 RETURN JUMPDEST PUSH2 0x169 PUSH2 0x4B1 JUMP JUMPDEST PUSH1 0x40 MLOAD PUSH2 0x176 SWAP2 SWAP1 PUSH2 0x2226 JUMP JUMPDEST PUSH1 0x40 MLOAD DUP1 SWAP2 SUB SWAP1 RETURN JUMPDEST PUSH2 0x199 PUSH1 0x4 DUP1 CALLDATASIZE SUB DUP2 ADD SWAP1 PUSH2 0x194 SWAP2 SWAP1 PUSH2 0x227E JUMP JUMPDEST PUSH2 0x543 JUMP JUMPDEST PUSH1 0x40 MLOAD PUSH2 0x1A6 SWAP2 SWAP1 PUSH2 0x22EC JUMP JUMPDEST PUSH1 0x40 MLOAD DUP1 SWAP2 SUB SWAP1 RETURN JUMPDEST PUSH2 0x1C9 PUSH1 0x4 DUP1 CALLDATASIZE SUB DUP2 ADD SWAP1 PUSH2 0x1C4 SWAP2 SWAP1 PUSH2 0x2333 JUMP JUMPDEST PUSH2 0x589 JUMP JUMPDEST STOP JUMPDEST PUSH2 0x1E5 PUSH1 0x4 DUP1 CALLDATASIZE SUB DUP2 ADD SWAP1 PUSH2 0x1E0 SWAP2 SWAP1 PUSH2 0x2373 JUMP JUMPDEST PUSH2 0x6A1 JUMP JUMPDEST STOP JUMPDEST PUSH2 0x201 PUSH1 0x4 DUP1 CALLDATASIZE SUB DUP2 ADD SWAP1 PUSH2 0x1FC SWAP2 SWAP1 PUSH2 0x2373 JUMP JUMPDEST PUSH2 0x701 JUMP JUMPDEST STOP JUMPDEST PUSH2 0x21D PUSH1 0x4 DUP1 CALLDATASIZE SUB DUP2 ADD SWAP1 PUSH2 0x218 SWAP2 SWAP1 PUSH2 0x2469 JUMP JUMPDEST PUSH2 0x721 JUMP JUMPDEST STOP JUMPDEST PUSH2 0x239 PUSH1 0x4 DUP1 CALLDATASIZE SUB DUP2 ADD SWAP1 PUSH2 0x234 SWAP2 SWAP1 PUSH2 0x227E JUMP JUMPDEST PUSH2 0xBC1 JUMP JUMPDEST PUSH1 0x40 MLOAD PUSH2 0x246 SWAP2 SWAP1 PUSH2 0x22EC JUMP JUMPDEST PUSH1 0x40 MLOAD DUP1 SWAP2 SUB SWAP1 RETURN JUMPDEST PUSH2 0x269 PUSH1 0x4 DUP1 CALLDATASIZE SUB DUP2 ADD SWAP1 PUSH2 0x264 SWAP2 SWAP1 PUSH2 0x227E JUMP JUMPDEST PUSH2 0xC73 JUMP JUMPDEST STOP JUMPDEST PUSH2 0x285 PUSH1 0x4 DUP1 CALLDATASIZE SUB DUP2 ADD SWAP1 PUSH2 0x280 SWAP2 SWAP1 PUSH2 0x24DD JUMP JUMPDEST PUSH2 0xC85 JUMP JUMPDEST PUSH1 0x40 MLOAD PUSH2 0x292 SWAP2 SWAP1 PUSH2 0x2519 JUMP JUMPDEST PUSH1 0x40 MLOAD DUP1 SWAP2 SUB SWAP1 RETURN JUMPDEST PUSH2 0x2A3 PUSH2 0xD3D JUMP JUMPDEST STOP JUMPDEST PUSH2 0x2BF PUSH1 0x4 DUP1 CALLDATASIZE SUB DUP2 ADD SWAP1 PUSH2 0x2BA SWAP2 SWAP1 PUSH2 0x256D JUMP JUMPDEST PUSH2 0xD51 JUMP JUMPDEST STOP JUMPDEST PUSH2 0x2C9 PUSH2 0xEA6 JUMP JUMPDEST PUSH1 0x40 MLOAD PUSH2 0x2D6 SWAP2 SWAP1 PUSH2 0x22EC JUMP JUMPDEST PUSH1 0x40 MLOAD DUP1 SWAP2 SUB SWAP1 RETURN JUMPDEST PUSH2 0x2E7 PUSH2 0xECF JUMP JUMPDEST PUSH1 0x40 MLOAD PUSH2 0x2F4 SWAP2 SWAP1 PUSH2 0x2226 JUMP JUMPDEST PUSH1 0x40 MLOAD DUP1 SWAP2 SUB SWAP1 RETURN JUMPDEST PUSH2 0x317 PUSH1 0x4 DUP1 CALLDATASIZE SUB DUP2 ADD SWAP1 PUSH2 0x312 SWAP2 SWAP1 PUSH2 0x2640 JUMP JUMPDEST PUSH2 0xF61 JUMP JUMPDEST STOP JUMPDEST PUSH2 0x333 PUSH1 0x4 DUP1 CALLDATASIZE SUB DUP2 ADD SWAP1 PUSH2 0x32E SWAP2 SWAP1 PUSH2 0x27B0 JUMP JUMPDEST PUSH2 0xF77 JUMP JUMPDEST STOP JUMPDEST PUSH2 0x34F PUSH1 0x4 DUP1 CALLDATASIZE SUB DUP2 ADD SWAP1 PUSH2 0x34A SWAP2 SWAP1 PUSH2 0x227E JUMP JUMPDEST PUSH2 0xFD9 JUMP JUMPDEST PUSH1 0x40 MLOAD PUSH2 0x35C SWAP2 SWAP1 PUSH2 0x2226 JUMP JUMPDEST PUSH1 0x40 MLOAD DUP1 SWAP2 SUB SWAP1 RETURN JUMPDEST PUSH2 0x36D PUSH2 0xFEB JUMP JUMPDEST PUSH1 0x40 MLOAD PUSH2 0x37A SWAP2 SWAP1 PUSH2 0x2519 JUMP JUMPDEST PUSH1 0x40 MLOAD DUP1 SWAP2 SUB SWAP1 RETURN JUMPDEST PUSH2 0x39D PUSH1 0x4 DUP1 CALLDATASIZE SUB DUP2 ADD SWAP1 PUSH2 0x398 SWAP2 SWAP1 PUSH2 0x2833 JUMP JUMPDEST PUSH2 0xFF1 JUMP JUMPDEST PUSH1 0x40 MLOAD PUSH2 0x3AA SWAP2 SWAP1 PUSH2 0x2172 JUMP JUMPDEST PUSH1 0x40 MLOAD DUP1 SWAP2 SUB SWAP1 RETURN JUMPDEST PUSH2 0x3CD PUSH1 0x4 DUP1 CALLDATASIZE SUB DUP2 ADD SWAP1 PUSH2 0x3C8 SWAP2 SWAP1 PUSH2 0x24DD JUMP JUMPDEST PUSH2 0x1085 JUMP JUMPDEST STOP JUMPDEST PUSH1 0x0 PUSH32 0x80AC58CD00000000000000000000000000000000000000000000000000000000 PUSH28 0xFFFFFFFFFFFFFFFFFFFFFFFFFFFFFFFFFFFFFFFFFFFFFFFFFFFFFFFF NOT AND DUP3 PUSH28 0xFFFFFFFFFFFFFFFFFFFFFFFFFFFFFFFFFFFFFFFFFFFFFFFFFFFFFFFF NOT AND EQ DUP1 PUSH2 0x49A JUMPI POP PUSH32 0x5B5E139F00000000000000000000000000000000000000000000000000000000 PUSH28 0xFFFFFFFFFFFFFFFFFFFFFFFFFFFFFFFFFFFFFFFFFFFFFFFFFFFFFFFF NOT AND DUP3 PUSH28 0xFFFFFFFFFFFFFFFFFFFFFFFFFFFFFFFFFFFFFFFFFFFFFFFFFFFFFFFF NOT AND EQ JUMPDEST DUP1 PUSH2 0x4AA JUMPI POP PUSH2 0x4A9 DUP3 PUSH2 0x1109 JUMP JUMPDEST JUMPDEST SWAP1 POP SWAP2 SWAP1 POP JUMP JUMPDEST PUSH1 0x60 PUSH1 0x1 DUP1 SLOAD PUSH2 0x4C0 SWAP1 PUSH2 0x28A2 JUMP JUMPDEST DUP1 PUSH1 0x1F ADD PUSH1 0x20 DUP1 SWAP2 DIV MUL PUSH1 0x20 ADD PUSH1 0x40 MLOAD SWAP1 DUP2 ADD PUSH1 0x40 MSTORE DUP1 SWAP3 SWAP2 SWAP1 DUP2 DUP2 MSTORE PUSH1 0x20 ADD DUP3 DUP1 SLOAD PUSH2 0x4EC SWAP1 PUSH2 0x28A2 JUMP JUMPDEST DUP1 ISZERO PUSH2 0x539 JUMPI DUP1 PUSH1 0x1F LT PUSH2 0x50E JUMPI PUSH2 0x100 DUP1 DUP4 SLOAD DIV MUL DUP4 MSTORE SWAP2 PUSH1 0x20 ADD SWAP2 PUSH2 0x539 JUMP JUMPDEST DUP3 ADD SWAP2 SWAP1 PUSH1 0x0 MSTORE PUSH1 0x20 PUSH1 0x0 KECCAK256 SWAP1 JUMPDEST DUP2 SLOAD DUP2 MSTORE SWAP1 PUSH1 0x1 ADD SWAP1 PUSH1 0x20 ADD DUP1 DUP4 GT PUSH2 0x51C JUMPI DUP3 SWAP1 SUB PUSH1 0x1F AND DUP3 ADD SWAP2 JUMPDEST POP POP POP POP POP SWAP1 POP SWAP1 JUMP JUMPDEST PUSH1 0x0 PUSH2 0x54E DUP3 PUSH2 0x1173 JUMP JUMPDEST PUSH1 0x5 PUSH1 0x0 DUP4 DUP2 MSTORE PUSH1 0x20 ADD SWAP1 DUP2 MSTORE PUSH1 0x20 ADD PUSH1 0x0 KECCAK256 PUSH1 0x0 SWAP1 SLOAD SWAP1 PUSH2 0x100 EXP SWAP1 DIV PUSH20 0xFFFFFFFFFFFFFFFFFFFFFFFFFFFFFFFFFFFFFFFF AND SWAP1 POP SWAP2 SWAP1 POP JUMP JUMPDEST PUSH1 0x0 PUSH2 0x594 DUP3 PUSH2 0xBC1 JUMP JUMPDEST SWAP1 POP DUP1 PUSH20 0xFFFFFFFFFFFFFFFFFFFFFFFFFFFFFFFFFFFFFFFF AND DUP4 PUSH20 0xFFFFFFFFFFFFFFFFFFFFFFFFFFFFFFFFFFFFFFFF AND EQ ISZERO PUSH2 0x605 JUMPI PUSH1 0x40 MLOAD PUSH32 0x8C379A000000000000000000000000000000000000000000000000000000000 DUP2 MSTORE PUSH1 0x4 ADD PUSH2 0x5FC SWAP1 PUSH2 0x2946 JUMP JUMPDEST PUSH1 0x40 MLOAD DUP1 SWAP2 SUB SWAP1 REVERT JUMPDEST DUP1 PUSH20 0xFFFFFFFFFFFFFFFFFFFFFFFFFFFFFFFFFFFFFFFF AND PUSH2 0x624 PUSH2 0x11BE JUMP JUMPDEST PUSH20 0xFFFFFFFFFFFFFFFFFFFFFFFFFFFFFFFFFFFFFFFF AND EQ DUP1 PUSH2 0x653 JUMPI POP PUSH2 0x652 DUP2 PUSH2 0x64D PUSH2 0x11BE JUMP JUMPDEST PUSH2 0xFF1 JUMP JUMPDEST JUMPDEST PUSH2 0x692 JUMPI PUSH1 0x40 MLOAD PUSH32 0x8C379A000000000000000000000000000000000000000000000000000000000 DUP2 MSTORE PUSH1 0x4 ADD PUSH2 0x689 SWAP1 PUSH2 0x29D8 JUMP JUMPDEST PUSH1 0x40 MLOAD DUP1 SWAP2 SUB SWAP1 REVERT JUMPDEST PUSH2 0x69C DUP4 DUP4 PUSH2 0x11C6 JUMP JUMPDEST POP POP POP JUMP JUMPDEST PUSH2 0x6B2 PUSH2 0x6AC PUSH2 0x11BE JUMP JUMPDEST DUP3 PUSH2 0x127F JUMP JUMPDEST PUSH2 0x6F1 JUMPI PUSH1 0x40 MLOAD PUSH32 0x8C379A000000000000000000000000000000000000000000000000000000000 DUP2 MSTORE PUSH1 0x4 ADD PUSH2 0x6E8 SWAP1 PUSH2 0x2A6A JUMP JUMPDEST PUSH1 0x40 MLOAD DUP1 SWAP2 SUB SWAP1 REVERT JUMPDEST PUSH2 0x6FC DUP4 DUP4 DUP4 PUSH2 0x1314 JUMP JUMPDEST POP POP POP JUMP JUMPDEST PUSH2 0x71C DUP4 DUP4 DUP4 PUSH1 0x40 MLOAD DUP1 PUSH1 0x20 ADD PUSH1 0x40 MSTORE DUP1 PUSH1 0x0 DUP2 MSTORE POP PUSH2 0xF77 JUMP JUMPDEST POP POP POP JUMP JUMPDEST PUSH1 0x0 PUSH1 0xB DUP4 DUP4 PUSH1 0x40 MLOAD PUSH2 0x735 SWAP3 SWAP2 SWAP1 PUSH2 0x2ABA JUMP JUMPDEST SWAP1 DUP2 MSTORE PUSH1 0x20 ADD PUSH1 0x40 MLOAD DUP1 SWAP2 SUB SWAP1 KECCAK256 SWAP1 POP DUP5 PUSH20 0xFFFFFFFFFFFFFFFFFFFFFFFFFFFFFFFFFFFFFFFF AND PUSH4 0x70A08231 CALLER PUSH1 0x40 MLOAD DUP3 PUSH4 0xFFFFFFFF AND PUSH1 0xE0 SHL DUP2 MSTORE PUSH1 0x4 ADD PUSH2 0x77E SWAP2 SWAP1 PUSH2 0x22EC JUMP JUMPDEST PUSH1 0x20 PUSH1 0x40 MLOAD DUP1 DUP4 SUB DUP2 DUP7 DUP1 EXTCODESIZE ISZERO DUP1 ISZERO PUSH2 0x796 JUMPI PUSH1 0x0 DUP1 REVERT JUMPDEST POP GAS STATICCALL ISZERO DUP1 ISZERO PUSH2 0x7AA JUMPI RETURNDATASIZE PUSH1 0x0 DUP1 RETURNDATACOPY RETURNDATASIZE PUSH1 0x0 REVERT JUMPDEST POP POP POP POP PUSH1 0x40 MLOAD RETURNDATASIZE PUSH1 0x1F NOT PUSH1 0x1F DUP3 ADD AND DUP3 ADD DUP1 PUSH1 0x40 MSTORE POP DUP2 ADD SWAP1 PUSH2 0x7CE SWAP2 SWAP1 PUSH2 0x2AE8 JUMP JUMPDEST DUP5 GT ISZERO PUSH2 0x810 JUMPI PUSH1 0x40 MLOAD PUSH32 0x8C379A000000000000000000000000000000000000000000000000000000000 DUP2 MSTORE PUSH1 0x4 ADD PUSH2 0x807 SWAP1 PUSH2 0x2B61 JUMP JUMPDEST PUSH1 0x40 MLOAD DUP1 SWAP2 SUB SWAP1 REVERT JUMPDEST PUSH1 0x64 PUSH1 0x9 SLOAD DUP3 PUSH1 0x1 ADD SLOAD PUSH2 0x824 SWAP2 SWAP1 PUSH2 0x2BB0 JUMP JUMPDEST PUSH2 0x82E SWAP2 SWAP1 PUSH2 0x2C39 JUMP JUMPDEST DUP5 EQ PUSH2 0x86F JUMPI PUSH1 0x40 MLOAD PUSH32 0x8C379A000000000000000000000000000000000000000000000000000000000 DUP2 MSTORE PUSH1 0x4 ADD PUSH2 0x866 SWAP1 PUSH2 0x2CB6 JUMP JUMPDEST PUSH1 0x40 MLOAD DUP1 SWAP2 SUB SWAP1 REVERT JUMPDEST PUSH1 0x0 DUP2 PUSH1 0x3 ADD PUSH1 0x0 SWAP1 SLOAD SWAP1 PUSH2 0x100 EXP SWAP1 DIV PUSH1 0xFF AND PUSH1 0xFF AND GT PUSH2 0x8C6 JUMPI PUSH1 0x40 MLOAD PUSH32 0x8C379A000000000000000000000000000000000000000000000000000000000 DUP2 MSTORE PUSH1 0x4 ADD PUSH2 0x8BD SWAP1 PUSH2 0x2D22 JUMP JUMPDEST PUSH1 0x40 MLOAD DUP1 SWAP2 SUB SWAP1 REVERT JUMPDEST DUP5 PUSH20 0xFFFFFFFFFFFFFFFFFFFFFFFFFFFFFFFFFFFFFFFF AND PUSH4 0x23B872DD CALLER ADDRESS DUP8 PUSH1 0x40 MLOAD DUP5 PUSH4 0xFFFFFFFF AND PUSH1 0xE0 SHL DUP2 MSTORE PUSH1 0x4 ADD PUSH2 0x903 SWAP4 SWAP3 SWAP2 SWAP1 PUSH2 0x2D42 JUMP JUMPDEST PUSH1 0x20 PUSH1 0x40 MLOAD DUP1 DUP4 SUB DUP2 PUSH1 0x0 DUP8 DUP1 EXTCODESIZE ISZERO DUP1 ISZERO PUSH2 0x91D JUMPI PUSH1 0x0 DUP1 REVERT JUMPDEST POP GAS CALL ISZERO DUP1 ISZERO PUSH2 0x931 JUMPI RETURNDATASIZE PUSH1 0x0 DUP1 RETURNDATACOPY RETURNDATASIZE PUSH1 0x0 REVERT JUMPDEST POP POP POP POP PUSH1 0x40 MLOAD RETURNDATASIZE PUSH1 0x1F NOT PUSH1 0x1F DUP3 ADD AND DUP3 ADD DUP1 PUSH1 0x40 MSTORE POP DUP2 ADD SWAP1 PUSH2 0x955 SWAP2 SWAP1 PUSH2 0x2D8E JUMP JUMPDEST POP PUSH2 0x960 PUSH1 0x8 PUSH2 0x157B JUMP JUMPDEST PUSH2 0x973 CALLER PUSH2 0x96E PUSH1 0x8 PUSH2 0x1591 JUMP JUMPDEST PUSH2 0x159F JUMP JUMPDEST PUSH2 0xA12 PUSH2 0x980 PUSH1 0x8 PUSH2 0x1591 JUMP JUMPDEST DUP3 PUSH1 0x4 ADD DUP1 SLOAD PUSH2 0x98F SWAP1 PUSH2 0x28A2 JUMP JUMPDEST DUP1 PUSH1 0x1F ADD PUSH1 0x20 DUP1 SWAP2 DIV MUL PUSH1 0x20 ADD PUSH1 0x40 MLOAD SWAP1 DUP2 ADD PUSH1 0x40 MSTORE DUP1 SWAP3 SWAP2 SWAP1 DUP2 DUP2 MSTORE PUSH1 0x20 ADD DUP3 DUP1 SLOAD PUSH2 0x9BB SWAP1 PUSH2 0x28A2 JUMP JUMPDEST DUP1 ISZERO PUSH2 0xA08 JUMPI DUP1 PUSH1 0x1F LT PUSH2 0x9DD JUMPI PUSH2 0x100 DUP1 DUP4 SLOAD DIV MUL DUP4 MSTORE SWAP2 PUSH1 0x20 ADD SWAP2 PUSH2 0xA08 JUMP JUMPDEST DUP3 ADD SWAP2 SWAP1 PUSH1 0x0 MSTORE PUSH1 0x20 PUSH1 0x0 KECCAK256 SWAP1 JUMPDEST DUP2 SLOAD DUP2 MSTORE SWAP1 PUSH1 0x1 ADD SWAP1 PUSH1 0x20 ADD DUP1 DUP4 GT PUSH2 0x9EB JUMPI DUP3 SWAP1 SUB PUSH1 0x1F AND DUP3 ADD SWAP2 JUMPDEST POP POP POP POP POP PUSH2 0x1779 JUMP JUMPDEST DUP1 PUSH1 0x3 ADD PUSH1 0x0 DUP2 DUP2 SWAP1 SLOAD SWAP1 PUSH2 0x100 EXP SWAP1 DIV PUSH1 0xFF AND DUP1 SWAP3 SWAP2 SWAP1 PUSH2 0xA33 SWAP1 PUSH2 0x2DBB JUMP JUMPDEST SWAP2 SWAP1 PUSH2 0x100 EXP DUP2 SLOAD DUP2 PUSH1 0xFF MUL NOT AND SWAP1 DUP4 PUSH1 0xFF AND MUL OR SWAP1 SSTORE POP POP DUP4 DUP2 PUSH1 0x2 ADD PUSH1 0x0 DUP3 DUP3 SLOAD PUSH2 0xA60 SWAP2 SWAP1 PUSH2 0x2DE5 JUMP JUMPDEST SWAP3 POP POP DUP2 SWAP1 SSTORE POP PUSH1 0x0 DUP2 PUSH1 0x3 ADD PUSH1 0x0 SWAP1 SLOAD SWAP1 PUSH2 0x100 EXP SWAP1 DIV PUSH1 0xFF AND PUSH1 0xFF AND EQ ISZERO PUSH2 0xB80 JUMPI DUP5 PUSH20 0xFFFFFFFFFFFFFFFFFFFFFFFFFFFFFFFFFFFFFFFF AND PUSH4 0x23B872DD ADDRESS PUSH1 0xA PUSH1 0x0 SWAP1 SLOAD SWAP1 PUSH2 0x100 EXP SWAP1 DIV PUSH20 0xFFFFFFFFFFFFFFFFFFFFFFFFFFFFFFFFFFFFFFFF AND DUP5 PUSH1 0x2 ADD SLOAD PUSH1 0x40 MLOAD DUP5 PUSH4 0xFFFFFFFF AND PUSH1 0xE0 SHL DUP2 MSTORE PUSH1 0x4 ADD PUSH2 0xAE7 SWAP4 SWAP3 SWAP2 SWAP1 PUSH2 0x2D42 JUMP JUMPDEST PUSH1 0x20 PUSH1 0x40 MLOAD DUP1 DUP4 SUB DUP2 PUSH1 0x0 DUP8 DUP1 EXTCODESIZE ISZERO DUP1 ISZERO PUSH2 0xB01 JUMPI PUSH1 0x0 DUP1 REVERT JUMPDEST POP GAS CALL ISZERO DUP1 ISZERO PUSH2 0xB15 JUMPI RETURNDATASIZE PUSH1 0x0 DUP1 RETURNDATACOPY RETURNDATASIZE PUSH1 0x0 REVERT JUMPDEST POP POP POP POP PUSH1 0x40 MLOAD RETURNDATASIZE PUSH1 0x1F NOT PUSH1 0x1F DUP3 ADD AND DUP3 ADD DUP1 PUSH1 0x40 MSTORE POP DUP2 ADD SWAP1 PUSH2 0xB39 SWAP2 SWAP1 PUSH2 0x2D8E JUMP JUMPDEST POP PUSH32 0x9EA274ADE34969E9740A96A5C5D16EF0DC5CC6F86F1F8E808ACCC76327EBA058 CALLER DUP5 DUP5 DUP5 PUSH1 0x2 ADD SLOAD PUSH1 0x40 MLOAD PUSH2 0xB73 SWAP5 SWAP4 SWAP3 SWAP2 SWAP1 PUSH2 0x2E68 JUMP JUMPDEST PUSH1 0x40 MLOAD DUP1 SWAP2 SUB SWAP1 LOG1 PUSH2 0xBBA JUMP JUMPDEST PUSH32 0x4FC330FC2865A5BAFE9F96D54262DDD229C3D6B4A9B37E66797F6A2E7A90BC70 CALLER DUP6 PUSH1 0x40 MLOAD PUSH2 0xBB1 SWAP3 SWAP2 SWAP1 PUSH2 0x2EA8 JUMP JUMPDEST PUSH1 0x40 MLOAD DUP1 SWAP2 SUB SWAP1 LOG1 JUMPDEST POP POP POP POP POP JUMP JUMPDEST PUSH1 0x0 DUP1 PUSH1 0x3 PUSH1 0x0 DUP5 DUP2 MSTORE PUSH1 0x20 ADD SWAP1 DUP2 MSTORE PUSH1 0x20 ADD PUSH1 0x0 KECCAK256 PUSH1 0x0 SWAP1 SLOAD SWAP1 PUSH2 0x100 EXP SWAP1 DIV PUSH20 0xFFFFFFFFFFFFFFFFFFFFFFFFFFFFFFFFFFFFFFFF AND SWAP1 POP PUSH1 0x0 PUSH20 0xFFFFFFFFFFFFFFFFFFFFFFFFFFFFFFFFFFFFFFFF AND DUP2 PUSH20 0xFFFFFFFFFFFFFFFFFFFFFFFFFFFFFFFFFFFFFFFF AND EQ ISZERO PUSH2 0xC6A JUMPI PUSH1 0x40 MLOAD PUSH32 0x8C379A000000000000000000000000000000000000000000000000000000000 DUP2 MSTORE PUSH1 0x4 ADD PUSH2 0xC61 SWAP1 PUSH2 0x2F1D JUMP JUMPDEST PUSH1 0x40 MLOAD DUP1 SWAP2 SUB SWAP1 REVERT JUMPDEST DUP1 SWAP2 POP POP SWAP2 SWAP1 POP JUMP JUMPDEST PUSH2 0xC7B PUSH2 0x17ED JUMP JUMPDEST DUP1 PUSH1 0x9 DUP2 SWAP1 SSTORE POP POP JUMP JUMPDEST PUSH1 0x0 DUP1 PUSH20 0xFFFFFFFFFFFFFFFFFFFFFFFFFFFFFFFFFFFFFFFF AND DUP3 PUSH20 0xFFFFFFFFFFFFFFFFFFFFFFFFFFFFFFFFFFFFFFFF AND EQ ISZERO PUSH2 0xCF6 JUMPI PUSH1 0x40 MLOAD PUSH32 0x8C379A000000000000000000000000000000000000000000000000000000000 DUP2 MSTORE PUSH1 0x4 ADD PUSH2 0xCED SWAP1 PUSH2 0x2FAF JUMP JUMPDEST PUSH1 0x40 MLOAD DUP1 SWAP2 SUB SWAP1 REVERT JUMPDEST PUSH1 0x4 PUSH1 0x0 DUP4 PUSH20 0xFFFFFFFFFFFFFFFFFFFFFFFFFFFFFFFFFFFFFFFF AND PUSH20 0xFFFFFFFFFFFFFFFFFFFFFFFFFFFFFFFFFFFFFFFF AND DUP2 MSTORE PUSH1 0x20 ADD SWAP1 DUP2 MSTORE PUSH1 0x20 ADD PUSH1 0x0 KECCAK256 SLOAD SWAP1 POP SWAP2 SWAP1 POP JUMP JUMPDEST PUSH2 0xD45 PUSH2 0x17ED JUMP JUMPDEST PUSH2 0xD4F PUSH1 0x0 PUSH2 0x186B JUMP JUMPDEST JUMP JUMPDEST PUSH1 0x0 PUSH1 0x40 MLOAD DUP1 PUSH1 0xA0 ADD PUSH1 0x40 MSTORE DUP1 DUP9 DUP9 DUP1 DUP1 PUSH1 0x1F ADD PUSH1 0x20 DUP1 SWAP2 DIV MUL PUSH1 0x20 ADD PUSH1 0x40 MLOAD SWAP1 DUP2 ADD PUSH1 0x40 MSTORE DUP1 SWAP4 SWAP3 SWAP2 SWAP1 DUP2 DUP2 MSTORE PUSH1 0x20 ADD DUP4 DUP4 DUP1 DUP3 DUP5 CALLDATACOPY PUSH1 0x0 DUP2 DUP5 ADD MSTORE PUSH1 0x1F NOT PUSH1 0x1F DUP3 ADD AND SWAP1 POP DUP1 DUP4 ADD SWAP3 POP POP POP POP POP POP POP DUP2 MSTORE PUSH1 0x20 ADD DUP7 DUP2 MSTORE PUSH1 0x20 ADD PUSH1 0x0 DUP2 MSTORE PUSH1 0x20 ADD DUP6 PUSH1 0xFF AND DUP2 MSTORE PUSH1 0x20 ADD DUP5 DUP5 DUP1 DUP1 PUSH1 0x1F ADD PUSH1 0x20 DUP1 SWAP2 DIV MUL PUSH1 0x20 ADD PUSH1 0x40 MLOAD SWAP1 DUP2 ADD PUSH1 0x40 MSTORE DUP1 SWAP4 SWAP3 SWAP2 SWAP1 DUP2 DUP2 MSTORE PUSH1 0x20 ADD DUP4 DUP4 DUP1 DUP3 DUP5 CALLDATACOPY PUSH1 0x0 DUP2 DUP5 ADD MSTORE PUSH1 0x1F NOT PUSH1 0x1F DUP3 ADD AND SWAP1 POP DUP1 DUP4 ADD SWAP3 POP POP POP POP POP POP POP DUP2 MSTORE POP SWAP1 POP DUP1 PUSH1 0xB DUP3 PUSH1 0x0 ADD MLOAD PUSH1 0x40 MLOAD PUSH2 0xE1D SWAP2 SWAP1 PUSH2 0x3000 JUMP JUMPDEST SWAP1 DUP2 MSTORE PUSH1 0x20 ADD PUSH1 0x40 MLOAD DUP1 SWAP2 SUB SWAP1 KECCAK256 PUSH1 0x0 DUP3 ADD MLOAD DUP2 PUSH1 0x0 ADD SWAP1 DUP1 MLOAD SWAP1 PUSH1 0x20 ADD SWAP1 PUSH2 0xE47 SWAP3 SWAP2 SWAP1 PUSH2 0x201B JUMP JUMPDEST POP PUSH1 0x20 DUP3 ADD MLOAD DUP2 PUSH1 0x1 ADD SSTORE PUSH1 0x40 DUP3 ADD MLOAD DUP2 PUSH1 0x2 ADD SSTORE PUSH1 0x60 DUP3 ADD MLOAD DUP2 PUSH1 0x3 ADD PUSH1 0x0 PUSH2 0x100 EXP DUP2 SLOAD DUP2 PUSH1 0xFF MUL NOT AND SWAP1 DUP4 PUSH1 0xFF AND MUL OR SWAP1 SSTORE POP PUSH1 0x80 DUP3 ADD MLOAD DUP2 PUSH1 0x4 ADD SWAP1 DUP1 MLOAD SWAP1 PUSH1 0x20 ADD SWAP1 PUSH2 0xE99 SWAP3 SWAP2 SWAP1 PUSH2 0x201B JUMP JUMPDEST POP SWAP1 POP POP POP POP POP POP POP POP POP JUMP JUMPDEST PUSH1 0x0 DUP1 PUSH1 0x0 SWAP1 SLOAD SWAP1 PUSH2 0x100 EXP SWAP1 DIV PUSH20 0xFFFFFFFFFFFFFFFFFFFFFFFFFFFFFFFFFFFFFFFF AND SWAP1 POP SWAP1 JUMP JUMPDEST PUSH1 0x60 PUSH1 0x2 DUP1 SLOAD PUSH2 0xEDE SWAP1 PUSH2 0x28A2 JUMP JUMPDEST DUP1 PUSH1 0x1F ADD PUSH1 0x20 DUP1 SWAP2 DIV MUL PUSH1 0x20 ADD PUSH1 0x40 MLOAD SWAP1 DUP2 ADD PUSH1 0x40 MSTORE DUP1 SWAP3 SWAP2 SWAP1 DUP2 DUP2 MSTORE PUSH1 0x20 ADD DUP3 DUP1 SLOAD PUSH2 0xF0A SWAP1 PUSH2 0x28A2 JUMP JUMPDEST DUP1 ISZERO PUSH2 0xF57 JUMPI DUP1 PUSH1 0x1F LT PUSH2 0xF2C JUMPI PUSH2 0x100 DUP1 DUP4 SLOAD DIV MUL DUP4 MSTORE SWAP2 PUSH1 0x20 ADD SWAP2 PUSH2 0xF57 JUMP JUMPDEST DUP3 ADD SWAP2 SWAP1 PUSH1 0x0 MSTORE PUSH1 0x20 PUSH1 0x0 KECCAK256 SWAP1 JUMPDEST DUP2 SLOAD DUP2 MSTORE SWAP1 PUSH1 0x1 ADD SWAP1 PUSH1 0x20 ADD DUP1 DUP4 GT PUSH2 0xF3A JUMPI DUP3 SWAP1 SUB PUSH1 0x1F AND DUP3 ADD SWAP2 JUMPDEST POP POP POP POP POP SWAP1 POP SWAP1 JUMP JUMPDEST PUSH2 0xF73 PUSH2 0xF6C PUSH2 0x11BE JUMP JUMPDEST DUP4 DUP4 PUSH2 0x192F JUMP JUMPDEST POP POP JUMP JUMPDEST PUSH2 0xF88 PUSH2 0xF82 PUSH2 0x11BE JUMP JUMPDEST DUP4 PUSH2 0x127F JUMP JUMPDEST PUSH2 0xFC7 JUMPI PUSH1 0x40 MLOAD PUSH32 0x8C379A000000000000000000000000000000000000000000000000000000000 DUP2 MSTORE PUSH1 0x4 ADD PUSH2 0xFBE SWAP1 PUSH2 0x2A6A JUMP JUMPDEST PUSH1 0x40 MLOAD DUP1 SWAP2 SUB SWAP1 REVERT JUMPDEST PUSH2 0xFD3 DUP5 DUP5 DUP5 DUP5 PUSH2 0x1A9C JUMP JUMPDEST POP POP POP POP JUMP JUMPDEST PUSH1 0x60 PUSH2 0xFE4 DUP3 PUSH2 0x1AF8 JUMP JUMPDEST SWAP1 POP SWAP2 SWAP1 POP JUMP JUMPDEST PUSH1 0x9 SLOAD DUP2 JUMP JUMPDEST PUSH1 0x0 PUSH1 0x6 PUSH1 0x0 DUP5 PUSH20 0xFFFFFFFFFFFFFFFFFFFFFFFFFFFFFFFFFFFFFFFF AND PUSH20 0xFFFFFFFFFFFFFFFFFFFFFFFFFFFFFFFFFFFFFFFF AND DUP2 MSTORE PUSH1 0x20 ADD SWAP1 DUP2 MSTORE PUSH1 0x20 ADD PUSH1 0x0 KECCAK256 PUSH1 0x0 DUP4 PUSH20 0xFFFFFFFFFFFFFFFFFFFFFFFFFFFFFFFFFFFFFFFF AND PUSH20 0xFFFFFFFFFFFFFFFFFFFFFFFFFFFFFFFFFFFFFFFF AND DUP2 MSTORE PUSH1 0x20 ADD SWAP1 DUP2 MSTORE PUSH1 0x20 ADD PUSH1 0x0 KECCAK256 PUSH1 0x0 SWAP1 SLOAD SWAP1 PUSH2 0x100 EXP SWAP1 DIV PUSH1 0xFF AND SWAP1 POP SWAP3 SWAP2 POP POP JUMP JUMPDEST PUSH2 0x108D PUSH2 0x17ED JUMP JUMPDEST PUSH1 0x0 PUSH20 0xFFFFFFFFFFFFFFFFFFFFFFFFFFFFFFFFFFFFFFFF AND DUP2 PUSH20 0xFFFFFFFFFFFFFFFFFFFFFFFFFFFFFFFFFFFFFFFF AND EQ ISZERO PUSH2 0x10FD JUMPI PUSH1 0x40 MLOAD PUSH32 0x8C379A000000000000000000000000000000000000000000000000000000000 DUP2 MSTORE PUSH1 0x4 ADD PUSH2 0x10F4 SWAP1 PUSH2 0x3089 JUMP JUMPDEST PUSH1 0x40 MLOAD DUP1 SWAP2 SUB SWAP1 REVERT JUMPDEST PUSH2 0x1106 DUP2 PUSH2 0x186B JUMP JUMPDEST POP JUMP JUMPDEST PUSH1 0x0 PUSH32 0x1FFC9A700000000000000000000000000000000000000000000000000000000 PUSH28 0xFFFFFFFFFFFFFFFFFFFFFFFFFFFFFFFFFFFFFFFFFFFFFFFFFFFFFFFF NOT AND DUP3 PUSH28 0xFFFFFFFFFFFFFFFFFFFFFFFFFFFFFFFFFFFFFFFFFFFFFFFFFFFFFFFF NOT AND EQ SWAP1 POP SWAP2 SWAP1 POP JUMP JUMPDEST PUSH2 0x117C DUP2 PUSH2 0x1C0B JUMP JUMPDEST PUSH2 0x11BB JUMPI PUSH1 0x40 MLOAD PUSH32 0x8C379A000000000000000000000000000000000000000000000000000000000 DUP2 MSTORE PUSH1 0x4 ADD PUSH2 0x11B2 SWAP1 PUSH2 0x2F1D JUMP JUMPDEST PUSH1 0x40 MLOAD DUP1 SWAP2 SUB SWAP1 REVERT JUMPDEST POP JUMP JUMPDEST PUSH1 0x0 CALLER SWAP1 POP SWAP1 JUMP JUMPDEST DUP2 PUSH1 0x5 PUSH1 0x0 DUP4 DUP2 MSTORE PUSH1 0x20 ADD SWAP1 DUP2 MSTORE PUSH1 0x20 ADD PUSH1 0x0 KECCAK256 PUSH1 0x0 PUSH2 0x100 EXP DUP2 SLOAD DUP2 PUSH20 0xFFFFFFFFFFFFFFFFFFFFFFFFFFFFFFFFFFFFFFFF MUL NOT AND SWAP1 DUP4 PUSH20 0xFFFFFFFFFFFFFFFFFFFFFFFFFFFFFFFFFFFFFFFF AND MUL OR SWAP1 SSTORE POP DUP1 DUP3 PUSH20 0xFFFFFFFFFFFFFFFFFFFFFFFFFFFFFFFFFFFFFFFF AND PUSH2 0x1239 DUP4 PUSH2 0xBC1 JUMP JUMPDEST PUSH20 0xFFFFFFFFFFFFFFFFFFFFFFFFFFFFFFFFFFFFFFFF AND PUSH32 0x8C5BE1E5EBEC7D5BD14F71427D1E84F3DD0314C0F7B2291E5B200AC8C7C3B925 PUSH1 0x40 MLOAD PUSH1 0x40 MLOAD DUP1 SWAP2 SUB SWAP1 LOG4 POP POP JUMP JUMPDEST PUSH1 0x0 DUP1 PUSH2 0x128B DUP4 PUSH2 0xBC1 JUMP JUMPDEST SWAP1 POP DUP1 PUSH20 0xFFFFFFFFFFFFFFFFFFFFFFFFFFFFFFFFFFFFFFFF AND DUP5 PUSH20 0xFFFFFFFFFFFFFFFFFFFFFFFFFFFFFFFFFFFFFFFF AND EQ DUP1 PUSH2 0x12CD JUMPI POP PUSH2 0x12CC DUP2 DUP6 PUSH2 0xFF1 JUMP JUMPDEST JUMPDEST DUP1 PUSH2 0x130B JUMPI POP DUP4 PUSH20 0xFFFFFFFFFFFFFFFFFFFFFFFFFFFFFFFFFFFFFFFF AND PUSH2 0x12F3 DUP5 PUSH2 0x543 JUMP JUMPDEST PUSH20 0xFFFFFFFFFFFFFFFFFFFFFFFFFFFFFFFFFFFFFFFF AND EQ JUMPDEST SWAP2 POP POP SWAP3 SWAP2 POP POP JUMP JUMPDEST DUP3 PUSH20 0xFFFFFFFFFFFFFFFFFFFFFFFFFFFFFFFFFFFFFFFF AND PUSH2 0x1334 DUP3 PUSH2 0xBC1 JUMP JUMPDEST PUSH20 0xFFFFFFFFFFFFFFFFFFFFFFFFFFFFFFFFFFFFFFFF AND EQ PUSH2 0x138A JUMPI PUSH1 0x40 MLOAD PUSH32 0x8C379A000000000000000000000000000000000000000000000000000000000 DUP2 MSTORE PUSH1 0x4 ADD PUSH2 0x1381 SWAP1 PUSH2 0x311B JUMP JUMPDEST PUSH1 0x40 MLOAD DUP1 SWAP2 SUB SWAP1 REVERT JUMPDEST PUSH1 0x0 PUSH20 0xFFFFFFFFFFFFFFFFFFFFFFFFFFFFFFFFFFFFFFFF AND DUP3 PUSH20 0xFFFFFFFFFFFFFFFFFFFFFFFFFFFFFFFFFFFFFFFF AND EQ ISZERO PUSH2 0x13FA JUMPI PUSH1 0x40 MLOAD PUSH32 0x8C379A000000000000000000000000000000000000000000000000000000000 DUP2 MSTORE PUSH1 0x4 ADD PUSH2 0x13F1 SWAP1 PUSH2 0x31AD JUMP JUMPDEST PUSH1 0x40 MLOAD DUP1 SWAP2 SUB SWAP1 REVERT JUMPDEST PUSH2 0x1405 DUP4 DUP4 DUP4 PUSH2 0x1C77 JUMP JUMPDEST PUSH2 0x1410 PUSH1 0x0 DUP3 PUSH2 0x11C6 JUMP JUMPDEST PUSH1 0x1 PUSH1 0x4 PUSH1 0x0 DUP6 PUSH20 0xFFFFFFFFFFFFFFFFFFFFFFFFFFFFFFFFFFFFFFFF AND PUSH20 0xFFFFFFFFFFFFFFFFFFFFFFFFFFFFFFFFFFFFFFFF AND DUP2 MSTORE PUSH1 0x20 ADD SWAP1 DUP2 MSTORE PUSH1 0x20 ADD PUSH1 0x0 KECCAK256 PUSH1 0x0 DUP3 DUP3 SLOAD PUSH2 0x1460 SWAP2 SWAP1 PUSH2 0x31CD JUMP JUMPDEST SWAP3 POP POP DUP2 SWAP1 SSTORE POP PUSH1 0x1 PUSH1 0x4 PUSH1 0x0 DUP5 PUSH20 0xFFFFFFFFFFFFFFFFFFFFFFFFFFFFFFFFFFFFFFFF AND PUSH20 0xFFFFFFFFFFFFFFFFFFFFFFFFFFFFFFFFFFFFFFFF AND DUP2 MSTORE PUSH1 0x20 ADD SWAP1 DUP2 MSTORE PUSH1 0x20 ADD PUSH1 0x0 KECCAK256 PUSH1 0x0 DUP3 DUP3 SLOAD PUSH2 0x14B7 SWAP2 SWAP1 PUSH2 0x2DE5 JUMP JUMPDEST SWAP3 POP POP DUP2 SWAP1 SSTORE POP DUP2 PUSH1 0x3 PUSH1 0x0 DUP4 DUP2 MSTORE PUSH1 0x20 ADD SWAP1 DUP2 MSTORE PUSH1 0x20 ADD PUSH1 0x0 KECCAK256 PUSH1 0x0 PUSH2 0x100 EXP DUP2 SLOAD DUP2 PUSH20 0xFFFFFFFFFFFFFFFFFFFFFFFFFFFFFFFFFFFFFFFF MUL NOT AND SWAP1 DUP4 PUSH20 0xFFFFFFFFFFFFFFFFFFFFFFFFFFFFFFFFFFFFFFFF AND MUL OR SWAP1 SSTORE POP DUP1 DUP3 PUSH20 0xFFFFFFFFFFFFFFFFFFFFFFFFFFFFFFFFFFFFFFFF AND DUP5 PUSH20 0xFFFFFFFFFFFFFFFFFFFFFFFFFFFFFFFFFFFFFFFF AND PUSH32 0xDDF252AD1BE2C89B69C2B068FC378DAA952BA7F163C4A11628F55A4DF523B3EF PUSH1 0x40 MLOAD PUSH1 0x40 MLOAD DUP1 SWAP2 SUB SWAP1 LOG4 PUSH2 0x1576 DUP4 DUP4 DUP4 PUSH2 0x1C7C JUMP JUMPDEST POP POP POP JUMP JUMPDEST PUSH1 0x1 DUP2 PUSH1 0x0 ADD PUSH1 0x0 DUP3 DUP3 SLOAD ADD SWAP3 POP POP DUP2 SWAP1 SSTORE POP POP JUMP JUMPDEST PUSH1 0x0 DUP2 PUSH1 0x0 ADD SLOAD SWAP1 POP SWAP2 SWAP1 POP JUMP JUMPDEST PUSH1 0x0 PUSH20 0xFFFFFFFFFFFFFFFFFFFFFFFFFFFFFFFFFFFFFFFF AND DUP3 PUSH20 0xFFFFFFFFFFFFFFFFFFFFFFFFFFFFFFFFFFFFFFFF AND EQ ISZERO PUSH2 0x160F JUMPI PUSH1 0x40 MLOAD PUSH32 0x8C379A000000000000000000000000000000000000000000000000000000000 DUP2 MSTORE PUSH1 0x4 ADD PUSH2 0x1606 SWAP1 PUSH2 0x324D JUMP JUMPDEST PUSH1 0x40 MLOAD DUP1 SWAP2 SUB SWAP1 REVERT JUMPDEST PUSH2 0x1618 DUP2 PUSH2 0x1C0B JUMP JUMPDEST ISZERO PUSH2 0x1658 JUMPI PUSH1 0x40 MLOAD PUSH32 0x8C379A000000000000000000000000000000000000000000000000000000000 DUP2 MSTORE PUSH1 0x4 ADD PUSH2 0x164F SWAP1 PUSH2 0x32B9 JUMP JUMPDEST PUSH1 0x40 MLOAD DUP1 SWAP2 SUB SWAP1 REVERT JUMPDEST PUSH2 0x1664 PUSH1 0x0 DUP4 DUP4 PUSH2 0x1C77 JUMP JUMPDEST PUSH1 0x1 PUSH1 0x4 PUSH1 0x0 DUP5 PUSH20 0xFFFFFFFFFFFFFFFFFFFFFFFFFFFFFFFFFFFFFFFF AND PUSH20 0xFFFFFFFFFFFFFFFFFFFFFFFFFFFFFFFFFFFFFFFF AND DUP2 MSTORE PUSH1 0x20 ADD SWAP1 DUP2 MSTORE PUSH1 0x20 ADD PUSH1 0x0 KECCAK256 PUSH1 0x0 DUP3 DUP3 SLOAD PUSH2 0x16B4 SWAP2 SWAP1 PUSH2 0x2DE5 JUMP JUMPDEST SWAP3 POP POP DUP2 SWAP1 SSTORE POP DUP2 PUSH1 0x3 PUSH1 0x0 DUP4 DUP2 MSTORE PUSH1 0x20 ADD SWAP1 DUP2 MSTORE PUSH1 0x20 ADD PUSH1 0x0 KECCAK256 PUSH1 0x0 PUSH2 0x100 EXP DUP2 SLOAD DUP2 PUSH20 0xFFFFFFFFFFFFFFFFFFFFFFFFFFFFFFFFFFFFFFFF MUL NOT AND SWAP1 DUP4 PUSH20 0xFFFFFFFFFFFFFFFFFFFFFFFFFFFFFFFFFFFFFFFF AND MUL OR SWAP1 SSTORE POP DUP1 DUP3 PUSH20 0xFFFFFFFFFFFFFFFFFFFFFFFFFFFFFFFFFFFFFFFF AND PUSH1 0x0 PUSH20 0xFFFFFFFFFFFFFFFFFFFFFFFFFFFFFFFFFFFFFFFF AND PUSH32 0xDDF252AD1BE2C89B69C2B068FC378DAA952BA7F163C4A11628F55A4DF523B3EF PUSH1 0x40 MLOAD PUSH1 0x40 MLOAD DUP1 SWAP2 SUB SWAP1 LOG4 PUSH2 0x1775 PUSH1 0x0 DUP4 DUP4 PUSH2 0x1C7C JUMP JUMPDEST POP POP JUMP JUMPDEST PUSH2 0x1782 DUP3 PUSH2 0x1C0B JUMP JUMPDEST PUSH2 0x17C1 JUMPI PUSH1 0x40 MLOAD PUSH32 0x8C379A000000000000000000000000000000000000000000000000000000000 DUP2 MSTORE PUSH1 0x4 ADD PUSH2 0x17B8 SWAP1 PUSH2 0x334B JUMP JUMPDEST PUSH1 0x40 MLOAD DUP1 SWAP2 SUB SWAP1 REVERT JUMPDEST DUP1 PUSH1 0x7 PUSH1 0x0 DUP5 DUP2 MSTORE PUSH1 0x20 ADD SWAP1 DUP2 MSTORE PUSH1 0x20 ADD PUSH1 0x0 KECCAK256 SWAP1 DUP1 MLOAD SWAP1 PUSH1 0x20 ADD SWAP1 PUSH2 0x17E8 SWAP3 SWAP2 SWAP1 PUSH2 0x201B JUMP JUMPDEST POP POP POP JUMP JUMPDEST PUSH2 0x17F5 PUSH2 0x11BE JUMP JUMPDEST PUSH20 0xFFFFFFFFFFFFFFFFFFFFFFFFFFFFFFFFFFFFFFFF AND PUSH2 0x1813 PUSH2 0xEA6 JUMP JUMPDEST PUSH20 0xFFFFFFFFFFFFFFFFFFFFFFFFFFFFFFFFFFFFFFFF AND EQ PUSH2 0x1869 JUMPI PUSH1 0x40 MLOAD PUSH32 0x8C379A000000000000000000000000000000000000000000000000000000000 DUP2 MSTORE PUSH1 0x4 ADD PUSH2 0x1860 SWAP1 PUSH2 0x33B7 JUMP JUMPDEST PUSH1 0x40 MLOAD DUP1 SWAP2 SUB SWAP1 REVERT JUMPDEST JUMP JUMPDEST PUSH1 0x0 DUP1 PUSH1 0x0 SWAP1 SLOAD SWAP1 PUSH2 0x100 EXP SWAP1 DIV PUSH20 0xFFFFFFFFFFFFFFFFFFFFFFFFFFFFFFFFFFFFFFFF AND SWAP1 POP DUP2 PUSH1 0x0 DUP1 PUSH2 0x100 EXP DUP2 SLOAD DUP2 PUSH20 0xFFFFFFFFFFFFFFFFFFFFFFFFFFFFFFFFFFFFFFFF MUL NOT AND SWAP1 DUP4 PUSH20 0xFFFFFFFFFFFFFFFFFFFFFFFFFFFFFFFFFFFFFFFF AND MUL OR SWAP1 SSTORE POP DUP2 PUSH20 0xFFFFFFFFFFFFFFFFFFFFFFFFFFFFFFFFFFFFFFFF AND DUP2 PUSH20 0xFFFFFFFFFFFFFFFFFFFFFFFFFFFFFFFFFFFFFFFF AND PUSH32 0x8BE0079C531659141344CD1FD0A4F28419497F9722A3DAAFE3B4186F6B6457E0 PUSH1 0x40 MLOAD PUSH1 0x40 MLOAD DUP1 SWAP2 SUB SWAP1 LOG3 POP POP JUMP JUMPDEST DUP2 PUSH20 0xFFFFFFFFFFFFFFFFFFFFFFFFFFFFFFFFFFFFFFFF AND DUP4 PUSH20 0xFFFFFFFFFFFFFFFFFFFFFFFFFFFFFFFFFFFFFFFF AND EQ ISZERO PUSH2 0x199E JUMPI PUSH1 0x40 MLOAD PUSH32 0x8C379A000000000000000000000000000000000000000000000000000000000 DUP2 MSTORE PUSH1 0x4 ADD PUSH2 0x1995 SWAP1 PUSH2 0x3423 JUMP JUMPDEST PUSH1 0x40 MLOAD DUP1 SWAP2 SUB SWAP1 REVERT JUMPDEST DUP1 PUSH1 0x6 PUSH1 0x0 DUP6 PUSH20 0xFFFFFFFFFFFFFFFFFFFFFFFFFFFFFFFFFFFFFFFF AND PUSH20 0xFFFFFFFFFFFFFFFFFFFFFFFFFFFFFFFFFFFFFFFF AND DUP2 MSTORE PUSH1 0x20 ADD SWAP1 DUP2 MSTORE PUSH1 0x20 ADD PUSH1 0x0 KECCAK256 PUSH1 0x0 DUP5 PUSH20 0xFFFFFFFFFFFFFFFFFFFFFFFFFFFFFFFFFFFFFFFF AND PUSH20 0xFFFFFFFFFFFFFFFFFFFFFFFFFFFFFFFFFFFFFFFF AND DUP2 MSTORE PUSH1 0x20 ADD SWAP1 DUP2 MSTORE PUSH1 0x20 ADD PUSH1 0x0 KECCAK256 PUSH1 0x0 PUSH2 0x100 EXP DUP2 SLOAD DUP2 PUSH1 0xFF MUL NOT AND SWAP1 DUP4 ISZERO ISZERO MUL OR SWAP1 SSTORE POP DUP2 PUSH20 0xFFFFFFFFFFFFFFFFFFFFFFFFFFFFFFFFFFFFFFFF AND DUP4 PUSH20 0xFFFFFFFFFFFFFFFFFFFFFFFFFFFFFFFFFFFFFFFF AND PUSH32 0x17307EAB39AB6107E8899845AD3D59BD9653F200F220920489CA2B5937696C31 DUP4 PUSH1 0x40 MLOAD PUSH2 0x1A8F SWAP2 SWAP1 PUSH2 0x2172 JUMP JUMPDEST PUSH1 0x40 MLOAD DUP1 SWAP2 SUB SWAP1 LOG3 POP POP POP JUMP JUMPDEST PUSH2 0x1AA7 DUP5 DUP5 DUP5 PUSH2 0x1314 JUMP JUMPDEST PUSH2 0x1AB3 DUP5 DUP5 DUP5 DUP5 PUSH2 0x1C81 JUMP JUMPDEST PUSH2 0x1AF2 JUMPI PUSH1 0x40 MLOAD PUSH32 0x8C379A000000000000000000000000000000000000000000000000000000000 DUP2 MSTORE PUSH1 0x4 ADD PUSH2 0x1AE9 SWAP1 PUSH2 0x34B5 JUMP JUMPDEST PUSH1 0x40 MLOAD DUP1 SWAP2 SUB SWAP1 REVERT JUMPDEST POP POP POP POP JUMP JUMPDEST PUSH1 0x60 PUSH2 0x1B03 DUP3 PUSH2 0x1173 JUMP JUMPDEST PUSH1 0x0 PUSH1 0x7 PUSH1 0x0 DUP5 DUP2 MSTORE PUSH1 0x20 ADD SWAP1 DUP2 MSTORE PUSH1 0x20 ADD PUSH1 0x0 KECCAK256 DUP1 SLOAD PUSH2 0x1B23 SWAP1 PUSH2 0x28A2 JUMP JUMPDEST DUP1 PUSH1 0x1F ADD PUSH1 0x20 DUP1 SWAP2 DIV MUL PUSH1 0x20 ADD PUSH1 0x40 MLOAD SWAP1 DUP2 ADD PUSH1 0x40 MSTORE DUP1 SWAP3 SWAP2 SWAP1 DUP2 DUP2 MSTORE PUSH1 0x20 ADD DUP3 DUP1 SLOAD PUSH2 0x1B4F SWAP1 PUSH2 0x28A2 JUMP JUMPDEST DUP1 ISZERO PUSH2 0x1B9C JUMPI DUP1 PUSH1 0x1F LT PUSH2 0x1B71 JUMPI PUSH2 0x100 DUP1 DUP4 SLOAD DIV MUL DUP4 MSTORE SWAP2 PUSH1 0x20 ADD SWAP2 PUSH2 0x1B9C JUMP JUMPDEST DUP3 ADD SWAP2 SWAP1 PUSH1 0x0 MSTORE PUSH1 0x20 PUSH1 0x0 KECCAK256 SWAP1 JUMPDEST DUP2 SLOAD DUP2 MSTORE SWAP1 PUSH1 0x1 ADD SWAP1 PUSH1 0x20 ADD DUP1 DUP4 GT PUSH2 0x1B7F JUMPI DUP3 SWAP1 SUB PUSH1 0x1F AND DUP3 ADD SWAP2 JUMPDEST POP POP POP POP POP SWAP1 POP PUSH1 0x0 PUSH2 0x1BAD PUSH2 0x1E18 JUMP JUMPDEST SWAP1 POP PUSH1 0x0 DUP2 MLOAD EQ ISZERO PUSH2 0x1BC3 JUMPI DUP2 SWAP3 POP POP POP PUSH2 0x1C06 JUMP JUMPDEST PUSH1 0x0 DUP3 MLOAD GT ISZERO PUSH2 0x1BF8 JUMPI DUP1 DUP3 PUSH1 0x40 MLOAD PUSH1 0x20 ADD PUSH2 0x1BE0 SWAP3 SWAP2 SWAP1 PUSH2 0x34D5 JUMP JUMPDEST PUSH1 0x40 MLOAD PUSH1 0x20 DUP2 DUP4 SUB SUB DUP2 MSTORE SWAP1 PUSH1 0x40 MSTORE SWAP3 POP POP POP PUSH2 0x1C06 JUMP JUMPDEST PUSH2 0x1C01 DUP5 PUSH2 0x1E2F JUMP JUMPDEST SWAP3 POP POP POP JUMPDEST SWAP2 SWAP1 POP JUMP JUMPDEST PUSH1 0x0 DUP1 PUSH20 0xFFFFFFFFFFFFFFFFFFFFFFFFFFFFFFFFFFFFFFFF AND PUSH1 0x3 PUSH1 0x0 DUP5 DUP2 MSTORE PUSH1 0x20 ADD SWAP1 DUP2 MSTORE PUSH1 0x20 ADD PUSH1 0x0 KECCAK256 PUSH1 0x0 SWAP1 SLOAD SWAP1 PUSH2 0x100 EXP SWAP1 DIV PUSH20 0xFFFFFFFFFFFFFFFFFFFFFFFFFFFFFFFFFFFFFFFF AND PUSH20 0xFFFFFFFFFFFFFFFFFFFFFFFFFFFFFFFFFFFFFFFF AND EQ ISZERO SWAP1 POP SWAP2 SWAP1 POP JUMP JUMPDEST POP POP POP JUMP JUMPDEST POP POP POP JUMP JUMPDEST PUSH1 0x0 PUSH2 0x1CA2 DUP5 PUSH20 0xFFFFFFFFFFFFFFFFFFFFFFFFFFFFFFFFFFFFFFFF AND PUSH2 0x1E97 JUMP JUMPDEST ISZERO PUSH2 0x1E0B JUMPI DUP4 PUSH20 0xFFFFFFFFFFFFFFFFFFFFFFFFFFFFFFFFFFFFFFFF AND PUSH4 0x150B7A02 PUSH2 0x1CCB PUSH2 0x11BE JUMP JUMPDEST DUP8 DUP7 DUP7 PUSH1 0x40 MLOAD DUP6 PUSH4 0xFFFFFFFF AND PUSH1 0xE0 SHL DUP2 MSTORE PUSH1 0x4 ADD PUSH2 0x1CED SWAP5 SWAP4 SWAP3 SWAP2 SWAP1 PUSH2 0x354E JUMP JUMPDEST PUSH1 0x20 PUSH1 0x40 MLOAD DUP1 DUP4 SUB DUP2 PUSH1 0x0 DUP8 DUP1 EXTCODESIZE ISZERO DUP1 ISZERO PUSH2 0x1D07 JUMPI PUSH1 0x0 DUP1 REVERT JUMPDEST POP GAS CALL SWAP3 POP POP POP DUP1 ISZERO PUSH2 0x1D38 JUMPI POP PUSH1 0x40 MLOAD RETURNDATASIZE PUSH1 0x1F NOT PUSH1 0x1F DUP3 ADD AND DUP3 ADD DUP1 PUSH1 0x40 MSTORE POP DUP2 ADD SWAP1 PUSH2 0x1D35 SWAP2 SWAP1 PUSH2 0x35AF JUMP JUMPDEST PUSH1 0x1 JUMPDEST PUSH2 0x1DBB JUMPI RETURNDATASIZE DUP1 PUSH1 0x0 DUP2 EQ PUSH2 0x1D68 JUMPI PUSH1 0x40 MLOAD SWAP2 POP PUSH1 0x1F NOT PUSH1 0x3F RETURNDATASIZE ADD AND DUP3 ADD PUSH1 0x40 MSTORE RETURNDATASIZE DUP3 MSTORE RETURNDATASIZE PUSH1 0x0 PUSH1 0x20 DUP5 ADD RETURNDATACOPY PUSH2 0x1D6D JUMP JUMPDEST PUSH1 0x60 SWAP2 POP JUMPDEST POP PUSH1 0x0 DUP2 MLOAD EQ ISZERO PUSH2 0x1DB3 JUMPI PUSH1 0x40 MLOAD PUSH32 0x8C379A000000000000000000000000000000000000000000000000000000000 DUP2 MSTORE PUSH1 0x4 ADD PUSH2 0x1DAA SWAP1 PUSH2 0x34B5 JUMP JUMPDEST PUSH1 0x40 MLOAD DUP1 SWAP2 SUB SWAP1 REVERT JUMPDEST DUP1 MLOAD DUP2 PUSH1 0x20 ADD REVERT JUMPDEST PUSH4 0x150B7A02 PUSH1 0xE0 SHL PUSH28 0xFFFFFFFFFFFFFFFFFFFFFFFFFFFFFFFFFFFFFFFFFFFFFFFFFFFFFFFF NOT AND DUP2 PUSH28 0xFFFFFFFFFFFFFFFFFFFFFFFFFFFFFFFFFFFFFFFFFFFFFFFFFFFFFFFF NOT AND EQ SWAP2 POP POP PUSH2 0x1E10 JUMP JUMPDEST PUSH1 0x1 SWAP1 POP JUMPDEST SWAP5 SWAP4 POP POP POP POP JUMP JUMPDEST PUSH1 0x60 PUSH1 0x40 MLOAD DUP1 PUSH1 0x20 ADD PUSH1 0x40 MSTORE DUP1 PUSH1 0x0 DUP2 MSTORE POP SWAP1 POP SWAP1 JUMP JUMPDEST PUSH1 0x60 PUSH2 0x1E3A DUP3 PUSH2 0x1173 JUMP JUMPDEST PUSH1 0x0 PUSH2 0x1E44 PUSH2 0x1E18 JUMP JUMPDEST SWAP1 POP PUSH1 0x0 DUP2 MLOAD GT PUSH2 0x1E64 JUMPI PUSH1 0x40 MLOAD DUP1 PUSH1 0x20 ADD PUSH1 0x40 MSTORE DUP1 PUSH1 0x0 DUP2 MSTORE POP PUSH2 0x1E8F JUMP JUMPDEST DUP1 PUSH2 0x1E6E DUP5 PUSH2 0x1EBA JUMP JUMPDEST PUSH1 0x40 MLOAD PUSH1 0x20 ADD PUSH2 0x1E7F SWAP3 SWAP2 SWAP1 PUSH2 0x34D5 JUMP JUMPDEST PUSH1 0x40 MLOAD PUSH1 0x20 DUP2 DUP4 SUB SUB DUP2 MSTORE SWAP1 PUSH1 0x40 MSTORE JUMPDEST SWAP2 POP POP SWAP2 SWAP1 POP JUMP JUMPDEST PUSH1 0x0 DUP1 DUP3 PUSH20 0xFFFFFFFFFFFFFFFFFFFFFFFFFFFFFFFFFFFFFFFF AND EXTCODESIZE GT SWAP1 POP SWAP2 SWAP1 POP JUMP JUMPDEST PUSH1 0x60 PUSH1 0x0 DUP3 EQ ISZERO PUSH2 0x1F02 JUMPI PUSH1 0x40 MLOAD DUP1 PUSH1 0x40 ADD PUSH1 0x40 MSTORE DUP1 PUSH1 0x1 DUP2 MSTORE PUSH1 0x20 ADD PUSH32 0x3000000000000000000000000000000000000000000000000000000000000000 DUP2 MSTORE POP SWAP1 POP PUSH2 0x2016 JUMP JUMPDEST PUSH1 0x0 DUP3 SWAP1 POP PUSH1 0x0 JUMPDEST PUSH1 0x0 DUP3 EQ PUSH2 0x1F34 JUMPI DUP1 DUP1 PUSH2 0x1F1D SWAP1 PUSH2 0x35DC JUMP JUMPDEST SWAP2 POP POP PUSH1 0xA DUP3 PUSH2 0x1F2D SWAP2 SWAP1 PUSH2 0x2C39 JUMP JUMPDEST SWAP2 POP PUSH2 0x1F0A JUMP JUMPDEST PUSH1 0x0 DUP2 PUSH8 0xFFFFFFFFFFFFFFFF DUP2 GT ISZERO PUSH2 0x1F50 JUMPI PUSH2 0x1F4F PUSH2 0x2685 JUMP JUMPDEST JUMPDEST PUSH1 0x40 MLOAD SWAP1 DUP1 DUP3 MSTORE DUP1 PUSH1 0x1F ADD PUSH1 0x1F NOT AND PUSH1 0x20 ADD DUP3 ADD PUSH1 0x40 MSTORE DUP1 ISZERO PUSH2 0x1F82 JUMPI DUP2 PUSH1 0x20 ADD PUSH1 0x1 DUP3 MUL DUP1 CALLDATASIZE DUP4 CALLDATACOPY DUP1 DUP3 ADD SWAP2 POP POP SWAP1 POP JUMPDEST POP SWAP1 POP JUMPDEST PUSH1 0x0 DUP6 EQ PUSH2 0x200F JUMPI PUSH1 0x1 DUP3 PUSH2 0x1F9B SWAP2 SWAP1 PUSH2 0x31CD JUMP JUMPDEST SWAP2 POP PUSH1 0xA DUP6 PUSH2 0x1FAA SWAP2 SWAP1 PUSH2 0x3625 JUMP JUMPDEST PUSH1 0x30 PUSH2 0x1FB6 SWAP2 SWAP1 PUSH2 0x2DE5 JUMP JUMPDEST PUSH1 0xF8 SHL DUP2 DUP4 DUP2 MLOAD DUP2 LT PUSH2 0x1FCC JUMPI PUSH2 0x1FCB PUSH2 0x3656 JUMP JUMPDEST JUMPDEST PUSH1 0x20 ADD ADD SWAP1 PUSH31 0xFFFFFFFFFFFFFFFFFFFFFFFFFFFFFFFFFFFFFFFFFFFFFFFFFFFFFFFFFFFFFF NOT AND SWAP1 DUP2 PUSH1 0x0 BYTE SWAP1 MSTORE8 POP PUSH1 0xA DUP6 PUSH2 0x2008 SWAP2 SWAP1 PUSH2 0x2C39 JUMP JUMPDEST SWAP5 POP PUSH2 0x1F86 JUMP JUMPDEST DUP1 SWAP4 POP POP POP POP JUMPDEST SWAP2 SWAP1 POP JUMP JUMPDEST DUP3 DUP1 SLOAD PUSH2 0x2027 SWAP1 PUSH2 0x28A2 JUMP JUMPDEST SWAP1 PUSH1 0x0 MSTORE PUSH1 0x20 PUSH1 0x0 KECCAK256 SWAP1 PUSH1 0x1F ADD PUSH1 0x20 SWAP1 DIV DUP2 ADD SWAP3 DUP3 PUSH2 0x2049 JUMPI PUSH1 0x0 DUP6 SSTORE PUSH2 0x2090 JUMP JUMPDEST DUP3 PUSH1 0x1F LT PUSH2 0x2062 JUMPI DUP1 MLOAD PUSH1 0xFF NOT AND DUP4 DUP1 ADD OR DUP6 SSTORE PUSH2 0x2090 JUMP JUMPDEST DUP3 DUP1 ADD PUSH1 0x1 ADD DUP6 SSTORE DUP3 ISZERO PUSH2 0x2090 JUMPI SWAP2 DUP3 ADD JUMPDEST DUP3 DUP2 GT ISZERO PUSH2 0x208F JUMPI DUP3 MLOAD DUP3 SSTORE SWAP2 PUSH1 0x20 ADD SWAP2 SWAP1 PUSH1 0x1 ADD SWAP1 PUSH2 0x2074 JUMP JUMPDEST JUMPDEST POP SWAP1 POP PUSH2 0x209D SWAP2 SWAP1 PUSH2 0x20A1 JUMP JUMPDEST POP SWAP1 JUMP JUMPDEST JUMPDEST DUP1 DUP3 GT ISZERO PUSH2 0x20BA JUMPI PUSH1 0x0 DUP2 PUSH1 0x0 SWAP1 SSTORE POP PUSH1 0x1 ADD PUSH2 0x20A2 JUMP JUMPDEST POP SWAP1 JUMP JUMPDEST PUSH1 0x0 PUSH1 0x40 MLOAD SWAP1 POP SWAP1 JUMP JUMPDEST PUSH1 0x0 DUP1 REVERT JUMPDEST PUSH1 0x0 DUP1 REVERT JUMPDEST PUSH1 0x0 PUSH32 0xFFFFFFFF00000000000000000000000000000000000000000000000000000000 DUP3 AND SWAP1 POP SWAP2 SWAP1 POP JUMP JUMPDEST PUSH2 0x2107 DUP2 PUSH2 0x20D2 JUMP JUMPDEST DUP2 EQ PUSH2 0x2112 JUMPI PUSH1 0x0 DUP1 REVERT JUMPDEST POP JUMP JUMPDEST PUSH1 0x0 DUP2 CALLDATALOAD SWAP1 POP PUSH2 0x2124 DUP2 PUSH2 0x20FE JUMP JUMPDEST SWAP3 SWAP2 POP POP JUMP JUMPDEST PUSH1 0x0 PUSH1 0x20 DUP3 DUP5 SUB SLT ISZERO PUSH2 0x2140 JUMPI PUSH2 0x213F PUSH2 0x20C8 JUMP JUMPDEST JUMPDEST PUSH1 0x0 PUSH2 0x214E DUP5 DUP3 DUP6 ADD PUSH2 0x2115 JUMP JUMPDEST SWAP2 POP POP SWAP3 SWAP2 POP POP JUMP JUMPDEST PUSH1 0x0 DUP2 ISZERO ISZERO SWAP1 POP SWAP2 SWAP1 POP JUMP JUMPDEST PUSH2 0x216C DUP2 PUSH2 0x2157 JUMP JUMPDEST DUP3 MSTORE POP POP JUMP JUMPDEST PUSH1 0x0 PUSH1 0x20 DUP3 ADD SWAP1 POP PUSH2 0x2187 PUSH1 0x0 DUP4 ADD DUP5 PUSH2 0x2163 JUMP JUMPDEST SWAP3 SWAP2 POP POP JUMP JUMPDEST PUSH1 0x0 DUP2 MLOAD SWAP1 POP SWAP2 SWAP1 POP JUMP JUMPDEST PUSH1 0x0 DUP3 DUP3 MSTORE PUSH1 0x20 DUP3 ADD SWAP1 POP SWAP3 SWAP2 POP POP JUMP JUMPDEST PUSH1 0x0 JUMPDEST DUP4 DUP2 LT ISZERO PUSH2 0x21C7 JUMPI DUP1 DUP3 ADD MLOAD DUP2 DUP5 ADD MSTORE PUSH1 0x20 DUP2 ADD SWAP1 POP PUSH2 0x21AC JUMP JUMPDEST DUP4 DUP2 GT ISZERO PUSH2 0x21D6 JUMPI PUSH1 0x0 DUP5 DUP5 ADD MSTORE JUMPDEST POP POP POP POP JUMP JUMPDEST PUSH1 0x0 PUSH1 0x1F NOT PUSH1 0x1F DUP4 ADD AND SWAP1 POP SWAP2 SWAP1 POP JUMP JUMPDEST PUSH1 0x0 PUSH2 0x21F8 DUP3 PUSH2 0x218D JUMP JUMPDEST PUSH2 0x2202 DUP2 DUP6 PUSH2 0x2198 JUMP JUMPDEST SWAP4 POP PUSH2 0x2212 DUP2 DUP6 PUSH1 0x20 DUP7 ADD PUSH2 0x21A9 JUMP JUMPDEST PUSH2 0x221B DUP2 PUSH2 0x21DC JUMP JUMPDEST DUP5 ADD SWAP2 POP POP SWAP3 SWAP2 POP POP JUMP JUMPDEST PUSH1 0x0 PUSH1 0x20 DUP3 ADD SWAP1 POP DUP2 DUP2 SUB PUSH1 0x0 DUP4 ADD MSTORE PUSH2 0x2240 DUP2 DUP5 PUSH2 0x21ED JUMP JUMPDEST SWAP1 POP SWAP3 SWAP2 POP POP JUMP JUMPDEST PUSH1 0x0 DUP2 SWAP1 POP SWAP2 SWAP1 POP JUMP JUMPDEST PUSH2 0x225B DUP2 PUSH2 0x2248 JUMP JUMPDEST DUP2 EQ PUSH2 0x2266 JUMPI PUSH1 0x0 DUP1 REVERT JUMPDEST POP JUMP JUMPDEST PUSH1 0x0 DUP2 CALLDATALOAD SWAP1 POP PUSH2 0x2278 DUP2 PUSH2 0x2252 JUMP JUMPDEST SWAP3 SWAP2 POP POP JUMP JUMPDEST PUSH1 0x0 PUSH1 0x20 DUP3 DUP5 SUB SLT ISZERO PUSH2 0x2294 JUMPI PUSH2 0x2293 PUSH2 0x20C8 JUMP JUMPDEST JUMPDEST PUSH1 0x0 PUSH2 0x22A2 DUP5 DUP3 DUP6 ADD PUSH2 0x2269 JUMP JUMPDEST SWAP2 POP POP SWAP3 SWAP2 POP POP JUMP JUMPDEST PUSH1 0x0 PUSH20 0xFFFFFFFFFFFFFFFFFFFFFFFFFFFFFFFFFFFFFFFF DUP3 AND SWAP1 POP SWAP2 SWAP1 POP JUMP JUMPDEST PUSH1 0x0 PUSH2 0x22D6 DUP3 PUSH2 0x22AB JUMP JUMPDEST SWAP1 POP SWAP2 SWAP1 POP JUMP JUMPDEST PUSH2 0x22E6 DUP2 PUSH2 0x22CB JUMP JUMPDEST DUP3 MSTORE POP POP JUMP JUMPDEST PUSH1 0x0 PUSH1 0x20 DUP3 ADD SWAP1 POP PUSH2 0x2301 PUSH1 0x0 DUP4 ADD DUP5 PUSH2 0x22DD JUMP JUMPDEST SWAP3 SWAP2 POP POP JUMP JUMPDEST PUSH2 0x2310 DUP2 PUSH2 0x22CB JUMP JUMPDEST DUP2 EQ PUSH2 0x231B JUMPI PUSH1 0x0 DUP1 REVERT JUMPDEST POP JUMP JUMPDEST PUSH1 0x0 DUP2 CALLDATALOAD SWAP1 POP PUSH2 0x232D DUP2 PUSH2 0x2307 JUMP JUMPDEST SWAP3 SWAP2 POP POP JUMP JUMPDEST PUSH1 0x0 DUP1 PUSH1 0x40 DUP4 DUP6 SUB SLT ISZERO PUSH2 0x234A JUMPI PUSH2 0x2349 PUSH2 0x20C8 JUMP JUMPDEST JUMPDEST PUSH1 0x0 PUSH2 0x2358 DUP6 DUP3 DUP7 ADD PUSH2 0x231E JUMP JUMPDEST SWAP3 POP POP PUSH1 0x20 PUSH2 0x2369 DUP6 DUP3 DUP7 ADD PUSH2 0x2269 JUMP JUMPDEST SWAP2 POP POP SWAP3 POP SWAP3 SWAP1 POP JUMP JUMPDEST PUSH1 0x0 DUP1 PUSH1 0x0 PUSH1 0x60 DUP5 DUP7 SUB SLT ISZERO PUSH2 0x238C JUMPI PUSH2 0x238B PUSH2 0x20C8 JUMP JUMPDEST JUMPDEST PUSH1 0x0 PUSH2 0x239A DUP7 DUP3 DUP8 ADD PUSH2 0x231E JUMP JUMPDEST SWAP4 POP POP PUSH1 0x20 PUSH2 0x23AB DUP7 DUP3 DUP8 ADD PUSH2 0x231E JUMP JUMPDEST SWAP3 POP POP PUSH1 0x40 PUSH2 0x23BC DUP7 DUP3 DUP8 ADD PUSH2 0x2269 JUMP JUMPDEST SWAP2 POP POP SWAP3 POP SWAP3 POP SWAP3 JUMP JUMPDEST PUSH1 0x0 PUSH2 0x23D1 DUP3 PUSH2 0x22CB JUMP JUMPDEST SWAP1 POP SWAP2 SWAP1 POP JUMP JUMPDEST PUSH2 0x23E1 DUP2 PUSH2 0x23C6 JUMP JUMPDEST DUP2 EQ PUSH2 0x23EC JUMPI PUSH1 0x0 DUP1 REVERT JUMPDEST POP JUMP JUMPDEST PUSH1 0x0 DUP2 CALLDATALOAD SWAP1 POP PUSH2 0x23FE DUP2 PUSH2 0x23D8 JUMP JUMPDEST SWAP3 SWAP2 POP POP JUMP JUMPDEST PUSH1 0x0 DUP1 REVERT JUMPDEST PUSH1 0x0 DUP1 REVERT JUMPDEST PUSH1 0x0 DUP1 REVERT JUMPDEST PUSH1 0x0 DUP1 DUP4 PUSH1 0x1F DUP5 ADD SLT PUSH2 0x2429 JUMPI PUSH2 0x2428 PUSH2 0x2404 JUMP JUMPDEST JUMPDEST DUP3 CALLDATALOAD SWAP1 POP PUSH8 0xFFFFFFFFFFFFFFFF DUP2 GT ISZERO PUSH2 0x2446 JUMPI PUSH2 0x2445 PUSH2 0x2409 JUMP JUMPDEST JUMPDEST PUSH1 0x20 DUP4 ADD SWAP2 POP DUP4 PUSH1 0x1 DUP3 MUL DUP4 ADD GT ISZERO PUSH2 0x2462 JUMPI PUSH2 0x2461 PUSH2 0x240E JUMP JUMPDEST JUMPDEST SWAP3 POP SWAP3 SWAP1 POP JUMP JUMPDEST PUSH1 0x0 DUP1 PUSH1 0x0 DUP1 PUSH1 0x60 DUP6 DUP8 SUB SLT ISZERO PUSH2 0x2483 JUMPI PUSH2 0x2482 PUSH2 0x20C8 JUMP JUMPDEST JUMPDEST PUSH1 0x0 PUSH2 0x2491 DUP8 DUP3 DUP9 ADD PUSH2 0x23EF JUMP JUMPDEST SWAP5 POP POP PUSH1 0x20 PUSH2 0x24A2 DUP8 DUP3 DUP9 ADD PUSH2 0x2269 JUMP JUMPDEST SWAP4 POP POP PUSH1 0x40 DUP6 ADD CALLDATALOAD PUSH8 0xFFFFFFFFFFFFFFFF DUP2 GT ISZERO PUSH2 0x24C3 JUMPI PUSH2 0x24C2 PUSH2 0x20CD JUMP JUMPDEST JUMPDEST PUSH2 0x24CF DUP8 DUP3 DUP9 ADD PUSH2 0x2413 JUMP JUMPDEST SWAP3 POP SWAP3 POP POP SWAP3 SWAP6 SWAP2 SWAP5 POP SWAP3 POP JUMP JUMPDEST PUSH1 0x0 PUSH1 0x20 DUP3 DUP5 SUB SLT ISZERO PUSH2 0x24F3 JUMPI PUSH2 0x24F2 PUSH2 0x20C8 JUMP JUMPDEST JUMPDEST PUSH1 0x0 PUSH2 0x2501 DUP5 DUP3 DUP6 ADD PUSH2 0x231E JUMP JUMPDEST SWAP2 POP POP SWAP3 SWAP2 POP POP JUMP JUMPDEST PUSH2 0x2513 DUP2 PUSH2 0x2248 JUMP JUMPDEST DUP3 MSTORE POP POP JUMP JUMPDEST PUSH1 0x0 PUSH1 0x20 DUP3 ADD SWAP1 POP PUSH2 0x252E PUSH1 0x0 DUP4 ADD DUP5 PUSH2 0x250A JUMP JUMPDEST SWAP3 SWAP2 POP POP JUMP JUMPDEST PUSH1 0x0 PUSH1 0xFF DUP3 AND SWAP1 POP SWAP2 SWAP1 POP JUMP JUMPDEST PUSH2 0x254A DUP2 PUSH2 0x2534 JUMP JUMPDEST DUP2 EQ PUSH2 0x2555 JUMPI PUSH1 0x0 DUP1 REVERT JUMPDEST POP JUMP JUMPDEST PUSH1 0x0 DUP2 CALLDATALOAD SWAP1 POP PUSH2 0x2567 DUP2 PUSH2 0x2541 JUMP JUMPDEST SWAP3 SWAP2 POP POP JUMP JUMPDEST PUSH1 0x0 DUP1 PUSH1 0x0 DUP1 PUSH1 0x0 DUP1 PUSH1 0x80 DUP8 DUP10 SUB SLT ISZERO PUSH2 0x258A JUMPI PUSH2 0x2589 PUSH2 0x20C8 JUMP JUMPDEST JUMPDEST PUSH1 0x0 DUP8 ADD CALLDATALOAD PUSH8 0xFFFFFFFFFFFFFFFF DUP2 GT ISZERO PUSH2 0x25A8 JUMPI PUSH2 0x25A7 PUSH2 0x20CD JUMP JUMPDEST JUMPDEST PUSH2 0x25B4 DUP10 DUP3 DUP11 ADD PUSH2 0x2413 JUMP JUMPDEST SWAP7 POP SWAP7 POP POP PUSH1 0x20 PUSH2 0x25C7 DUP10 DUP3 DUP11 ADD PUSH2 0x2269 JUMP JUMPDEST SWAP5 POP POP PUSH1 0x40 PUSH2 0x25D8 DUP10 DUP3 DUP11 ADD PUSH2 0x2558 JUMP JUMPDEST SWAP4 POP POP PUSH1 0x60 DUP8 ADD CALLDATALOAD PUSH8 0xFFFFFFFFFFFFFFFF DUP2 GT ISZERO PUSH2 0x25F9 JUMPI PUSH2 0x25F8 PUSH2 0x20CD JUMP JUMPDEST JUMPDEST PUSH2 0x2605 DUP10 DUP3 DUP11 ADD PUSH2 0x2413 JUMP JUMPDEST SWAP3 POP SWAP3 POP POP SWAP3 SWAP6 POP SWAP3 SWAP6 POP SWAP3 SWAP6 JUMP JUMPDEST PUSH2 0x261D DUP2 PUSH2 0x2157 JUMP JUMPDEST DUP2 EQ PUSH2 0x2628 JUMPI PUSH1 0x0 DUP1 REVERT JUMPDEST POP JUMP JUMPDEST PUSH1 0x0 DUP2 CALLDATALOAD SWAP1 POP PUSH2 0x263A DUP2 PUSH2 0x2614 JUMP JUMPDEST SWAP3 SWAP2 POP POP JUMP JUMPDEST PUSH1 0x0 DUP1 PUSH1 0x40 DUP4 DUP6 SUB SLT ISZERO PUSH2 0x2657 JUMPI PUSH2 0x2656 PUSH2 0x20C8 JUMP JUMPDEST JUMPDEST PUSH1 0x0 PUSH2 0x2665 DUP6 DUP3 DUP7 ADD PUSH2 0x231E JUMP JUMPDEST SWAP3 POP POP PUSH1 0x20 PUSH2 0x2676 DUP6 DUP3 DUP7 ADD PUSH2 0x262B JUMP JUMPDEST SWAP2 POP POP SWAP3 POP SWAP3 SWAP1 POP JUMP JUMPDEST PUSH1 0x0 DUP1 REVERT JUMPDEST PUSH32 0x4E487B7100000000000000000000000000000000000000000000000000000000 PUSH1 0x0 MSTORE PUSH1 0x41 PUSH1 0x4 MSTORE PUSH1 0x24 PUSH1 0x0 REVERT JUMPDEST PUSH2 0x26BD DUP3 PUSH2 0x21DC JUMP JUMPDEST DUP2 ADD DUP2 DUP2 LT PUSH8 0xFFFFFFFFFFFFFFFF DUP3 GT OR ISZERO PUSH2 0x26DC JUMPI PUSH2 0x26DB PUSH2 0x2685 JUMP JUMPDEST JUMPDEST DUP1 PUSH1 0x40 MSTORE POP POP POP JUMP JUMPDEST PUSH1 0x0 PUSH2 0x26EF PUSH2 0x20BE JUMP JUMPDEST SWAP1 POP PUSH2 0x26FB DUP3 DUP3 PUSH2 0x26B4 JUMP JUMPDEST SWAP2 SWAP1 POP JUMP JUMPDEST PUSH1 0x0 PUSH8 0xFFFFFFFFFFFFFFFF DUP3 GT ISZERO PUSH2 0x271B JUMPI PUSH2 0x271A PUSH2 0x2685 JUMP JUMPDEST JUMPDEST PUSH2 0x2724 DUP3 PUSH2 0x21DC JUMP JUMPDEST SWAP1 POP PUSH1 0x20 DUP2 ADD SWAP1 POP SWAP2 SWAP1 POP JUMP JUMPDEST DUP3 DUP2 DUP4 CALLDATACOPY PUSH1 0x0 DUP4 DUP4 ADD MSTORE POP POP POP JUMP JUMPDEST PUSH1 0x0 PUSH2 0x2753 PUSH2 0x274E DUP5 PUSH2 0x2700 JUMP JUMPDEST PUSH2 0x26E5 JUMP JUMPDEST SWAP1 POP DUP3 DUP2 MSTORE PUSH1 0x20 DUP2 ADD DUP5 DUP5 DUP5 ADD GT ISZERO PUSH2 0x276F JUMPI PUSH2 0x276E PUSH2 0x2680 JUMP JUMPDEST JUMPDEST PUSH2 0x277A DUP5 DUP3 DUP6 PUSH2 0x2731 JUMP JUMPDEST POP SWAP4 SWAP3 POP POP POP JUMP JUMPDEST PUSH1 0x0 DUP3 PUSH1 0x1F DUP4 ADD SLT PUSH2 0x2797 JUMPI PUSH2 0x2796 PUSH2 0x2404 JUMP JUMPDEST JUMPDEST DUP2 CALLDATALOAD PUSH2 0x27A7 DUP5 DUP3 PUSH1 0x20 DUP7 ADD PUSH2 0x2740 JUMP JUMPDEST SWAP2 POP POP SWAP3 SWAP2 POP POP JUMP JUMPDEST PUSH1 0x0 DUP1 PUSH1 0x0 DUP1 PUSH1 0x80 DUP6 DUP8 SUB SLT ISZERO PUSH2 0x27CA JUMPI PUSH2 0x27C9 PUSH2 0x20C8 JUMP JUMPDEST JUMPDEST PUSH1 0x0 PUSH2 0x27D8 DUP8 DUP3 DUP9 ADD PUSH2 0x231E JUMP JUMPDEST SWAP5 POP POP PUSH1 0x20 PUSH2 0x27E9 DUP8 DUP3 DUP9 ADD PUSH2 0x231E JUMP JUMPDEST SWAP4 POP POP PUSH1 0x40 PUSH2 0x27FA DUP8 DUP3 DUP9 ADD PUSH2 0x2269 JUMP JUMPDEST SWAP3 POP POP PUSH1 0x60 DUP6 ADD CALLDATALOAD PUSH8 0xFFFFFFFFFFFFFFFF DUP2 GT ISZERO PUSH2 0x281B JUMPI PUSH2 0x281A PUSH2 0x20CD JUMP JUMPDEST JUMPDEST PUSH2 0x2827 DUP8 DUP3 DUP9 ADD PUSH2 0x2782 JUMP JUMPDEST SWAP2 POP POP SWAP3 SWAP6 SWAP2 SWAP5 POP SWAP3 POP JUMP JUMPDEST PUSH1 0x0 DUP1 PUSH1 0x40 DUP4 DUP6 SUB SLT ISZERO PUSH2 0x284A JUMPI PUSH2 0x2849 PUSH2 0x20C8 JUMP JUMPDEST JUMPDEST PUSH1 0x0 PUSH2 0x2858 DUP6 DUP3 DUP7 ADD PUSH2 0x231E JUMP JUMPDEST SWAP3 POP POP PUSH1 0x20 PUSH2 0x2869 DUP6 DUP3 DUP7 ADD PUSH2 0x231E JUMP JUMPDEST SWAP2 POP POP SWAP3 POP SWAP3 SWAP1 POP JUMP JUMPDEST PUSH32 0x4E487B7100000000000000000000000000000000000000000000000000000000 PUSH1 0x0 MSTORE PUSH1 0x22 PUSH1 0x4 MSTORE PUSH1 0x24 PUSH1 0x0 REVERT JUMPDEST PUSH1 0x0 PUSH1 0x2 DUP3 DIV SWAP1 POP PUSH1 0x1 DUP3 AND DUP1 PUSH2 0x28BA JUMPI PUSH1 0x7F DUP3 AND SWAP2 POP JUMPDEST PUSH1 0x20 DUP3 LT DUP2 EQ ISZERO PUSH2 0x28CE JUMPI PUSH2 0x28CD PUSH2 0x2873 JUMP JUMPDEST JUMPDEST POP SWAP2 SWAP1 POP JUMP JUMPDEST PUSH32 0x4552433732313A20617070726F76616C20746F2063757272656E74206F776E65 PUSH1 0x0 DUP3 ADD MSTORE PUSH32 0x7200000000000000000000000000000000000000000000000000000000000000 PUSH1 0x20 DUP3 ADD MSTORE POP JUMP JUMPDEST PUSH1 0x0 PUSH2 0x2930 PUSH1 0x21 DUP4 PUSH2 0x2198 JUMP JUMPDEST SWAP2 POP PUSH2 0x293B DUP3 PUSH2 0x28D4 JUMP JUMPDEST PUSH1 0x40 DUP3 ADD SWAP1 POP SWAP2 SWAP1 POP JUMP JUMPDEST PUSH1 0x0 PUSH1 0x20 DUP3 ADD SWAP1 POP DUP2 DUP2 SUB PUSH1 0x0 DUP4 ADD MSTORE PUSH2 0x295F DUP2 PUSH2 0x2923 JUMP JUMPDEST SWAP1 POP SWAP2 SWAP1 POP JUMP JUMPDEST PUSH32 0x4552433732313A20617070726F76652063616C6C6572206973206E6F7420746F PUSH1 0x0 DUP3 ADD MSTORE PUSH32 0x6B656E206F776E6572206E6F7220617070726F76656420666F7220616C6C0000 PUSH1 0x20 DUP3 ADD MSTORE POP JUMP JUMPDEST PUSH1 0x0 PUSH2 0x29C2 PUSH1 0x3E DUP4 PUSH2 0x2198 JUMP JUMPDEST SWAP2 POP PUSH2 0x29CD DUP3 PUSH2 0x2966 JUMP JUMPDEST PUSH1 0x40 DUP3 ADD SWAP1 POP SWAP2 SWAP1 POP JUMP JUMPDEST PUSH1 0x0 PUSH1 0x20 DUP3 ADD SWAP1 POP DUP2 DUP2 SUB PUSH1 0x0 DUP4 ADD MSTORE PUSH2 0x29F1 DUP2 PUSH2 0x29B5 JUMP JUMPDEST SWAP1 POP SWAP2 SWAP1 POP JUMP JUMPDEST PUSH32 0x4552433732313A2063616C6C6572206973206E6F7420746F6B656E206F776E65 PUSH1 0x0 DUP3 ADD MSTORE PUSH32 0x72206E6F7220617070726F766564000000000000000000000000000000000000 PUSH1 0x20 DUP3 ADD MSTORE POP JUMP JUMPDEST PUSH1 0x0 PUSH2 0x2A54 PUSH1 0x2E DUP4 PUSH2 0x2198 JUMP JUMPDEST SWAP2 POP PUSH2 0x2A5F DUP3 PUSH2 0x29F8 JUMP JUMPDEST PUSH1 0x40 DUP3 ADD SWAP1 POP SWAP2 SWAP1 POP JUMP JUMPDEST PUSH1 0x0 PUSH1 0x20 DUP3 ADD SWAP1 POP DUP2 DUP2 SUB PUSH1 0x0 DUP4 ADD MSTORE PUSH2 0x2A83 DUP2 PUSH2 0x2A47 JUMP JUMPDEST SWAP1 POP SWAP2 SWAP1 POP JUMP JUMPDEST PUSH1 0x0 DUP2 SWAP1 POP SWAP3 SWAP2 POP POP JUMP JUMPDEST PUSH1 0x0 PUSH2 0x2AA1 DUP4 DUP6 PUSH2 0x2A8A JUMP JUMPDEST SWAP4 POP PUSH2 0x2AAE DUP4 DUP6 DUP5 PUSH2 0x2731 JUMP JUMPDEST DUP3 DUP5 ADD SWAP1 POP SWAP4 SWAP3 POP POP POP JUMP JUMPDEST PUSH1 0x0 PUSH2 0x2AC7 DUP3 DUP5 DUP7 PUSH2 0x2A95 JUMP JUMPDEST SWAP2 POP DUP2 SWAP1 POP SWAP4 SWAP3 POP POP POP JUMP JUMPDEST PUSH1 0x0 DUP2 MLOAD SWAP1 POP PUSH2 0x2AE2 DUP2 PUSH2 0x2252 JUMP JUMPDEST SWAP3 SWAP2 POP POP JUMP JUMPDEST PUSH1 0x0 PUSH1 0x20 DUP3 DUP5 SUB SLT ISZERO PUSH2 0x2AFE JUMPI PUSH2 0x2AFD PUSH2 0x20C8 JUMP JUMPDEST JUMPDEST PUSH1 0x0 PUSH2 0x2B0C DUP5 DUP3 DUP6 ADD PUSH2 0x2AD3 JUMP JUMPDEST SWAP2 POP POP SWAP3 SWAP2 POP POP JUMP JUMPDEST PUSH32 0x62616C616E636520746F6F206C6F770000000000000000000000000000000000 PUSH1 0x0 DUP3 ADD MSTORE POP JUMP JUMPDEST PUSH1 0x0 PUSH2 0x2B4B PUSH1 0xF DUP4 PUSH2 0x2198 JUMP JUMPDEST SWAP2 POP PUSH2 0x2B56 DUP3 PUSH2 0x2B15 JUMP JUMPDEST PUSH1 0x20 DUP3 ADD SWAP1 POP SWAP2 SWAP1 POP JUMP JUMPDEST PUSH1 0x0 PUSH1 0x20 DUP3 ADD SWAP1 POP DUP2 DUP2 SUB PUSH1 0x0 DUP4 ADD MSTORE PUSH2 0x2B7A DUP2 PUSH2 0x2B3E JUMP JUMPDEST SWAP1 POP SWAP2 SWAP1 POP JUMP JUMPDEST PUSH32 0x4E487B7100000000000000000000000000000000000000000000000000000000 PUSH1 0x0 MSTORE PUSH1 0x11 PUSH1 0x4 MSTORE PUSH1 0x24 PUSH1 0x0 REVERT JUMPDEST PUSH1 0x0 PUSH2 0x2BBB DUP3 PUSH2 0x2248 JUMP JUMPDEST SWAP2 POP PUSH2 0x2BC6 DUP4 PUSH2 0x2248 JUMP JUMPDEST SWAP3 POP DUP2 PUSH32 0xFFFFFFFFFFFFFFFFFFFFFFFFFFFFFFFFFFFFFFFFFFFFFFFFFFFFFFFFFFFFFFFF DIV DUP4 GT DUP3 ISZERO ISZERO AND ISZERO PUSH2 0x2BFF JUMPI PUSH2 0x2BFE PUSH2 0x2B81 JUMP JUMPDEST JUMPDEST DUP3 DUP3 MUL SWAP1 POP SWAP3 SWAP2 POP POP JUMP JUMPDEST PUSH32 0x4E487B7100000000000000000000000000000000000000000000000000000000 PUSH1 0x0 MSTORE PUSH1 0x12 PUSH1 0x4 MSTORE PUSH1 0x24 PUSH1 0x0 REVERT JUMPDEST PUSH1 0x0 PUSH2 0x2C44 DUP3 PUSH2 0x2248 JUMP JUMPDEST SWAP2 POP PUSH2 0x2C4F DUP4 PUSH2 0x2248 JUMP JUMPDEST SWAP3 POP DUP3 PUSH2 0x2C5F JUMPI PUSH2 0x2C5E PUSH2 0x2C0A JUMP JUMPDEST JUMPDEST DUP3 DUP3 DIV SWAP1 POP SWAP3 SWAP2 POP POP JUMP JUMPDEST PUSH32 0x77726F6E6720616D6F756E74206F6620746F6B656E7300000000000000000000 PUSH1 0x0 DUP3 ADD MSTORE POP JUMP JUMPDEST PUSH1 0x0 PUSH2 0x2CA0 PUSH1 0x16 DUP4 PUSH2 0x2198 JUMP JUMPDEST SWAP2 POP PUSH2 0x2CAB DUP3 PUSH2 0x2C6A JUMP JUMPDEST PUSH1 0x20 DUP3 ADD SWAP1 POP SWAP2 SWAP1 POP JUMP JUMPDEST PUSH1 0x0 PUSH1 0x20 DUP3 ADD SWAP1 POP DUP2 DUP2 SUB PUSH1 0x0 DUP4 ADD MSTORE PUSH2 0x2CCF DUP2 PUSH2 0x2C93 JUMP JUMPDEST SWAP1 POP SWAP2 SWAP1 POP JUMP JUMPDEST PUSH32 0x6E6F2073706F7473206C65667400000000000000000000000000000000000000 PUSH1 0x0 DUP3 ADD MSTORE POP JUMP JUMPDEST PUSH1 0x0 PUSH2 0x2D0C PUSH1 0xD DUP4 PUSH2 0x2198 JUMP JUMPDEST SWAP2 POP PUSH2 0x2D17 DUP3 PUSH2 0x2CD6 JUMP JUMPDEST PUSH1 0x20 DUP3 ADD SWAP1 POP SWAP2 SWAP1 POP JUMP JUMPDEST PUSH1 0x0 PUSH1 0x20 DUP3 ADD SWAP1 POP DUP2 DUP2 SUB PUSH1 0x0 DUP4 ADD MSTORE PUSH2 0x2D3B DUP2 PUSH2 0x2CFF JUMP JUMPDEST SWAP1 POP SWAP2 SWAP1 POP JUMP JUMPDEST PUSH1 0x0 PUSH1 0x60 DUP3 ADD SWAP1 POP PUSH2 0x2D57 PUSH1 0x0 DUP4 ADD DUP7 PUSH2 0x22DD JUMP JUMPDEST PUSH2 0x2D64 PUSH1 0x20 DUP4 ADD DUP6 PUSH2 0x22DD JUMP JUMPDEST PUSH2 0x2D71 PUSH1 0x40 DUP4 ADD DUP5 PUSH2 0x250A JUMP JUMPDEST SWAP5 SWAP4 POP POP POP POP JUMP JUMPDEST PUSH1 0x0 DUP2 MLOAD SWAP1 POP PUSH2 0x2D88 DUP2 PUSH2 0x2614 JUMP JUMPDEST SWAP3 SWAP2 POP POP JUMP JUMPDEST PUSH1 0x0 PUSH1 0x20 DUP3 DUP5 SUB SLT ISZERO PUSH2 0x2DA4 JUMPI PUSH2 0x2DA3 PUSH2 0x20C8 JUMP JUMPDEST JUMPDEST PUSH1 0x0 PUSH2 0x2DB2 DUP5 DUP3 DUP6 ADD PUSH2 0x2D79 JUMP JUMPDEST SWAP2 POP POP SWAP3 SWAP2 POP POP JUMP JUMPDEST PUSH1 0x0 PUSH2 0x2DC6 DUP3 PUSH2 0x2534 JUMP JUMPDEST SWAP2 POP PUSH1 0x0 DUP3 EQ ISZERO PUSH2 0x2DDA JUMPI PUSH2 0x2DD9 PUSH2 0x2B81 JUMP JUMPDEST JUMPDEST PUSH1 0x1 DUP3 SUB SWAP1 POP SWAP2 SWAP1 POP JUMP JUMPDEST PUSH1 0x0 PUSH2 0x2DF0 DUP3 PUSH2 0x2248 JUMP JUMPDEST SWAP2 POP PUSH2 0x2DFB DUP4 PUSH2 0x2248 JUMP JUMPDEST SWAP3 POP DUP3 PUSH32 0xFFFFFFFFFFFFFFFFFFFFFFFFFFFFFFFFFFFFFFFFFFFFFFFFFFFFFFFFFFFFFFFF SUB DUP3 GT ISZERO PUSH2 0x2E30 JUMPI PUSH2 0x2E2F PUSH2 0x2B81 JUMP JUMPDEST JUMPDEST DUP3 DUP3 ADD SWAP1 POP SWAP3 SWAP2 POP POP JUMP JUMPDEST PUSH1 0x0 PUSH2 0x2E47 DUP4 DUP6 PUSH2 0x2198 JUMP JUMPDEST SWAP4 POP PUSH2 0x2E54 DUP4 DUP6 DUP5 PUSH2 0x2731 JUMP JUMPDEST PUSH2 0x2E5D DUP4 PUSH2 0x21DC JUMP JUMPDEST DUP5 ADD SWAP1 POP SWAP4 SWAP3 POP POP POP JUMP JUMPDEST PUSH1 0x0 PUSH1 0x60 DUP3 ADD SWAP1 POP PUSH2 0x2E7D PUSH1 0x0 DUP4 ADD DUP8 PUSH2 0x22DD JUMP JUMPDEST DUP2 DUP2 SUB PUSH1 0x20 DUP4 ADD MSTORE PUSH2 0x2E90 DUP2 DUP6 DUP8 PUSH2 0x2E3B JUMP JUMPDEST SWAP1 POP PUSH2 0x2E9F PUSH1 0x40 DUP4 ADD DUP5 PUSH2 0x250A JUMP JUMPDEST SWAP6 SWAP5 POP POP POP POP POP JUMP JUMPDEST PUSH1 0x0 PUSH1 0x40 DUP3 ADD SWAP1 POP PUSH2 0x2EBD PUSH1 0x0 DUP4 ADD DUP6 PUSH2 0x22DD JUMP JUMPDEST PUSH2 0x2ECA PUSH1 0x20 DUP4 ADD DUP5 PUSH2 0x250A JUMP JUMPDEST SWAP4 SWAP3 POP POP POP JUMP JUMPDEST PUSH32 0x4552433732313A20696E76616C696420746F6B656E2049440000000000000000 PUSH1 0x0 DUP3 ADD MSTORE POP JUMP JUMPDEST PUSH1 0x0 PUSH2 0x2F07 PUSH1 0x18 DUP4 PUSH2 0x2198 JUMP JUMPDEST SWAP2 POP PUSH2 0x2F12 DUP3 PUSH2 0x2ED1 JUMP JUMPDEST PUSH1 0x20 DUP3 ADD SWAP1 POP SWAP2 SWAP1 POP JUMP JUMPDEST PUSH1 0x0 PUSH1 0x20 DUP3 ADD SWAP1 POP DUP2 DUP2 SUB PUSH1 0x0 DUP4 ADD MSTORE PUSH2 0x2F36 DUP2 PUSH2 0x2EFA JUMP JUMPDEST SWAP1 POP SWAP2 SWAP1 POP JUMP JUMPDEST PUSH32 0x4552433732313A2061646472657373207A65726F206973206E6F742061207661 PUSH1 0x0 DUP3 ADD MSTORE PUSH32 0x6C6964206F776E65720000000000000000000000000000000000000000000000 PUSH1 0x20 DUP3 ADD MSTORE POP JUMP JUMPDEST PUSH1 0x0 PUSH2 0x2F99 PUSH1 0x29 DUP4 PUSH2 0x2198 JUMP JUMPDEST SWAP2 POP PUSH2 0x2FA4 DUP3 PUSH2 0x2F3D JUMP JUMPDEST PUSH1 0x40 DUP3 ADD SWAP1 POP SWAP2 SWAP1 POP JUMP JUMPDEST PUSH1 0x0 PUSH1 0x20 DUP3 ADD SWAP1 POP DUP2 DUP2 SUB PUSH1 0x0 DUP4 ADD MSTORE PUSH2 0x2FC8 DUP2 PUSH2 0x2F8C JUMP JUMPDEST SWAP1 POP SWAP2 SWAP1 POP JUMP JUMPDEST PUSH1 0x0 PUSH2 0x2FDA DUP3 PUSH2 0x218D JUMP JUMPDEST PUSH2 0x2FE4 DUP2 DUP6 PUSH2 0x2A8A JUMP JUMPDEST SWAP4 POP PUSH2 0x2FF4 DUP2 DUP6 PUSH1 0x20 DUP7 ADD PUSH2 0x21A9 JUMP JUMPDEST DUP1 DUP5 ADD SWAP2 POP POP SWAP3 SWAP2 POP POP JUMP JUMPDEST PUSH1 0x0 PUSH2 0x300C DUP3 DUP5 PUSH2 0x2FCF JUMP JUMPDEST SWAP2 POP DUP2 SWAP1 POP SWAP3 SWAP2 POP POP JUMP JUMPDEST PUSH32 0x4F776E61626C653A206E6577206F776E657220697320746865207A65726F2061 PUSH1 0x0 DUP3 ADD MSTORE PUSH32 0x6464726573730000000000000000000000000000000000000000000000000000 PUSH1 0x20 DUP3 ADD MSTORE POP JUMP JUMPDEST PUSH1 0x0 PUSH2 0x3073 PUSH1 0x26 DUP4 PUSH2 0x2198 JUMP JUMPDEST SWAP2 POP PUSH2 0x307E DUP3 PUSH2 0x3017 JUMP JUMPDEST PUSH1 0x40 DUP3 ADD SWAP1 POP SWAP2 SWAP1 POP JUMP JUMPDEST PUSH1 0x0 PUSH1 0x20 DUP3 ADD SWAP1 POP DUP2 DUP2 SUB PUSH1 0x0 DUP4 ADD MSTORE PUSH2 0x30A2 DUP2 PUSH2 0x3066 JUMP JUMPDEST SWAP1 POP SWAP2 SWAP1 POP JUMP JUMPDEST PUSH32 0x4552433732313A207472616E736665722066726F6D20696E636F727265637420 PUSH1 0x0 DUP3 ADD MSTORE PUSH32 0x6F776E6572000000000000000000000000000000000000000000000000000000 PUSH1 0x20 DUP3 ADD MSTORE POP JUMP JUMPDEST PUSH1 0x0 PUSH2 0x3105 PUSH1 0x25 DUP4 PUSH2 0x2198 JUMP JUMPDEST SWAP2 POP PUSH2 0x3110 DUP3 PUSH2 0x30A9 JUMP JUMPDEST PUSH1 0x40 DUP3 ADD SWAP1 POP SWAP2 SWAP1 POP JUMP JUMPDEST PUSH1 0x0 PUSH1 0x20 DUP3 ADD SWAP1 POP DUP2 DUP2 SUB PUSH1 0x0 DUP4 ADD MSTORE PUSH2 0x3134 DUP2 PUSH2 0x30F8 JUMP JUMPDEST SWAP1 POP SWAP2 SWAP1 POP JUMP JUMPDEST PUSH32 0x4552433732313A207472616E7366657220746F20746865207A65726F20616464 PUSH1 0x0 DUP3 ADD MSTORE PUSH32 0x7265737300000000000000000000000000000000000000000000000000000000 PUSH1 0x20 DUP3 ADD MSTORE POP JUMP JUMPDEST PUSH1 0x0 PUSH2 0x3197 PUSH1 0x24 DUP4 PUSH2 0x2198 JUMP JUMPDEST SWAP2 POP PUSH2 0x31A2 DUP3 PUSH2 0x313B JUMP JUMPDEST PUSH1 0x40 DUP3 ADD SWAP1 POP SWAP2 SWAP1 POP JUMP JUMPDEST PUSH1 0x0 PUSH1 0x20 DUP3 ADD SWAP1 POP DUP2 DUP2 SUB PUSH1 0x0 DUP4 ADD MSTORE PUSH2 0x31C6 DUP2 PUSH2 0x318A JUMP JUMPDEST SWAP1 POP SWAP2 SWAP1 POP JUMP JUMPDEST PUSH1 0x0 PUSH2 0x31D8 DUP3 PUSH2 0x2248 JUMP JUMPDEST SWAP2 POP PUSH2 0x31E3 DUP4 PUSH2 0x2248 JUMP JUMPDEST SWAP3 POP DUP3 DUP3 LT ISZERO PUSH2 0x31F6 JUMPI PUSH2 0x31F5 PUSH2 0x2B81 JUMP JUMPDEST JUMPDEST DUP3 DUP3 SUB SWAP1 POP SWAP3 SWAP2 POP POP JUMP JUMPDEST PUSH32 0x4552433732313A206D696E7420746F20746865207A65726F2061646472657373 PUSH1 0x0 DUP3 ADD MSTORE POP JUMP JUMPDEST PUSH1 0x0 PUSH2 0x3237 PUSH1 0x20 DUP4 PUSH2 0x2198 JUMP JUMPDEST SWAP2 POP PUSH2 0x3242 DUP3 PUSH2 0x3201 JUMP JUMPDEST PUSH1 0x20 DUP3 ADD SWAP1 POP SWAP2 SWAP1 POP JUMP JUMPDEST PUSH1 0x0 PUSH1 0x20 DUP3 ADD SWAP1 POP DUP2 DUP2 SUB PUSH1 0x0 DUP4 ADD MSTORE PUSH2 0x3266 DUP2 PUSH2 0x322A JUMP JUMPDEST SWAP1 POP SWAP2 SWAP1 POP JUMP JUMPDEST PUSH32 0x4552433732313A20746F6B656E20616C7265616479206D696E74656400000000 PUSH1 0x0 DUP3 ADD MSTORE POP JUMP JUMPDEST PUSH1 0x0 PUSH2 0x32A3 PUSH1 0x1C DUP4 PUSH2 0x2198 JUMP JUMPDEST SWAP2 POP PUSH2 0x32AE DUP3 PUSH2 0x326D JUMP JUMPDEST PUSH1 0x20 DUP3 ADD SWAP1 POP SWAP2 SWAP1 POP JUMP JUMPDEST PUSH1 0x0 PUSH1 0x20 DUP3 ADD SWAP1 POP DUP2 DUP2 SUB PUSH1 0x0 DUP4 ADD MSTORE PUSH2 0x32D2 DUP2 PUSH2 0x3296 JUMP JUMPDEST SWAP1 POP SWAP2 SWAP1 POP JUMP JUMPDEST PUSH32 0x45524337323155524953746F726167653A2055524920736574206F66206E6F6E PUSH1 0x0 DUP3 ADD MSTORE PUSH32 0x6578697374656E7420746F6B656E000000000000000000000000000000000000 PUSH1 0x20 DUP3 ADD MSTORE POP JUMP JUMPDEST PUSH1 0x0 PUSH2 0x3335 PUSH1 0x2E DUP4 PUSH2 0x2198 JUMP JUMPDEST SWAP2 POP PUSH2 0x3340 DUP3 PUSH2 0x32D9 JUMP JUMPDEST PUSH1 0x40 DUP3 ADD SWAP1 POP SWAP2 SWAP1 POP JUMP JUMPDEST PUSH1 0x0 PUSH1 0x20 DUP3 ADD SWAP1 POP DUP2 DUP2 SUB PUSH1 0x0 DUP4 ADD MSTORE PUSH2 0x3364 DUP2 PUSH2 0x3328 JUMP JUMPDEST SWAP1 POP SWAP2 SWAP1 POP JUMP JUMPDEST PUSH32 0x4F776E61626C653A2063616C6C6572206973206E6F7420746865206F776E6572 PUSH1 0x0 DUP3 ADD MSTORE POP JUMP JUMPDEST PUSH1 0x0 PUSH2 0x33A1 PUSH1 0x20 DUP4 PUSH2 0x2198 JUMP JUMPDEST SWAP2 POP PUSH2 0x33AC DUP3 PUSH2 0x336B JUMP JUMPDEST PUSH1 0x20 DUP3 ADD SWAP1 POP SWAP2 SWAP1 POP JUMP JUMPDEST PUSH1 0x0 PUSH1 0x20 DUP3 ADD SWAP1 POP DUP2 DUP2 SUB PUSH1 0x0 DUP4 ADD MSTORE PUSH2 0x33D0 DUP2 PUSH2 0x3394 JUMP JUMPDEST SWAP1 POP SWAP2 SWAP1 POP JUMP JUMPDEST PUSH32 0x4552433732313A20617070726F766520746F2063616C6C657200000000000000 PUSH1 0x0 DUP3 ADD MSTORE POP JUMP JUMPDEST PUSH1 0x0 PUSH2 0x340D PUSH1 0x19 DUP4 PUSH2 0x2198 JUMP JUMPDEST SWAP2 POP PUSH2 0x3418 DUP3 PUSH2 0x33D7 JUMP JUMPDEST PUSH1 0x20 DUP3 ADD SWAP1 POP SWAP2 SWAP1 POP JUMP JUMPDEST PUSH1 0x0 PUSH1 0x20 DUP3 ADD SWAP1 POP DUP2 DUP2 SUB PUSH1 0x0 DUP4 ADD MSTORE PUSH2 0x343C DUP2 PUSH2 0x3400 JUMP JUMPDEST SWAP1 POP SWAP2 SWAP1 POP JUMP JUMPDEST PUSH32 0x4552433732313A207472616E7366657220746F206E6F6E204552433732315265 PUSH1 0x0 DUP3 ADD MSTORE PUSH32 0x63656976657220696D706C656D656E7465720000000000000000000000000000 PUSH1 0x20 DUP3 ADD MSTORE POP JUMP JUMPDEST PUSH1 0x0 PUSH2 0x349F PUSH1 0x32 DUP4 PUSH2 0x2198 JUMP JUMPDEST SWAP2 POP PUSH2 0x34AA DUP3 PUSH2 0x3443 JUMP JUMPDEST PUSH1 0x40 DUP3 ADD SWAP1 POP SWAP2 SWAP1 POP JUMP JUMPDEST PUSH1 0x0 PUSH1 0x20 DUP3 ADD SWAP1 POP DUP2 DUP2 SUB PUSH1 0x0 DUP4 ADD MSTORE PUSH2 0x34CE DUP2 PUSH2 0x3492 JUMP JUMPDEST SWAP1 POP SWAP2 SWAP1 POP JUMP JUMPDEST PUSH1 0x0 PUSH2 0x34E1 DUP3 DUP6 PUSH2 0x2FCF JUMP JUMPDEST SWAP2 POP PUSH2 0x34ED DUP3 DUP5 PUSH2 0x2FCF JUMP JUMPDEST SWAP2 POP DUP2 SWAP1 POP SWAP4 SWAP3 POP POP POP JUMP JUMPDEST PUSH1 0x0 DUP2 MLOAD SWAP1 POP SWAP2 SWAP1 POP JUMP JUMPDEST PUSH1 0x0 DUP3 DUP3 MSTORE PUSH1 0x20 DUP3 ADD SWAP1 POP SWAP3 SWAP2 POP POP JUMP JUMPDEST PUSH1 0x0 PUSH2 0x3520 DUP3 PUSH2 0x34F9 JUMP JUMPDEST PUSH2 0x352A DUP2 DUP6 PUSH2 0x3504 JUMP JUMPDEST SWAP4 POP PUSH2 0x353A DUP2 DUP6 PUSH1 0x20 DUP7 ADD PUSH2 0x21A9 JUMP JUMPDEST PUSH2 0x3543 DUP2 PUSH2 0x21DC JUMP JUMPDEST DUP5 ADD SWAP2 POP POP SWAP3 SWAP2 POP POP JUMP JUMPDEST PUSH1 0x0 PUSH1 0x80 DUP3 ADD SWAP1 POP PUSH2 0x3563 PUSH1 0x0 DUP4 ADD DUP8 PUSH2 0x22DD JUMP JUMPDEST PUSH2 0x3570 PUSH1 0x20 DUP4 ADD DUP7 PUSH2 0x22DD JUMP JUMPDEST PUSH2 0x357D PUSH1 0x40 DUP4 ADD DUP6 PUSH2 0x250A JUMP JUMPDEST DUP2 DUP2 SUB PUSH1 0x60 DUP4 ADD MSTORE PUSH2 0x358F DUP2 DUP5 PUSH2 0x3515 JUMP JUMPDEST SWAP1 POP SWAP6 SWAP5 POP POP POP POP POP JUMP JUMPDEST PUSH1 0x0 DUP2 MLOAD SWAP1 POP PUSH2 0x35A9 DUP2 PUSH2 0x20FE JUMP JUMPDEST SWAP3 SWAP2 POP POP JUMP JUMPDEST PUSH1 0x0 PUSH1 0x20 DUP3 DUP5 SUB SLT ISZERO PUSH2 0x35C5 JUMPI PUSH2 0x35C4 PUSH2 0x20C8 JUMP JUMPDEST JUMPDEST PUSH1 0x0 PUSH2 0x35D3 DUP5 DUP3 DUP6 ADD PUSH2 0x359A JUMP JUMPDEST SWAP2 POP POP SWAP3 SWAP2 POP POP JUMP JUMPDEST PUSH1 0x0 PUSH2 0x35E7 DUP3 PUSH2 0x2248 JUMP JUMPDEST SWAP2 POP PUSH32 0xFFFFFFFFFFFFFFFFFFFFFFFFFFFFFFFFFFFFFFFFFFFFFFFFFFFFFFFFFFFFFFFF DUP3 EQ ISZERO PUSH2 0x361A JUMPI PUSH2 0x3619 PUSH2 0x2B81 JUMP JUMPDEST JUMPDEST PUSH1 0x1 DUP3 ADD SWAP1 POP SWAP2 SWAP1 POP JUMP JUMPDEST PUSH1 0x0 PUSH2 0x3630 DUP3 PUSH2 0x2248 JUMP JUMPDEST SWAP2 POP PUSH2 0x363B DUP4 PUSH2 0x2248 JUMP JUMPDEST SWAP3 POP DUP3 PUSH2 0x364B JUMPI PUSH2 0x364A PUSH2 0x2C0A JUMP JUMPDEST JUMPDEST DUP3 DUP3 MOD SWAP1 POP SWAP3 SWAP2 POP POP JUMP JUMPDEST PUSH32 0x4E487B7100000000000000000000000000000000000000000000000000000000 PUSH1 0x0 MSTORE PUSH1 0x32 PUSH1 0x4 MSTORE PUSH1 0x24 PUSH1 0x0 REVERT INVALID LOG2 PUSH5 0x6970667358 0x22 SLT KECCAK256 0xED SWAP15 0xC9 0xCC SGT PUSH14 0x147142478F26ADB460125C938893 0xCC SWAP5 PUSH19 0x57494212C7F82545F464736F6C634300080900 CALLER "
        },
        "methodIdentifiers": {
          "addStay(string,uint256,uint8,string)": "7d5094ce",
          "approve(address,uint256)": "095ea7b3",
          "balanceOf(address)": "70a08231",
          "fee()": "ddca3f43",
          "getApproved(uint256)": "081812fc",
          "isApprovedForAll(address,address)": "e985e9c5",
          "joinStay(address,uint256,string)": "5fe9ca52",
          "name()": "06fdde03",
          "owner()": "8da5cb5b",
          "ownerOf(uint256)": "6352211e",
          "renounceOwnership()": "715018a6",
          "safeTransferFrom(address,address,uint256)": "42842e0e",
          "safeTransferFrom(address,address,uint256,bytes)": "b88d4fde",
          "setApprovalForAll(address,bool)": "a22cb465",
          "setFee(uint256)": "69fe0e2d",
          "supportsInterface(bytes4)": "01ffc9a7",
          "symbol()": "95d89b41",
          "tokenURI(uint256)": "c87b56dd",
          "transferFrom(address,address,uint256)": "23b872dd",
          "transferOwnership(address)": "f2fde38b"
        }
      }
    }
  }
}