{
  "_format": "hh-sol-artifact-1",
  "contractName": "Booker",
  "sourceName": "contracts/Booker.sol",
  "abi": [
    {
      "inputs": [],
      "stateMutability": "nonpayable",
      "type": "constructor"
    },
    {
      "anonymous": false,
      "inputs": [
        {
          "indexed": true,
          "internalType": "address",
          "name": "owner",
          "type": "address"
        },
        {
          "indexed": true,
          "internalType": "address",
          "name": "approved",
          "type": "address"
        },
        {
          "indexed": true,
          "internalType": "uint256",
          "name": "tokenId",
          "type": "uint256"
        }
      ],
      "name": "Approval",
      "type": "event"
    },
    {
      "anonymous": false,
      "inputs": [
        {
          "indexed": true,
          "internalType": "address",
          "name": "owner",
          "type": "address"
        },
        {
          "indexed": true,
          "internalType": "address",
          "name": "operator",
          "type": "address"
        },
        {
          "indexed": false,
          "internalType": "bool",
          "name": "approved",
          "type": "bool"
        }
      ],
      "name": "ApprovalForAll",
      "type": "event"
    },
    {
      "anonymous": false,
      "inputs": [
        {
          "indexed": false,
          "internalType": "address",
          "name": "user",
          "type": "address"
        },
        {
          "indexed": false,
          "internalType": "string",
          "name": "stayId",
          "type": "string"
        },
        {
          "indexed": false,
          "internalType": "uint256",
          "name": "value",
          "type": "uint256"
        }
      ],
      "name": "BookStay",
      "type": "event"
    },
    {
      "anonymous": false,
      "inputs": [
        {
          "indexed": false,
          "internalType": "address",
          "name": "user",
          "type": "address"
        },
        {
          "indexed": false,
          "internalType": "uint256",
          "name": "value",
          "type": "uint256"
        }
      ],
      "name": "JoinStay",
      "type": "event"
    },
    {
      "anonymous": false,
      "inputs": [
        {
          "indexed": true,
          "internalType": "address",
          "name": "previousOwner",
          "type": "address"
        },
        {
          "indexed": true,
          "internalType": "address",
          "name": "newOwner",
          "type": "address"
        }
      ],
      "name": "OwnershipTransferred",
      "type": "event"
    },
    {
      "anonymous": false,
      "inputs": [
        {
          "indexed": true,
          "internalType": "address",
          "name": "from",
          "type": "address"
        },
        {
          "indexed": true,
          "internalType": "address",
          "name": "to",
          "type": "address"
        },
        {
          "indexed": true,
          "internalType": "uint256",
          "name": "tokenId",
          "type": "uint256"
        }
      ],
      "name": "Transfer",
      "type": "event"
    },
    {
      "inputs": [
        {
          "internalType": "string",
          "name": "id",
          "type": "string"
        },
        {
          "internalType": "uint256",
          "name": "costPerPerson",
          "type": "uint256"
        },
        {
          "internalType": "uint8",
          "name": "spots",
          "type": "uint8"
        },
        {
          "internalType": "string",
          "name": "imageURL",
          "type": "string"
        }
      ],
      "name": "addStay",
      "outputs": [],
      "stateMutability": "nonpayable",
      "type": "function"
    },
    {
      "inputs": [
        {
          "internalType": "address",
          "name": "to",
          "type": "address"
        },
        {
          "internalType": "uint256",
          "name": "tokenId",
          "type": "uint256"
        }
      ],
      "name": "approve",
      "outputs": [],
      "stateMutability": "nonpayable",
      "type": "function"
    },
    {
      "inputs": [
        {
          "internalType": "address",
          "name": "owner",
          "type": "address"
        }
      ],
      "name": "balanceOf",
      "outputs": [
        {
          "internalType": "uint256",
          "name": "",
          "type": "uint256"
        }
      ],
      "stateMutability": "view",
      "type": "function"
    },
    {
      "inputs": [],
      "name": "fee",
      "outputs": [
        {
          "internalType": "uint256",
          "name": "",
          "type": "uint256"
        }
      ],
      "stateMutability": "view",
      "type": "function"
    },
    {
      "inputs": [
        {
          "internalType": "uint256",
          "name": "tokenId",
          "type": "uint256"
        }
      ],
      "name": "getApproved",
      "outputs": [
        {
          "internalType": "address",
          "name": "",
          "type": "address"
        }
      ],
      "stateMutability": "view",
      "type": "function"
    },
    {
      "inputs": [
        {
          "internalType": "string",
          "name": "id",
          "type": "string"
        }
      ],
      "name": "getStay",
      "outputs": [
        {
          "components": [
            {
              "internalType": "string",
              "name": "id",
              "type": "string"
            },
            {
              "internalType": "uint256",
              "name": "costPerPerson",
              "type": "uint256"
            },
            {
              "internalType": "uint256",
              "name": "fundsRaised",
              "type": "uint256"
            },
            {
              "internalType": "uint8",
              "name": "spots",
              "type": "uint8"
            },
            {
              "internalType": "string",
              "name": "imageURL",
              "type": "string"
            }
          ],
          "internalType": "struct Booker.Stay",
          "name": "",
          "type": "tuple"
        }
      ],
      "stateMutability": "view",
      "type": "function"
    },
    {
      "inputs": [
        {
          "internalType": "address",
          "name": "owner",
          "type": "address"
        },
        {
          "internalType": "address",
          "name": "operator",
          "type": "address"
        }
      ],
      "name": "isApprovedForAll",
      "outputs": [
        {
          "internalType": "bool",
          "name": "",
          "type": "bool"
        }
      ],
      "stateMutability": "view",
      "type": "function"
    },
    {
      "inputs": [
        {
          "internalType": "contract IERC20",
          "name": "token",
          "type": "address"
        },
        {
          "internalType": "uint256",
          "name": "amount",
          "type": "uint256"
        },
        {
          "internalType": "string",
          "name": "stayId",
          "type": "string"
        }
      ],
      "name": "joinStay",
      "outputs": [],
      "stateMutability": "nonpayable",
      "type": "function"
    },
    {
      "inputs": [],
      "name": "name",
      "outputs": [
        {
          "internalType": "string",
          "name": "",
          "type": "string"
        }
      ],
      "stateMutability": "view",
      "type": "function"
    },
    {
      "inputs": [],
      "name": "owner",
      "outputs": [
        {
          "internalType": "address",
          "name": "",
          "type": "address"
        }
      ],
      "stateMutability": "view",
      "type": "function"
    },
    {
      "inputs": [
        {
          "internalType": "uint256",
          "name": "tokenId",
          "type": "uint256"
        }
      ],
      "name": "ownerOf",
      "outputs": [
        {
          "internalType": "address",
          "name": "",
          "type": "address"
        }
      ],
      "stateMutability": "view",
      "type": "function"
    },
    {
      "inputs": [],
      "name": "renounceOwnership",
      "outputs": [],
      "stateMutability": "nonpayable",
      "type": "function"
    },
    {
      "inputs": [
        {
          "internalType": "address",
          "name": "from",
          "type": "address"
        },
        {
          "internalType": "address",
          "name": "to",
          "type": "address"
        },
        {
          "internalType": "uint256",
          "name": "tokenId",
          "type": "uint256"
        }
      ],
      "name": "safeTransferFrom",
      "outputs": [],
      "stateMutability": "nonpayable",
      "type": "function"
    },
    {
      "inputs": [
        {
          "internalType": "address",
          "name": "from",
          "type": "address"
        },
        {
          "internalType": "address",
          "name": "to",
          "type": "address"
        },
        {
          "internalType": "uint256",
          "name": "tokenId",
          "type": "uint256"
        },
        {
          "internalType": "bytes",
          "name": "data",
          "type": "bytes"
        }
      ],
      "name": "safeTransferFrom",
      "outputs": [],
      "stateMutability": "nonpayable",
      "type": "function"
    },
    {
      "inputs": [
        {
          "internalType": "address",
          "name": "operator",
          "type": "address"
        },
        {
          "internalType": "bool",
          "name": "approved",
          "type": "bool"
        }
      ],
      "name": "setApprovalForAll",
      "outputs": [],
      "stateMutability": "nonpayable",
      "type": "function"
    },
    {
      "inputs": [
        {
          "internalType": "uint256",
          "name": "feePercentage",
          "type": "uint256"
        }
      ],
      "name": "setFee",
      "outputs": [],
      "stateMutability": "nonpayable",
      "type": "function"
    },
    {
      "inputs": [
        {
          "internalType": "bytes4",
          "name": "interfaceId",
          "type": "bytes4"
        }
      ],
      "name": "supportsInterface",
      "outputs": [
        {
          "internalType": "bool",
          "name": "",
          "type": "bool"
        }
      ],
      "stateMutability": "view",
      "type": "function"
    },
    {
      "inputs": [],
      "name": "symbol",
      "outputs": [
        {
          "internalType": "string",
          "name": "",
          "type": "string"
        }
      ],
      "stateMutability": "view",
      "type": "function"
    },
    {
      "inputs": [
        {
          "internalType": "uint256",
          "name": "tokenId",
          "type": "uint256"
        }
      ],
      "name": "tokenURI",
      "outputs": [
        {
          "internalType": "string",
          "name": "",
          "type": "string"
        }
      ],
      "stateMutability": "view",
      "type": "function"
    },
    {
      "inputs": [
        {
          "internalType": "address",
          "name": "from",
          "type": "address"
        },
        {
          "internalType": "address",
          "name": "to",
          "type": "address"
        },
        {
          "internalType": "uint256",
          "name": "tokenId",
          "type": "uint256"
        }
      ],
      "name": "transferFrom",
      "outputs": [],
      "stateMutability": "nonpayable",
      "type": "function"
    },
    {
      "inputs": [
        {
          "internalType": "address",
          "name": "newOwner",
          "type": "address"
        }
      ],
      "name": "transferOwnership",
      "outputs": [],
      "stateMutability": "nonpayable",
      "type": "function"
    }
  ],
  "bytecode": "0x60806040523480156200001157600080fd5b506040518060400160405280600981526020017f53746179546f6b656e00000000000000000000000000000000000000000000008152506040518060400160405280600381526020017f53545600000000000000000000000000000000000000000000000000000000008152506200009e620000926200012160201b60201c565b6200012960201b60201c565b8160019080519060200190620000b6929190620001ed565b508060029080519060200190620000cf929190620001ed565b505050606860098190555033600a60006101000a81548173ffffffffffffffffffffffffffffffffffffffff021916908373ffffffffffffffffffffffffffffffffffffffff16021790555062000302565b600033905090565b60008060009054906101000a900473ffffffffffffffffffffffffffffffffffffffff169050816000806101000a81548173ffffffffffffffffffffffffffffffffffffffff021916908373ffffffffffffffffffffffffffffffffffffffff1602179055508173ffffffffffffffffffffffffffffffffffffffff168173ffffffffffffffffffffffffffffffffffffffff167f8be0079c531659141344cd1fd0a4f28419497f9722a3daafe3b4186f6b6457e060405160405180910390a35050565b828054620001fb90620002cc565b90600052602060002090601f0160209004810192826200021f57600085556200026b565b82601f106200023a57805160ff19168380011785556200026b565b828001600101855582156200026b579182015b828111156200026a5782518255916020019190600101906200024d565b5b5090506200027a91906200027e565b5090565b5b80821115620002995760008160009055506001016200027f565b5090565b7f4e487b7100000000000000000000000000000000000000000000000000000000600052602260045260246000fd5b60006002820490506001821680620002e557607f821691505b60208210811415620002fc57620002fb6200029d565b5b50919050565b613ab380620003126000396000f3fe608060405234801561001057600080fd5b50600436106101375760003560e01c806370a08231116100b8578063a22cb4651161007c578063a22cb46514610338578063b88d4fde14610354578063c87b56dd14610370578063ddca3f43146103a0578063e985e9c5146103be578063f2fde38b146103ee57610137565b806370a08231146102a6578063715018a6146102d65780637d5094ce146102e05780638da5cb5b146102fc57806395d89b411461031a57610137565b806342842e0e116100ff57806342842e0e146101f25780634bd314e21461020e5780635fe9ca521461023e5780636352211e1461025a57806369fe0e2d1461028a57610137565b806301ffc9a71461013c57806306fdde031461016c578063081812fc1461018a578063095ea7b3146101ba57806323b872dd146101d6575b600080fd5b610156600480360381019061015191906123ce565b61040a565b6040516101639190612416565b60405180910390f35b6101746104ec565b60405161018191906124ca565b60405180910390f35b6101a4600480360381019061019f9190612522565b61057e565b6040516101b19190612590565b60405180910390f35b6101d460048036038101906101cf91906125d7565b6105c4565b005b6101f060048036038101906101eb9190612617565b6106dc565b005b61020c60048036038101906102079190612617565b61073c565b005b610228600480360381019061022391906126cf565b61075c565b604051610235919061280e565b60405180910390f35b6102586004803603810190610253919061286e565b6108ec565b005b610274600480360381019061026f9190612522565b610df3565b6040516102819190612590565b60405180910390f35b6102a4600480360381019061029f9190612522565b610ea5565b005b6102c060048036038101906102bb91906128e2565b610eb7565b6040516102cd919061291e565b60405180910390f35b6102de610f6f565b005b6102fa60048036038101906102f59190612965565b610f83565b005b6103046110d8565b6040516103119190612590565b60405180910390f35b610322611101565b60405161032f91906124ca565b60405180910390f35b610352600480360381019061034d9190612a38565b611193565b005b61036e60048036038101906103699190612ba8565b6111a9565b005b61038a60048036038101906103859190612522565b61120b565b60405161039791906124ca565b60405180910390f35b6103a861121d565b6040516103b5919061291e565b60405180910390f35b6103d860048036038101906103d39190612c2b565b611223565b6040516103e59190612416565b60405180910390f35b610408600480360381019061040391906128e2565b6112b7565b005b60007f80ac58cd000000000000000000000000000000000000000000000000000000007bffffffffffffffffffffffffffffffffffffffffffffffffffffffff1916827bffffffffffffffffffffffffffffffffffffffffffffffffffffffff191614806104d557507f5b5e139f000000000000000000000000000000000000000000000000000000007bffffffffffffffffffffffffffffffffffffffffffffffffffffffff1916827bffffffffffffffffffffffffffffffffffffffffffffffffffffffff1916145b806104e557506104e48261133b565b5b9050919050565b6060600180546104fb90612c9a565b80601f016020809104026020016040519081016040528092919081815260200182805461052790612c9a565b80156105745780601f1061054957610100808354040283529160200191610574565b820191906000526020600020905b81548152906001019060200180831161055757829003601f168201915b5050505050905090565b6000610589826113a5565b6005600083815260200190815260200160002060009054906101000a900473ffffffffffffffffffffffffffffffffffffffff169050919050565b60006105cf82610df3565b90508073ffffffffffffffffffffffffffffffffffffffff168373ffffffffffffffffffffffffffffffffffffffff161415610640576040517f08c379a000000000000000000000000000000000000000000000000000000000815260040161063790612d3e565b60405180910390fd5b8073ffffffffffffffffffffffffffffffffffffffff1661065f6113f0565b73ffffffffffffffffffffffffffffffffffffffff16148061068e575061068d816106886113f0565b611223565b5b6106cd576040517f08c379a00000000000000000000000000000000000000000000000000000000081526004016106c490612dd0565b60405180910390fd5b6106d783836113f8565b505050565b6106ed6106e76113f0565b826114b1565b61072c576040517f08c379a000000000000000000000000000000000000000000000000000000000815260040161072390612e62565b60405180910390fd5b610737838383611546565b505050565b610757838383604051806020016040528060008152506111a9565b505050565b61076461224d565b600b8383604051610776929190612eb2565b90815260200160405180910390206040518060a001604052908160008201805461079f90612c9a565b80601f01602080910402602001604051908101604052809291908181526020018280546107cb90612c9a565b80156108185780601f106107ed57610100808354040283529160200191610818565b820191906000526020600020905b8154815290600101906020018083116107fb57829003601f168201915b5050505050815260200160018201548152602001600282015481526020016003820160009054906101000a900460ff1660ff1660ff16815260200160048201805461086290612c9a565b80601f016020809104026020016040519081016040528092919081815260200182805461088e90612c9a565b80156108db5780601f106108b0576101008083540402835291602001916108db565b820191906000526020600020905b8154815290600101906020018083116108be57829003601f168201915b505050505081525050905092915050565b6000600b8383604051610900929190612eb2565b908152602001604051809103902090508473ffffffffffffffffffffffffffffffffffffffff166370a08231336040518263ffffffff1660e01b81526004016109499190612590565b60206040518083038186803b15801561096157600080fd5b505afa158015610975573d6000803e3d6000fd5b505050506040513d601f19601f820116820180604052508101906109999190612ee0565b8411156109db576040517f08c379a00000000000000000000000000000000000000000000000000000000081526004016109d290612f59565b60405180910390fd5b606460095482600101546109ef9190612fa8565b6109f99190613031565b8414610a3a576040517f08c379a0000000000000000000000000000000000000000000000000000000008152600401610a31906130ae565b60405180910390fd5b60008160030160009054906101000a900460ff1660ff1611610a91576040517f08c379a0000000000000000000000000000000000000000000000000000000008152600401610a889061311a565b60405180910390fd5b8473ffffffffffffffffffffffffffffffffffffffff166323b872dd3330876040518463ffffffff1660e01b8152600401610ace9392919061313a565b602060405180830381600087803b158015610ae857600080fd5b505af1158015610afc573d6000803e3d6000fd5b505050506040513d601f19601f82011682018060405250810190610b209190613186565b50610b2b60086117ad565b610b3e33610b3960086117c3565b6117d1565b610bdd610b4b60086117c3565b826004018054610b5a90612c9a565b80601f0160208091040260200160405190810160405280929190818152602001828054610b8690612c9a565b8015610bd35780601f10610ba857610100808354040283529160200191610bd3565b820191906000526020600020905b815481529060010190602001808311610bb657829003601f168201915b50505050506119ab565b80600301600081819054906101000a900460ff1680929190610bfe906131b3565b91906101000a81548160ff021916908360ff1602179055505083816002016000828254610c2b91906131dd565b9250508190555060008160030160009054906101000a900460ff1660ff161415610db2578473ffffffffffffffffffffffffffffffffffffffff166323b872dd30600a60009054906101000a900473ffffffffffffffffffffffffffffffffffffffff1684600201546040518463ffffffff1660e01b8152600401610cb29392919061313a565b602060405180830381600087803b158015610ccc57600080fd5b505af1158015610ce0573d6000803e3d6000fd5b505050506040513d601f19601f82011682018060405250810190610d049190613186565b507f9ea274ade34969e9740a96a5c5d16ef0dc5cc6f86f1f8e808accc76327eba0583384848460020154604051610d3e9493929190613260565b60405180910390a1600b8383604051610d58929190612eb2565b908152602001604051809103902060008082016000610d77919061227f565b600182016000905560028201600090556003820160006101000a81549060ff0219169055600482016000610dab919061227f565b5050610dec565b7f4fc330fc2865a5bafe9f96d54262ddd229c3d6b4a9b37e66797f6a2e7a90bc703385604051610de39291906132a0565b60405180910390a15b5050505050565b6000806003600084815260200190815260200160002060009054906101000a900473ffffffffffffffffffffffffffffffffffffffff169050600073ffffffffffffffffffffffffffffffffffffffff168173ffffffffffffffffffffffffffffffffffffffff161415610e9c576040517f08c379a0000000000000000000000000000000000000000000000000000000008152600401610e9390613315565b60405180910390fd5b80915050919050565b610ead611a1f565b8060098190555050565b60008073ffffffffffffffffffffffffffffffffffffffff168273ffffffffffffffffffffffffffffffffffffffff161415610f28576040517f08c379a0000000000000000000000000000000000000000000000000000000008152600401610f1f906133a7565b60405180910390fd5b600460008373ffffffffffffffffffffffffffffffffffffffff1673ffffffffffffffffffffffffffffffffffffffff168152602001908152602001600020549050919050565b610f77611a1f565b610f816000611a9d565b565b60006040518060a0016040528088888080601f016020809104026020016040519081016040528093929190818152602001838380828437600081840152601f19601f820116905080830192505050505050508152602001868152602001600081526020018560ff16815260200184848080601f016020809104026020016040519081016040528093929190818152602001838380828437600081840152601f19601f82011690508083019250505050505050815250905080600b826000015160405161104f91906133f8565b908152602001604051809103902060008201518160000190805190602001906110799291906122bf565b50602082015181600101556040820151816002015560608201518160030160006101000a81548160ff021916908360ff16021790555060808201518160040190805190602001906110cb9291906122bf565b5090505050505050505050565b60008060009054906101000a900473ffffffffffffffffffffffffffffffffffffffff16905090565b60606002805461111090612c9a565b80601f016020809104026020016040519081016040528092919081815260200182805461113c90612c9a565b80156111895780601f1061115e57610100808354040283529160200191611189565b820191906000526020600020905b81548152906001019060200180831161116c57829003601f168201915b5050505050905090565b6111a561119e6113f0565b8383611b61565b5050565b6111ba6111b46113f0565b836114b1565b6111f9576040517f08c379a00000000000000000000000000000000000000000000000000000000081526004016111f090612e62565b60405180910390fd5b61120584848484611cce565b50505050565b606061121682611d2a565b9050919050565b60095481565b6000600660008473ffffffffffffffffffffffffffffffffffffffff1673ffffffffffffffffffffffffffffffffffffffff16815260200190815260200160002060008373ffffffffffffffffffffffffffffffffffffffff1673ffffffffffffffffffffffffffffffffffffffff16815260200190815260200160002060009054906101000a900460ff16905092915050565b6112bf611a1f565b600073ffffffffffffffffffffffffffffffffffffffff168173ffffffffffffffffffffffffffffffffffffffff16141561132f576040517f08c379a000000000000000000000000000000000000000000000000000000000815260040161132690613481565b60405180910390fd5b61133881611a9d565b50565b60007f01ffc9a7000000000000000000000000000000000000000000000000000000007bffffffffffffffffffffffffffffffffffffffffffffffffffffffff1916827bffffffffffffffffffffffffffffffffffffffffffffffffffffffff1916149050919050565b6113ae81611e3d565b6113ed576040517f08c379a00000000000000000000000000000000000000000000000000000000081526004016113e490613315565b60405180910390fd5b50565b600033905090565b816005600083815260200190815260200160002060006101000a81548173ffffffffffffffffffffffffffffffffffffffff021916908373ffffffffffffffffffffffffffffffffffffffff160217905550808273ffffffffffffffffffffffffffffffffffffffff1661146b83610df3565b73ffffffffffffffffffffffffffffffffffffffff167f8c5be1e5ebec7d5bd14f71427d1e84f3dd0314c0f7b2291e5b200ac8c7c3b92560405160405180910390a45050565b6000806114bd83610df3565b90508073ffffffffffffffffffffffffffffffffffffffff168473ffffffffffffffffffffffffffffffffffffffff1614806114ff57506114fe8185611223565b5b8061153d57508373ffffffffffffffffffffffffffffffffffffffff166115258461057e565b73ffffffffffffffffffffffffffffffffffffffff16145b91505092915050565b8273ffffffffffffffffffffffffffffffffffffffff1661156682610df3565b73ffffffffffffffffffffffffffffffffffffffff16146115bc576040517f08c379a00000000000000000000000000000000000000000000000000000000081526004016115b390613513565b60405180910390fd5b600073ffffffffffffffffffffffffffffffffffffffff168273ffffffffffffffffffffffffffffffffffffffff16141561162c576040517f08c379a0000000000000000000000000000000000000000000000000000000008152600401611623906135a5565b60405180910390fd5b611637838383611ea9565b6116426000826113f8565b6001600460008573ffffffffffffffffffffffffffffffffffffffff1673ffffffffffffffffffffffffffffffffffffffff168152602001908152602001600020600082825461169291906135c5565b925050819055506001600460008473ffffffffffffffffffffffffffffffffffffffff1673ffffffffffffffffffffffffffffffffffffffff16815260200190815260200160002060008282546116e991906131dd565b92505081905550816003600083815260200190815260200160002060006101000a81548173ffffffffffffffffffffffffffffffffffffffff021916908373ffffffffffffffffffffffffffffffffffffffff160217905550808273ffffffffffffffffffffffffffffffffffffffff168473ffffffffffffffffffffffffffffffffffffffff167fddf252ad1be2c89b69c2b068fc378daa952ba7f163c4a11628f55a4df523b3ef60405160405180910390a46117a8838383611eae565b505050565b6001816000016000828254019250508190555050565b600081600001549050919050565b600073ffffffffffffffffffffffffffffffffffffffff168273ffffffffffffffffffffffffffffffffffffffff161415611841576040517f08c379a000000000000000000000000000000000000000000000000000000000815260040161183890613645565b60405180910390fd5b61184a81611e3d565b1561188a576040517f08c379a0000000000000000000000000000000000000000000000000000000008152600401611881906136b1565b60405180910390fd5b61189660008383611ea9565b6001600460008473ffffffffffffffffffffffffffffffffffffffff1673ffffffffffffffffffffffffffffffffffffffff16815260200190815260200160002060008282546118e691906131dd565b92505081905550816003600083815260200190815260200160002060006101000a81548173ffffffffffffffffffffffffffffffffffffffff021916908373ffffffffffffffffffffffffffffffffffffffff160217905550808273ffffffffffffffffffffffffffffffffffffffff16600073ffffffffffffffffffffffffffffffffffffffff167fddf252ad1be2c89b69c2b068fc378daa952ba7f163c4a11628f55a4df523b3ef60405160405180910390a46119a760008383611eae565b5050565b6119b482611e3d565b6119f3576040517f08c379a00000000000000000000000000000000000000000000000000000000081526004016119ea90613743565b60405180910390fd5b80600760008481526020019081526020016000209080519060200190611a1a9291906122bf565b505050565b611a276113f0565b73ffffffffffffffffffffffffffffffffffffffff16611a456110d8565b73ffffffffffffffffffffffffffffffffffffffff1614611a9b576040517f08c379a0000000000000000000000000000000000000000000000000000000008152600401611a92906137af565b60405180910390fd5b565b60008060009054906101000a900473ffffffffffffffffffffffffffffffffffffffff169050816000806101000a81548173ffffffffffffffffffffffffffffffffffffffff021916908373ffffffffffffffffffffffffffffffffffffffff1602179055508173ffffffffffffffffffffffffffffffffffffffff168173ffffffffffffffffffffffffffffffffffffffff167f8be0079c531659141344cd1fd0a4f28419497f9722a3daafe3b4186f6b6457e060405160405180910390a35050565b8173ffffffffffffffffffffffffffffffffffffffff168373ffffffffffffffffffffffffffffffffffffffff161415611bd0576040517f08c379a0000000000000000000000000000000000000000000000000000000008152600401611bc79061381b565b60405180910390fd5b80600660008573ffffffffffffffffffffffffffffffffffffffff1673ffffffffffffffffffffffffffffffffffffffff16815260200190815260200160002060008473ffffffffffffffffffffffffffffffffffffffff1673ffffffffffffffffffffffffffffffffffffffff16815260200190815260200160002060006101000a81548160ff0219169083151502179055508173ffffffffffffffffffffffffffffffffffffffff168373ffffffffffffffffffffffffffffffffffffffff167f17307eab39ab6107e8899845ad3d59bd9653f200f220920489ca2b5937696c3183604051611cc19190612416565b60405180910390a3505050565b611cd9848484611546565b611ce584848484611eb3565b611d24576040517f08c379a0000000000000000000000000000000000000000000000000000000008152600401611d1b906138ad565b60405180910390fd5b50505050565b6060611d35826113a5565b6000600760008481526020019081526020016000208054611d5590612c9a565b80601f0160208091040260200160405190810160405280929190818152602001828054611d8190612c9a565b8015611dce5780601f10611da357610100808354040283529160200191611dce565b820191906000526020600020905b815481529060010190602001808311611db157829003601f168201915b505050505090506000611ddf61204a565b9050600081511415611df5578192505050611e38565b600082511115611e2a578082604051602001611e129291906138cd565b60405160208183030381529060405292505050611e38565b611e3384612061565b925050505b919050565b60008073ffffffffffffffffffffffffffffffffffffffff166003600084815260200190815260200160002060009054906101000a900473ffffffffffffffffffffffffffffffffffffffff1673ffffffffffffffffffffffffffffffffffffffff1614159050919050565b505050565b505050565b6000611ed48473ffffffffffffffffffffffffffffffffffffffff166120c9565b1561203d578373ffffffffffffffffffffffffffffffffffffffff1663150b7a02611efd6113f0565b8786866040518563ffffffff1660e01b8152600401611f1f9493929190613946565b602060405180830381600087803b158015611f3957600080fd5b505af1925050508015611f6a57506040513d601f19601f82011682018060405250810190611f6791906139a7565b60015b611fed573d8060008114611f9a576040519150601f19603f3d011682016040523d82523d6000602084013e611f9f565b606091505b50600081511415611fe5576040517f08c379a0000000000000000000000000000000000000000000000000000000008152600401611fdc906138ad565b60405180910390fd5b805181602001fd5b63150b7a0260e01b7bffffffffffffffffffffffffffffffffffffffffffffffffffffffff1916817bffffffffffffffffffffffffffffffffffffffffffffffffffffffff191614915050612042565b600190505b949350505050565b606060405180602001604052806000815250905090565b606061206c826113a5565b600061207661204a565b9050600081511161209657604051806020016040528060008152506120c1565b806120a0846120ec565b6040516020016120b19291906138cd565b6040516020818303038152906040525b915050919050565b6000808273ffffffffffffffffffffffffffffffffffffffff163b119050919050565b60606000821415612134576040518060400160405280600181526020017f30000000000000000000000000000000000000000000000000000000000000008152509050612248565b600082905060005b6000821461216657808061214f906139d4565b915050600a8261215f9190613031565b915061213c565b60008167ffffffffffffffff81111561218257612181612a7d565b5b6040519080825280601f01601f1916602001820160405280156121b45781602001600182028036833780820191505090505b5090505b60008514612241576001826121cd91906135c5565b9150600a856121dc9190613a1d565b60306121e891906131dd565b60f81b8183815181106121fe576121fd613a4e565b5b60200101907effffffffffffffffffffffffffffffffffffffffffffffffffffffffffffff1916908160001a905350600a8561223a9190613031565b94506121b8565b8093505050505b919050565b6040518060a00160405280606081526020016000815260200160008152602001600060ff168152602001606081525090565b50805461228b90612c9a565b6000825580601f1061229d57506122bc565b601f0160209004906000526020600020908101906122bb9190612345565b5b50565b8280546122cb90612c9a565b90600052602060002090601f0160209004810192826122ed5760008555612334565b82601f1061230657805160ff1916838001178555612334565b82800160010185558215612334579182015b82811115612333578251825591602001919060010190612318565b5b5090506123419190612345565b5090565b5b8082111561235e576000816000905550600101612346565b5090565b6000604051905090565b600080fd5b600080fd5b60007fffffffff0000000000000000000000000000000000000000000000000000000082169050919050565b6123ab81612376565b81146123b657600080fd5b50565b6000813590506123c8816123a2565b92915050565b6000602082840312156123e4576123e361236c565b5b60006123f2848285016123b9565b91505092915050565b60008115159050919050565b612410816123fb565b82525050565b600060208201905061242b6000830184612407565b92915050565b600081519050919050565b600082825260208201905092915050565b60005b8381101561246b578082015181840152602081019050612450565b8381111561247a576000848401525b50505050565b6000601f19601f8301169050919050565b600061249c82612431565b6124a6818561243c565b93506124b681856020860161244d565b6124bf81612480565b840191505092915050565b600060208201905081810360008301526124e48184612491565b905092915050565b6000819050919050565b6124ff816124ec565b811461250a57600080fd5b50565b60008135905061251c816124f6565b92915050565b6000602082840312156125385761253761236c565b5b60006125468482850161250d565b91505092915050565b600073ffffffffffffffffffffffffffffffffffffffff82169050919050565b600061257a8261254f565b9050919050565b61258a8161256f565b82525050565b60006020820190506125a56000830184612581565b92915050565b6125b48161256f565b81146125bf57600080fd5b50565b6000813590506125d1816125ab565b92915050565b600080604083850312156125ee576125ed61236c565b5b60006125fc858286016125c2565b925050602061260d8582860161250d565b9150509250929050565b6000806000606084860312156126305761262f61236c565b5b600061263e868287016125c2565b935050602061264f868287016125c2565b92505060406126608682870161250d565b9150509250925092565b600080fd5b600080fd5b600080fd5b60008083601f84011261268f5761268e61266a565b5b8235905067ffffffffffffffff8111156126ac576126ab61266f565b5b6020830191508360018202830111156126c8576126c7612674565b5b9250929050565b600080602083850312156126e6576126e561236c565b5b600083013567ffffffffffffffff81111561270457612703612371565b5b61271085828601612679565b92509250509250929050565b600082825260208201905092915050565b600061273882612431565b612742818561271c565b935061275281856020860161244d565b61275b81612480565b840191505092915050565b61276f816124ec565b82525050565b600060ff82169050919050565b61278b81612775565b82525050565b600060a08301600083015184820360008601526127ae828261272d565b91505060208301516127c36020860182612766565b5060408301516127d66040860182612766565b5060608301516127e96060860182612782565b5060808301518482036080860152612801828261272d565b9150508091505092915050565b600060208201905081810360008301526128288184612791565b905092915050565b600061283b8261256f565b9050919050565b61284b81612830565b811461285657600080fd5b50565b60008135905061286881612842565b92915050565b600080600080606085870312156128885761288761236c565b5b600061289687828801612859565b94505060206128a78782880161250d565b935050604085013567ffffffffffffffff8111156128c8576128c7612371565b5b6128d487828801612679565b925092505092959194509250565b6000602082840312156128f8576128f761236c565b5b6000612906848285016125c2565b91505092915050565b612918816124ec565b82525050565b6000602082019050612933600083018461290f565b92915050565b61294281612775565b811461294d57600080fd5b50565b60008135905061295f81612939565b92915050565b600080600080600080608087890312156129825761298161236c565b5b600087013567ffffffffffffffff8111156129a05761299f612371565b5b6129ac89828a01612679565b965096505060206129bf89828a0161250d565b94505060406129d089828a01612950565b935050606087013567ffffffffffffffff8111156129f1576129f0612371565b5b6129fd89828a01612679565b92509250509295509295509295565b612a15816123fb565b8114612a2057600080fd5b50565b600081359050612a3281612a0c565b92915050565b60008060408385031215612a4f57612a4e61236c565b5b6000612a5d858286016125c2565b9250506020612a6e85828601612a23565b9150509250929050565b600080fd5b7f4e487b7100000000000000000000000000000000000000000000000000000000600052604160045260246000fd5b612ab582612480565b810181811067ffffffffffffffff82111715612ad457612ad3612a7d565b5b80604052505050565b6000612ae7612362565b9050612af38282612aac565b919050565b600067ffffffffffffffff821115612b1357612b12612a7d565b5b612b1c82612480565b9050602081019050919050565b82818337600083830152505050565b6000612b4b612b4684612af8565b612add565b905082815260208101848484011115612b6757612b66612a78565b5b612b72848285612b29565b509392505050565b600082601f830112612b8f57612b8e61266a565b5b8135612b9f848260208601612b38565b91505092915050565b60008060008060808587031215612bc257612bc161236c565b5b6000612bd0878288016125c2565b9450506020612be1878288016125c2565b9350506040612bf28782880161250d565b925050606085013567ffffffffffffffff811115612c1357612c12612371565b5b612c1f87828801612b7a565b91505092959194509250565b60008060408385031215612c4257612c4161236c565b5b6000612c50858286016125c2565b9250506020612c61858286016125c2565b9150509250929050565b7f4e487b7100000000000000000000000000000000000000000000000000000000600052602260045260246000fd5b60006002820490506001821680612cb257607f821691505b60208210811415612cc657612cc5612c6b565b5b50919050565b7f4552433732313a20617070726f76616c20746f2063757272656e74206f776e6560008201527f7200000000000000000000000000000000000000000000000000000000000000602082015250565b6000612d2860218361243c565b9150612d3382612ccc565b604082019050919050565b60006020820190508181036000830152612d5781612d1b565b9050919050565b7f4552433732313a20617070726f76652063616c6c6572206973206e6f7420746f60008201527f6b656e206f776e6572206e6f7220617070726f76656420666f7220616c6c0000602082015250565b6000612dba603e8361243c565b9150612dc582612d5e565b604082019050919050565b60006020820190508181036000830152612de981612dad565b9050919050565b7f4552433732313a2063616c6c6572206973206e6f7420746f6b656e206f776e6560008201527f72206e6f7220617070726f766564000000000000000000000000000000000000602082015250565b6000612e4c602e8361243c565b9150612e5782612df0565b604082019050919050565b60006020820190508181036000830152612e7b81612e3f565b9050919050565b600081905092915050565b6000612e998385612e82565b9350612ea6838584612b29565b82840190509392505050565b6000612ebf828486612e8d565b91508190509392505050565b600081519050612eda816124f6565b92915050565b600060208284031215612ef657612ef561236c565b5b6000612f0484828501612ecb565b91505092915050565b7f62616c616e636520746f6f206c6f770000000000000000000000000000000000600082015250565b6000612f43600f8361243c565b9150612f4e82612f0d565b602082019050919050565b60006020820190508181036000830152612f7281612f36565b9050919050565b7f4e487b7100000000000000000000000000000000000000000000000000000000600052601160045260246000fd5b6000612fb3826124ec565b9150612fbe836124ec565b9250817fffffffffffffffffffffffffffffffffffffffffffffffffffffffffffffffff0483118215151615612ff757612ff6612f79565b5b828202905092915050565b7f4e487b7100000000000000000000000000000000000000000000000000000000600052601260045260246000fd5b600061303c826124ec565b9150613047836124ec565b92508261305757613056613002565b5b828204905092915050565b7f77726f6e6720616d6f756e74206f6620746f6b656e7300000000000000000000600082015250565b600061309860168361243c565b91506130a382613062565b602082019050919050565b600060208201905081810360008301526130c78161308b565b9050919050565b7f6e6f2073706f7473206c65667400000000000000000000000000000000000000600082015250565b6000613104600d8361243c565b915061310f826130ce565b602082019050919050565b60006020820190508181036000830152613133816130f7565b9050919050565b600060608201905061314f6000830186612581565b61315c6020830185612581565b613169604083018461290f565b949350505050565b60008151905061318081612a0c565b92915050565b60006020828403121561319c5761319b61236c565b5b60006131aa84828501613171565b91505092915050565b60006131be82612775565b915060008214156131d2576131d1612f79565b5b600182039050919050565b60006131e8826124ec565b91506131f3836124ec565b9250827fffffffffffffffffffffffffffffffffffffffffffffffffffffffffffffffff0382111561322857613227612f79565b5b828201905092915050565b600061323f838561243c565b935061324c838584612b29565b61325583612480565b840190509392505050565b60006060820190506132756000830187612581565b8181036020830152613288818587613233565b9050613297604083018461290f565b95945050505050565b60006040820190506132b56000830185612581565b6132c2602083018461290f565b9392505050565b7f4552433732313a20696e76616c696420746f6b656e2049440000000000000000600082015250565b60006132ff60188361243c565b915061330a826132c9565b602082019050919050565b6000602082019050818103600083015261332e816132f2565b9050919050565b7f4552433732313a2061646472657373207a65726f206973206e6f74206120766160008201527f6c6964206f776e65720000000000000000000000000000000000000000000000602082015250565b600061339160298361243c565b915061339c82613335565b604082019050919050565b600060208201905081810360008301526133c081613384565b9050919050565b60006133d282612431565b6133dc8185612e82565b93506133ec81856020860161244d565b80840191505092915050565b600061340482846133c7565b915081905092915050565b7f4f776e61626c653a206e6577206f776e657220697320746865207a65726f206160008201527f6464726573730000000000000000000000000000000000000000000000000000602082015250565b600061346b60268361243c565b91506134768261340f565b604082019050919050565b6000602082019050818103600083015261349a8161345e565b9050919050565b7f4552433732313a207472616e736665722066726f6d20696e636f72726563742060008201527f6f776e6572000000000000000000000000000000000000000000000000000000602082015250565b60006134fd60258361243c565b9150613508826134a1565b604082019050919050565b6000602082019050818103600083015261352c816134f0565b9050919050565b7f4552433732313a207472616e7366657220746f20746865207a65726f2061646460008201527f7265737300000000000000000000000000000000000000000000000000000000602082015250565b600061358f60248361243c565b915061359a82613533565b604082019050919050565b600060208201905081810360008301526135be81613582565b9050919050565b60006135d0826124ec565b91506135db836124ec565b9250828210156135ee576135ed612f79565b5b828203905092915050565b7f4552433732313a206d696e7420746f20746865207a65726f2061646472657373600082015250565b600061362f60208361243c565b915061363a826135f9565b602082019050919050565b6000602082019050818103600083015261365e81613622565b9050919050565b7f4552433732313a20746f6b656e20616c7265616479206d696e74656400000000600082015250565b600061369b601c8361243c565b91506136a682613665565b602082019050919050565b600060208201905081810360008301526136ca8161368e565b9050919050565b7f45524337323155524953746f726167653a2055524920736574206f66206e6f6e60008201527f6578697374656e7420746f6b656e000000000000000000000000000000000000602082015250565b600061372d602e8361243c565b9150613738826136d1565b604082019050919050565b6000602082019050818103600083015261375c81613720565b9050919050565b7f4f776e61626c653a2063616c6c6572206973206e6f7420746865206f776e6572600082015250565b600061379960208361243c565b91506137a482613763565b602082019050919050565b600060208201905081810360008301526137c88161378c565b9050919050565b7f4552433732313a20617070726f766520746f2063616c6c657200000000000000600082015250565b600061380560198361243c565b9150613810826137cf565b602082019050919050565b60006020820190508181036000830152613834816137f8565b9050919050565b7f4552433732313a207472616e7366657220746f206e6f6e20455243373231526560008201527f63656976657220696d706c656d656e7465720000000000000000000000000000602082015250565b600061389760328361243c565b91506138a28261383b565b604082019050919050565b600060208201905081810360008301526138c68161388a565b9050919050565b60006138d982856133c7565b91506138e582846133c7565b91508190509392505050565b600081519050919050565b600082825260208201905092915050565b6000613918826138f1565b61392281856138fc565b935061393281856020860161244d565b61393b81612480565b840191505092915050565b600060808201905061395b6000830187612581565b6139686020830186612581565b613975604083018561290f565b8181036060830152613987818461390d565b905095945050505050565b6000815190506139a1816123a2565b92915050565b6000602082840312156139bd576139bc61236c565b5b60006139cb84828501613992565b91505092915050565b60006139df826124ec565b91507fffffffffffffffffffffffffffffffffffffffffffffffffffffffffffffffff821415613a1257613a11612f79565b5b600182019050919050565b6000613a28826124ec565b9150613a33836124ec565b925082613a4357613a42613002565b5b828206905092915050565b7f4e487b7100000000000000000000000000000000000000000000000000000000600052603260045260246000fdfea26469706673582212203e1426593b6110d46dccb40d46b2f7016e48335cbee3fb43ee5611ccff60e55564736f6c63430008090033",
  "linkReferences": {},
  "deployedLinkReferences": {}
}